{
  "contractName": "BasicHomeBridge",
  "abi": [
    {
      "constant": true,
      "inputs": [],
      "name": "requiredSignatures",
      "outputs": [
        {
          "name": "",
          "type": "uint256"
        }
      ],
      "payable": false,
      "stateMutability": "view",
      "type": "function"
    },
    {
      "constant": true,
      "inputs": [],
      "name": "validatorContract",
      "outputs": [
        {
          "name": "",
          "type": "address"
        }
      ],
      "payable": false,
      "stateMutability": "view",
      "type": "function"
    },
    {
      "anonymous": false,
      "inputs": [
        {
          "indexed": false,
          "name": "recipient",
          "type": "address"
        },
        {
          "indexed": false,
          "name": "value",
          "type": "uint256"
        }
      ],
      "name": "UserRequestForSignature",
      "type": "event"
    },
    {
      "anonymous": false,
      "inputs": [
        {
          "indexed": false,
          "name": "recipient",
          "type": "address"
        },
        {
          "indexed": false,
          "name": "value",
          "type": "uint256"
        },
        {
          "indexed": false,
          "name": "transactionHash",
          "type": "bytes32"
        }
      ],
      "name": "AffirmationCompleted",
      "type": "event"
    },
    {
      "anonymous": false,
      "inputs": [
        {
          "indexed": true,
          "name": "signer",
          "type": "address"
        },
        {
          "indexed": false,
          "name": "messageHash",
          "type": "bytes32"
        }
      ],
      "name": "SignedForUserRequest",
      "type": "event"
    },
    {
      "anonymous": false,
      "inputs": [
        {
          "indexed": true,
          "name": "signer",
          "type": "address"
        },
        {
          "indexed": false,
          "name": "transactionHash",
          "type": "bytes32"
        }
      ],
      "name": "SignedForAffirmation",
      "type": "event"
    },
    {
      "anonymous": false,
      "inputs": [
        {
          "indexed": false,
          "name": "authorityResponsibleForRelay",
          "type": "address"
        },
        {
          "indexed": false,
          "name": "messageHash",
          "type": "bytes32"
        },
        {
          "indexed": false,
          "name": "NumberOfCollectedSignatures",
          "type": "uint256"
        }
      ],
      "name": "CollectedSignatures",
      "type": "event"
    },
    {
      "constant": false,
      "inputs": [
        {
          "name": "recipient",
          "type": "address"
        },
        {
          "name": "value",
          "type": "uint256"
        },
        {
          "name": "transactionHash",
          "type": "bytes32"
        }
      ],
      "name": "executeAffirmation",
      "outputs": [],
      "payable": false,
      "stateMutability": "nonpayable",
      "type": "function"
    },
    {
      "constant": false,
      "inputs": [
        {
          "name": "signature",
          "type": "bytes"
        },
        {
          "name": "message",
          "type": "bytes"
        }
      ],
      "name": "submitSignature",
      "outputs": [],
      "payable": false,
      "stateMutability": "nonpayable",
      "type": "function"
    },
    {
      "constant": true,
      "inputs": [
        {
          "name": "_withdrawal",
          "type": "bytes32"
        }
      ],
      "name": "numAffirmationsSigned",
      "outputs": [
        {
          "name": "",
          "type": "uint256"
        }
      ],
      "payable": false,
      "stateMutability": "view",
      "type": "function"
    },
    {
      "constant": true,
      "inputs": [
        {
          "name": "_withdrawal",
          "type": "bytes32"
        }
      ],
      "name": "affirmationsSigned",
      "outputs": [
        {
          "name": "",
          "type": "bool"
        }
      ],
      "payable": false,
      "stateMutability": "view",
      "type": "function"
    },
    {
      "constant": true,
      "inputs": [
        {
          "name": "_hash",
          "type": "bytes32"
        },
        {
          "name": "_index",
          "type": "uint256"
        }
      ],
      "name": "signature",
      "outputs": [
        {
          "name": "",
          "type": "bytes"
        }
      ],
      "payable": false,
      "stateMutability": "view",
      "type": "function"
    },
    {
      "constant": true,
      "inputs": [
        {
          "name": "_message",
          "type": "bytes32"
        }
      ],
      "name": "messagesSigned",
      "outputs": [
        {
          "name": "",
          "type": "bool"
        }
      ],
      "payable": false,
      "stateMutability": "view",
      "type": "function"
    },
    {
      "constant": true,
      "inputs": [
        {
          "name": "_hash",
          "type": "bytes32"
        }
      ],
      "name": "message",
      "outputs": [
        {
          "name": "",
          "type": "bytes"
        }
      ],
      "payable": false,
      "stateMutability": "view",
      "type": "function"
    },
    {
      "constant": true,
      "inputs": [
        {
          "name": "_number",
          "type": "uint256"
        }
      ],
      "name": "isAlreadyProcessed",
      "outputs": [
        {
          "name": "",
          "type": "bool"
        }
      ],
      "payable": false,
      "stateMutability": "pure",
      "type": "function"
    },
    {
      "constant": true,
      "inputs": [
        {
          "name": "_message",
          "type": "bytes32"
        }
      ],
      "name": "numMessagesSigned",
      "outputs": [
        {
          "name": "",
          "type": "uint256"
        }
      ],
      "payable": false,
      "stateMutability": "view",
      "type": "function"
    },
    {
      "constant": true,
      "inputs": [],
      "name": "requiredMessageLength",
      "outputs": [
        {
          "name": "",
          "type": "uint256"
        }
      ],
      "payable": false,
      "stateMutability": "pure",
      "type": "function"
    }
  ],
  "bytecode": "0x608060405234801561001057600080fd5b50611808806100206000396000f3006080604052600436106100a05763ffffffff60e060020a6000350416630cbf060181146100a55780631812d996146100cf578063408fef2e1461015f578063490a32c614610174578063630cea8e1461018c5780636ae1a976146101ba5780637698da24146101d25780638d068043146101fe5780638f4b4b9814610213578063994390891461022b578063995b2cff1461025c578063ffd19e8c14610283575b600080fd5b3480156100b157600080fd5b506100bd60043561029b565b60408051918252519081900360200190f35b3480156100db57600080fd5b506100ea600435602435610360565b6040805160208082528351818301528351919283929083019185019080838360005b8381101561012457818101518382015260200161010c565b50505050905090810190601f1680156101515780820380516001836020036101000a031916815260200191505b509250505060405180910390f35b34801561016b57600080fd5b506100bd6103f7565b34801561018057600080fd5b506100ea600435610407565b34801561019857600080fd5b506101b86024600480358281019290820135918135918201910135610418565b005b3480156101c657600080fd5b506100bd600435610873565b3480156101de57600080fd5b506101ea6004356108f6565b604080519115158252519081900360200190f35b34801561020a57600080fd5b506100bd6109bf565b34801561021f57600080fd5b506101ea600435610a37565b34801561023757600080fd5b50610240610abb565b60408051600160a060020a039092168252519081900360200190f35b34801561026857600080fd5b506101b8600160a060020a0360043516602435604435610b79565b34801561028f57600080fd5b506101ea600435610e69565b60008060008360405160200180807f6e756d4d657373616765735369676e656400000000000000000000000000000081525060110182600019166000191681526020019150506040516020818303038152906040526040518082805190602001908083835b6020831061031f5780518252601f199092019160209182019101610300565b51815160209384036101000a600019018019909216911617905260408051929094018290039091208652850195909552929092016000205495945050505050565b604080516020808201859052818301849052825180830384018152606092830193849052805192936000939192909182918401908083835b602083106103b75780518252601f199092019160209182019101610398565b6001836020036101000a038019825116818451168082178552505050505050905001915050604051809103902090506103ef81610e91565b949350505050565b6000610401610ff9565b90505b90565b606061041282610ffe565b92915050565b6000806000806000610428610abb565b600160a060020a031663facd743b336040518263ffffffff1660e060020a0281526004018082600160a060020a0316600160a060020a03168152602001915050602060405180830381600087803b15801561048257600080fd5b505af1158015610496573d6000803e3d6000fd5b505050506040513d60208110156104ac57600080fd5b505115156104b957600080fd5b6104f287878080601f01602080910402602001604051908101604052809392919081815260200183838082843750611082945050505050565b15156104fd57600080fd5b61056489898080601f0160208091040260200160405190810160405280939291908181526020018383808284375050604080516020601f8f018190048102820181019092528d815294508d93508c9250829150840183828082843750611096945050505050565b600160a060020a0316331461057857600080fd5b8686604051602001808383808284378201915050925050506040516020818303038152906040526040518082805190602001908083835b602083106105ce5780518252601f1990920191602091820191016105af565b51815160209384036101000a600019018019909216911617905260408051929094018290038220336c0100000000000000000000000002838301526034808401829052855180850390910181526054909301948590528251909b509195509293508392850191508083835b602083106106585780518252601f199092019160209182019101610639565b6001836020036101000a038019825116818451168082178552505050505050905001915050604051809103902093506106908561029b565b925061069b83610e69565b156106a557600080fd5b6001928301928311156106ca576106bb84610a37565b156106c557600080fd5b610704565b6107048588888080601f01602080910402602001604051908101604052809392919081815260200183838082843750611156945050505050565b61070f84600161122d565b604080516020808201889052600019860182840152825180830384018152606090920192839052815191929182918401908083835b602083106107635780518252601f199092019160209182019101610744565b51815160209384036101000a600019018019909216911617905260408051929094018290038220601f8f018290048202830182019094528d82529296506107c49450869350918d91508c9081908401838280828437506112ff945050505050565b6107ce8584611382565b60408051868152905133917fbf06885f40778f5ccfb64497d3f92ce568ddaedb7e2fb4487f72690418cf8e4c919081900360200190a261080c6109bf565b9050808310610868576108278561082285611447565b611382565b604080513381526020810187905280820183905290517f415557404d88a0c0b8e3b16967cafffc511213fd9c465c16832ee17ed57d72379181900360600190a15b505050505050505050565b60008060008360405160200180807f6e756d41666669726d6174696f6e735369676e6564000000000000000000000081525060150182600019166000191681526020019150506040516020818303038152906040526040518082805190602001908083836020831061031f5780518252601f199092019160209182019101610300565b6000600460008360405160200180807f61666669726d6174696f6e735369676e6564000000000000000000000000000081525060120182600019166000191681526020019150506040516020818303038152906040526040518082805190602001908083835b6020831061097b5780518252601f19909201916020918201910161095c565b51815160209384036101000a600019018019909216911617905260408051929094018290039091208652850195909552929092016000205460ff1695945050505050565b60006109c9610abb565b600160a060020a0316638d0680436040518163ffffffff1660e060020a028152600401602060405180830381600087803b158015610a0657600080fd5b505af1158015610a1a573d6000803e3d6000fd5b505050506040513d6020811015610a3057600080fd5b5051905090565b6000600460008360405160200180807f6d657373616765735369676e6564000000000000000000000000000000000000815250600e0182600019166000191681526020019150506040516020818303038152906040526040518082805190602001908083836020831061097b5780518252601f19909201916020918201910161095c565b60006002600060405160200180807f76616c696461746f72436f6e747261637400000000000000000000000000000081525060110190506040516020818303038152906040526040518082805190602001908083835b60208310610b305780518252601f199092019160209182019101610b11565b51815160209384036101000a6000190180199092169116179052604080519290940182900390912086528501959095529290920160002054600160a060020a0316949350505050565b6000806000610b86610abb565b600160a060020a031663facd743b336040518263ffffffff1660e060020a0281526004018082600160a060020a0316600160a060020a03168152602001915050602060405180830381600087803b158015610be057600080fd5b505af1158015610bf4573d6000803e3d6000fd5b505050506040513d6020811015610c0a57600080fd5b50511515610c1757600080fd5b610c208561146c565b15610e5657604080516c01000000000000000000000000600160a060020a0389160260208083019190915260348201889052605480830188905283518084039091018152607490920192839052815191929182918401908083835b60208310610c9a5780518252601f199092019160209182019101610c7b565b51815160209384036101000a600019018019909216911617905260408051929094018290038220336c01000000000000000000000000028383015260348084018290528551808503909101815260549093019485905282519099509195509293508392850191508083835b60208310610d245780518252601f199092019160209182019101610d05565b6001836020036101000a03801982511681845116808217855250505050505090500191505060405180910390209150610d5c826108f6565b15610d6657600080fd5b610d71826001611472565b610d7a83610873565b9050610d8581610e69565b15610d8f57600080fd5b600101610d9c83826114f5565b60408051858152905133917f5df9cc3eb93d8a9a481857a3b70a8ca966e6b80b25cf0ee2cce180ec5afa80a1919081900360200190a2610dda6109bf565b8110610e5157610df283610ded83611447565b6114f5565b610dfc8686611577565b1515610e0757600080fd5b60408051600160a060020a03881681526020810187905280820186905290517f6fc115a803b8703117d9a3956c5a15401cb42401f91630f015eb6b043fa762539181900360600190a15b610e61565b610e61868686611228565b505050505050565b7f80000000000000000000000000000000000000000000000000000000000000009081161490565b6060600360008360405160200180807f7369676e61747572657300000000000000000000000000000000000000000000815250600a0182600019166000191681526020019150506040516020818303038152906040526040518082805190602001908083835b60208310610f165780518252601f199092019160209182019101610ef7565b6001836020036101000a0380198251168184511680821785525050505050509050019150506040518091039020600019166000191681526020019081526020016000208054600181600116156101000203166002900480601f016020809104026020016040519081016040528092919081815260200182805460018160011615610100020316600290048015610fed5780601f10610fc257610100808354040283529160200191610fed565b820191906000526020600020905b815481529060010190602001808311610fd057829003601f168201915b50505050509050919050565b606890565b6060600360008360405160200180807f6d65737361676573000000000000000000000000000000000000000000000000815250600801826000191660001916815260200191505060405160208183030381529060405260405180828051906020019080838360208310610f165780518252601f199092019160209182019101610ef7565b600061108c610ff9565b8251149050919050565b600080600080855160411415156110ac57600080fd5b50505060208301516040840151606085015160016110c98661157f565b60408051600080825260208083018085529490945260ff7f0100000000000000000000000000000000000000000000000000000000000000870416828401526060820188905260808201879052915160a08083019493601f198301938390039091019190865af1158015611141573d6000803e3d6000fd5b5050604051601f190151979650505050505050565b80600360008460405160200180807f6d6573736167657300000000000000000000000000000000000000000000000081525060080182600019166000191681526020019150506040516020818303038152906040526040518082805190602001908083835b602083106111da5780518252601f1990920191602091820191016111bb565b51815160001960209485036101000a01908116901991909116179052604080519490920184900390932086528583019690965250929093016000208451611228959194509201919050611744565b505050565b80600460008460405160200180807f6d657373616765735369676e6564000000000000000000000000000000000000815250600e0182600019166000191681526020019150506040516020818303038152906040526040518082805190602001908083835b602083106112b15780518252601f199092019160209182019101611292565b51815160209384036101000a60001901801990921691161790526040805192909401829003909120865285019590955292909201600020805460ff1916941515949094179093555050505050565b80600360008460405160200180807f7369676e61747572657300000000000000000000000000000000000000000000815250600a018260001916600019168152602001915050604051602081830303815290604052604051808280519060200190808383602083106111da5780518252601f1990920191602091820191016111bb565b806000808460405160200180807f6e756d4d657373616765735369676e656400000000000000000000000000000081525060110182600019166000191681526020019150506040516020818303038152906040526040518082805190602001908083835b602083106114055780518252601f1990920191602091820191016113e6565b51815160209384036101000a60001901801990921691161790526040805192909401829003909120865285019590955292909201600020939093555050505050565b7f80000000000000000000000000000000000000000000000000000000000000001790565b50600190565b80600460008460405160200180807f61666669726d6174696f6e735369676e656400000000000000000000000000008152506012018260001916600019168152602001915050604051602081830303815290604052604051808280519060200190808383602083106112b15780518252601f199092019160209182019101611292565b806000808460405160200180807f6e756d41666669726d6174696f6e735369676e656400000000000000000000008152506015018260001916600019168152602001915050604051602081830303815290604052604051808280519060200190808383602083106114055780518252601f1990920191602091820191016113e6565b600092915050565b604080518082018252601a81527f19457468657265756d205369676e6564204d6573736167653a0a000000000000602080830191825283518085018552600381527f313034000000000000000000000000000000000000000000000000000000000081830152935183516000959385938593899391019182918083835b6020831061161b5780518252601f1990920191602091820191016115fc565b51815160209384036101000a600019018019909216911617905286519190930192860191508083835b602083106116635780518252601f199092019160209182019101611644565b51815160209384036101000a600019018019909216911617905285519190930192850191508083835b602083106116ab5780518252601f19909201916020918201910161168c565b6001836020036101000a03801982511681845116808217855250505050505090500193505050506040516020818303038152906040526040518082805190602001908083835b602083106117105780518252601f1990920191602091820191016116f1565b5181516020939093036101000a60001901801990911692169190911790526040519201829003909120979650505050505050565b828054600181600116156101000203166002900490600052602060002090601f016020900481019282601f1061178557805160ff19168380011785556117b2565b828001600101855582156117b2579182015b828111156117b2578251825591602001919060010190611797565b506117be9291506117c2565b5090565b61040491905b808211156117be57600081556001016117c85600a165627a7a72305820839d4691367a1c61f07d39a31e243d9d4dbd246fc0ba8c5031be3933102cf5ab0029",
  "source": "pragma solidity 0.4.24;\n\nimport \"../upgradeability/EternalStorage.sol\";\nimport \"../libraries/SafeMath.sol\";\nimport \"openzeppelin-solidity/contracts/token/ERC20/ERC20Basic.sol\";\nimport \"./Validatable.sol\";\nimport \"../libraries/Message.sol\";\n\ncontract BasicHomeBridge is EternalStorage, Validatable {\n    using SafeMath for uint256;\n\n    event UserRequestForSignature(address recipient, uint256 value);\n    event AffirmationCompleted (address recipient, uint256 value, bytes32 transactionHash);\n    event SignedForUserRequest(address indexed signer, bytes32 messageHash);\n    event SignedForAffirmation(address indexed signer, bytes32 transactionHash);\n    event CollectedSignatures(address authorityResponsibleForRelay, bytes32 messageHash, uint256 NumberOfCollectedSignatures);\n\n    function executeAffirmation(address recipient, uint256 value, bytes32 transactionHash) external onlyValidator {\n        if (affirmationWithinLimits(value)) {\n            bytes32 hashMsg = keccak256(abi.encodePacked(recipient, value, transactionHash));\n            bytes32 hashSender = keccak256(abi.encodePacked(msg.sender, hashMsg));\n            // Duplicated affirmations\n            require(!affirmationsSigned(hashSender));\n            setAffirmationsSigned(hashSender, true);\n\n            uint256 signed = numAffirmationsSigned(hashMsg);\n            require(!isAlreadyProcessed(signed));\n            // the check above assumes that the case when the value could be overflew will not happen in the addition operation below\n            signed = signed + 1;\n\n            setNumAffirmationsSigned(hashMsg, signed);\n\n            emit SignedForAffirmation(msg.sender, transactionHash);\n\n            if (signed >= requiredSignatures()) {\n                // If the bridge contract does not own enough tokens to transfer\n                // it will couse funds lock on the home side of the bridge\n                setNumAffirmationsSigned(hashMsg, markAsProcessed(signed));\n                require(onExecuteAffirmation(recipient, value));\n                emit AffirmationCompleted(recipient, value, transactionHash);\n            }\n        } else {\n            onFailedAffirmation(recipient, value, transactionHash);\n        }\n    }\n\n    function submitSignature(bytes signature, bytes message) external onlyValidator {\n        // ensure that `signature` is really `message` signed by `msg.sender`\n        require(Message.isMessageValid(message));\n        require(msg.sender == Message.recoverAddressFromSignedMessage(signature, message));\n        bytes32 hashMsg = keccak256(abi.encodePacked(message));\n        bytes32 hashSender = keccak256(abi.encodePacked(msg.sender, hashMsg));\n\n        uint256 signed = numMessagesSigned(hashMsg);\n        require(!isAlreadyProcessed(signed));\n        // the check above assumes that the case when the value could be overflew will not happen in the addition operation below\n        signed = signed + 1;\n        if (signed > 1) {\n            // Duplicated signatures\n            require(!messagesSigned(hashSender));\n        } else {\n            setMessages(hashMsg, message);\n        }\n        setMessagesSigned(hashSender, true);\n\n        bytes32 signIdx = keccak256(abi.encodePacked(hashMsg, (signed-1)));\n        setSignatures(signIdx, signature);\n\n        setNumMessagesSigned(hashMsg, signed);\n\n        emit SignedForUserRequest(msg.sender, hashMsg);\n\n        uint256 reqSigs = requiredSignatures();\n        if (signed >= reqSigs) {\n            setNumMessagesSigned(hashMsg, markAsProcessed(signed));\n            emit CollectedSignatures(msg.sender, hashMsg, reqSigs);\n        }\n    }\n\n    function setMessagesSigned(bytes32 _hash, bool _status) internal {\n        boolStorage[keccak256(abi.encodePacked(\"messagesSigned\", _hash))] = _status;\n    }\n\n    function onExecuteAffirmation(address, uint256) internal returns(bool) {\n    }\n\n    function numAffirmationsSigned(bytes32 _withdrawal) public view returns(uint256) {\n        return uintStorage[keccak256(abi.encodePacked(\"numAffirmationsSigned\", _withdrawal))];\n    }\n\n    function setAffirmationsSigned(bytes32 _withdrawal, bool _status) internal {\n        boolStorage[keccak256(abi.encodePacked(\"affirmationsSigned\", _withdrawal))] = _status;\n    }\n\n    function setNumAffirmationsSigned(bytes32 _withdrawal, uint256 _number) internal {\n        uintStorage[keccak256(abi.encodePacked(\"numAffirmationsSigned\", _withdrawal))] = _number;\n    }\n\n    function affirmationsSigned(bytes32 _withdrawal) public view returns(bool) {\n        return boolStorage[keccak256(abi.encodePacked(\"affirmationsSigned\", _withdrawal))];\n    }\n\n    function signature(bytes32 _hash, uint256 _index) public view returns (bytes) {\n        bytes32 signIdx = keccak256(abi.encodePacked(_hash, _index));\n        return signatures(signIdx);\n    }\n\n    function messagesSigned(bytes32 _message) public view returns(bool) {\n        return boolStorage[keccak256(abi.encodePacked(\"messagesSigned\", _message))];\n    }\n\n    function messages(bytes32 _hash) internal view returns(bytes) {\n        return bytesStorage[keccak256(abi.encodePacked(\"messages\", _hash))];\n    }\n\n    function signatures(bytes32 _hash) internal view returns(bytes) {\n        return bytesStorage[keccak256(abi.encodePacked(\"signatures\", _hash))];\n    }\n\n    function setSignatures(bytes32 _hash, bytes _signature) internal {\n        bytesStorage[keccak256(abi.encodePacked(\"signatures\", _hash))] = _signature;\n    }\n\n    function setMessages(bytes32 _hash, bytes _message) internal {\n        bytesStorage[keccak256(abi.encodePacked(\"messages\", _hash))] = _message;\n    }\n\n    function message(bytes32 _hash) public view returns (bytes) {\n        return messages(_hash);\n    }\n\n    function setNumMessagesSigned(bytes32 _message, uint256 _number) internal {\n        uintStorage[keccak256(abi.encodePacked(\"numMessagesSigned\", _message))] = _number;\n    }\n\n    function markAsProcessed(uint256 _v) internal pure returns(uint256) {\n        return _v | 2 ** 255;\n    }\n\n    function isAlreadyProcessed(uint256 _number) public pure returns(bool) {\n        return _number & 2**255 == 2**255;\n    }\n\n    function numMessagesSigned(bytes32 _message) public view returns(uint256) {\n        return uintStorage[keccak256(abi.encodePacked(\"numMessagesSigned\", _message))];\n    }\n\n    function requiredMessageLength() public pure returns(uint256) {\n        return Message.requiredMessageLength();\n    }\n\n    function affirmationWithinLimits(uint256) internal view returns(bool) {\n        return true;\n    }\n\n    function onFailedAffirmation(address, uint256, bytes32) internal {\n    }\n}\n",
  "sourcePath": "/contracts/contracts/upgradeable_contracts/BasicHomeBridge.sol",
  "compiler": {
    "name": "solc",
    "version": "0.4.24+commit.e67f0147.Emscripten.clang"
  },
  "schemaVersion": "2.0.0",
  "updatedAt": "2019-02-27T05:38:44.528Z"
}