{
  "contractName": "BlockReward",
  "abi": [
    {
      "constant": true,
      "inputs": [],
      "name": "mintedCoins",
      "outputs": [
        {
          "name": "",
          "type": "uint256"
        }
      ],
      "payable": false,
      "stateMutability": "view",
      "type": "function"
    },
    {
      "payable": true,
      "stateMutability": "payable",
      "type": "fallback"
    },
    {
      "constant": true,
      "inputs": [],
      "name": "bridgesAllowedLength",
      "outputs": [
        {
          "name": "",
          "type": "uint256"
        }
      ],
      "payable": false,
      "stateMutability": "view",
      "type": "function"
    },
    {
      "constant": false,
      "inputs": [
        {
          "name": "_amount",
          "type": "uint256"
        },
        {
          "name": "_receiver",
          "type": "address"
        }
      ],
      "name": "addExtraReceiver",
      "outputs": [],
      "payable": false,
      "stateMutability": "nonpayable",
      "type": "function"
    },
    {
      "constant": true,
      "inputs": [],
      "name": "mintedTotally",
      "outputs": [
        {
          "name": "",
          "type": "uint256"
        }
      ],
      "payable": false,
      "stateMutability": "view",
      "type": "function"
    },
    {
      "constant": true,
      "inputs": [
        {
          "name": "_bridge",
          "type": "address"
        }
      ],
      "name": "mintedTotallyByBridge",
      "outputs": [
        {
          "name": "",
          "type": "uint256"
        }
      ],
      "payable": false,
      "stateMutability": "view",
      "type": "function"
    },
    {
      "constant": false,
      "inputs": [
        {
          "name": "_amount",
          "type": "uint256"
        },
        {
          "name": "_bridge",
          "type": "address"
        }
      ],
      "name": "addMintedTotallyByBridge",
      "outputs": [],
      "payable": false,
      "stateMutability": "nonpayable",
      "type": "function"
    }
  ],
  "bytecode": "0x60806040526000805534801561001457600080fd5b5061040a806100246000396000f3006080604052600436106100775763ffffffff7c010000000000000000000000000000000000000000000000000000000060003504166310f2ee7c81146100795780631db021c0146100a0578063553a5c85146100b5578063aa9fa274146100ca578063b4a523e8146100ee578063d2f240a81461010f575b005b34801561008557600080fd5b5061008e610133565b60408051918252519081900360200190f35b3480156100ac57600080fd5b5061008e610138565b3480156100c157600080fd5b5061008e61013e565b3480156100d657600080fd5b50610077600435600160a060020a0360243516610144565b3480156100fa57600080fd5b5061008e600160a060020a036004351661022b565b34801561011b57600080fd5b50610077600435600160a060020a03602435166102ee565b600390565b60005481565b60005490565b6000821161015157600080fd5b600160a060020a038116151561016657600080fd5b600054610179908363ffffffff6103c816565b6000908155604080517fd2f240a8000000000000000000000000000000000000000000000000000000008152600481018590523360248201529051309263d2f240a8926044808201939182900301818387803b1580156101d857600080fd5b505af11580156101ec573d6000803e3d6000fd5b5050604051600160a060020a038416925084156108fc02915084906000818181858888f19350505050158015610226573d6000803e3d6000fd5b505050565b604080517f6d696e746564546f74616c6c7942794272696467650000000000000000000000602080830191909152600160a060020a0384168284015282518083038401815260609092019283905281516000936001938593909282918401908083835b602083106102ad5780518252601f19909201916020918201910161028e565b51815160209384036101000a600019018019909216911617905260408051929094018290039091208652850195909552929092016000205495945050505050565b604080517f6d696e746564546f74616c6c7942794272696467650000000000000000000000602080830191909152600160a060020a038416828401528251808303840181526060909201928390528151600093918291908401908083835b6020831061036b5780518252601f19909201916020918201910161034c565b51815160209384036101000a6000190180199092169116179052604080519290940182900390912060008181526001909252929020549194506103b493509091508590506103c8565b600091825260016020526040909120555050565b6000828201838110156103d757fe5b93925050505600a165627a7a723058206258ceb6f76e4138e69ba7ab21b07eb1e32882d1c2459fbd75ff5c3f436da6ee0029",
  "source": "pragma solidity 0.4.24;\n\nimport \"../IBlockReward.sol\";\nimport \"../libraries/SafeMath.sol\";\n\n\ncontract BlockReward is IBlockReward {\n    using SafeMath for uint256;\n\n    uint256 public mintedCoins = 0;\n    mapping(bytes32 => uint256) internal uintStorage;\n    bytes32 internal constant MINTED_TOTALLY_BY_BRIDGE = \"mintedTotallyByBridge\";\n\n    function () external payable {\n    }\n\n    function bridgesAllowedLength() external view returns(uint256) {\n        return 3;\n    }\n\n    function addExtraReceiver(uint256 _amount, address _receiver) external {\n        require(_amount > 0);\n        require(_receiver != address(0));\n        mintedCoins = mintedCoins.add(_amount);\n        this.addMintedTotallyByBridge(_amount, msg.sender);\n        _receiver.transfer(_amount);\n    }\n\n    function mintedTotally() public view returns (uint256) {\n        return mintedCoins;\n    }\n\n    function mintedTotallyByBridge(address _bridge) public view returns(uint256) {\n        return uintStorage[\n        keccak256(abi.encode(MINTED_TOTALLY_BY_BRIDGE, _bridge))\n        ];\n    }\n\n    function addMintedTotallyByBridge(uint256 _amount, address _bridge) external {\n        bytes32 hash = keccak256(abi.encode(MINTED_TOTALLY_BY_BRIDGE, _bridge));\n        uintStorage[hash] = uintStorage[hash].add(_amount);\n    }\n}\n",
  "sourcePath": "/contracts/contracts/test/BlockReward.sol",
  "compiler": {
    "name": "solc",
    "version": "0.4.24+commit.e67f0147.Emscripten.clang"
  },
  "schemaVersion": "2.0.0",
  "updatedAt": "2019-02-27T05:38:44.523Z"
}