{
  "contractName": "BridgeValidators",
  "abi": [
    {
      "constant": true,
      "inputs": [],
      "name": "owner",
      "outputs": [
        {
          "name": "",
          "type": "address"
        }
      ],
      "payable": false,
      "stateMutability": "view",
      "type": "function"
    },
    {
      "constant": false,
      "inputs": [
        {
          "name": "newOwner",
          "type": "address"
        }
      ],
      "name": "transferOwnership",
      "outputs": [],
      "payable": false,
      "stateMutability": "nonpayable",
      "type": "function"
    },
    {
      "anonymous": false,
      "inputs": [
        {
          "indexed": true,
          "name": "validator",
          "type": "address"
        }
      ],
      "name": "ValidatorAdded",
      "type": "event"
    },
    {
      "anonymous": false,
      "inputs": [
        {
          "indexed": true,
          "name": "validator",
          "type": "address"
        }
      ],
      "name": "ValidatorRemoved",
      "type": "event"
    },
    {
      "anonymous": false,
      "inputs": [
        {
          "indexed": false,
          "name": "requiredSignatures",
          "type": "uint256"
        }
      ],
      "name": "RequiredSignaturesChanged",
      "type": "event"
    },
    {
      "anonymous": false,
      "inputs": [
        {
          "indexed": false,
          "name": "previousOwner",
          "type": "address"
        },
        {
          "indexed": false,
          "name": "newOwner",
          "type": "address"
        }
      ],
      "name": "OwnershipTransferred",
      "type": "event"
    },
    {
      "constant": false,
      "inputs": [
        {
          "name": "_requiredSignatures",
          "type": "uint256"
        },
        {
          "name": "_initialValidators",
          "type": "address[]"
        },
        {
          "name": "_owner",
          "type": "address"
        }
      ],
      "name": "initialize",
      "outputs": [
        {
          "name": "",
          "type": "bool"
        }
      ],
      "payable": false,
      "stateMutability": "nonpayable",
      "type": "function"
    },
    {
      "constant": false,
      "inputs": [
        {
          "name": "_validator",
          "type": "address"
        }
      ],
      "name": "addValidator",
      "outputs": [],
      "payable": false,
      "stateMutability": "nonpayable",
      "type": "function"
    },
    {
      "constant": false,
      "inputs": [
        {
          "name": "_validator",
          "type": "address"
        }
      ],
      "name": "removeValidator",
      "outputs": [],
      "payable": false,
      "stateMutability": "nonpayable",
      "type": "function"
    },
    {
      "constant": false,
      "inputs": [
        {
          "name": "_requiredSignatures",
          "type": "uint256"
        }
      ],
      "name": "setRequiredSignatures",
      "outputs": [],
      "payable": false,
      "stateMutability": "nonpayable",
      "type": "function"
    },
    {
      "constant": true,
      "inputs": [],
      "name": "getBridgeValidatorsInterfacesVersion",
      "outputs": [
        {
          "name": "major",
          "type": "uint64"
        },
        {
          "name": "minor",
          "type": "uint64"
        },
        {
          "name": "patch",
          "type": "uint64"
        }
      ],
      "payable": false,
      "stateMutability": "pure",
      "type": "function"
    },
    {
      "constant": true,
      "inputs": [],
      "name": "requiredSignatures",
      "outputs": [
        {
          "name": "",
          "type": "uint256"
        }
      ],
      "payable": false,
      "stateMutability": "view",
      "type": "function"
    },
    {
      "constant": true,
      "inputs": [],
      "name": "validatorCount",
      "outputs": [
        {
          "name": "",
          "type": "uint256"
        }
      ],
      "payable": false,
      "stateMutability": "view",
      "type": "function"
    },
    {
      "constant": true,
      "inputs": [
        {
          "name": "_validator",
          "type": "address"
        }
      ],
      "name": "validators",
      "outputs": [
        {
          "name": "",
          "type": "bool"
        }
      ],
      "payable": false,
      "stateMutability": "view",
      "type": "function"
    },
    {
      "constant": true,
      "inputs": [
        {
          "name": "_validator",
          "type": "address"
        }
      ],
      "name": "isValidator",
      "outputs": [
        {
          "name": "",
          "type": "bool"
        }
      ],
      "payable": false,
      "stateMutability": "view",
      "type": "function"
    },
    {
      "constant": true,
      "inputs": [],
      "name": "isInitialized",
      "outputs": [
        {
          "name": "",
          "type": "bool"
        }
      ],
      "payable": false,
      "stateMutability": "view",
      "type": "function"
    },
    {
      "constant": true,
      "inputs": [],
      "name": "deployedAtBlock",
      "outputs": [
        {
          "name": "",
          "type": "uint256"
        }
      ],
      "payable": false,
      "stateMutability": "view",
      "type": "function"
    }
  ],
  "bytecode": "0x608060405234801561001057600080fd5b50610fbc806100206000396000f3006080604052600436106100c45763ffffffff7c01000000000000000000000000000000000000000000000000000000006000350416630f43a67781146100c95780632bda4eee146100f0578063392e53cd1461013157806340a141ff1461015a5780634d238c8e1461017d57806352af719f1461019e5780637d2b9cc0146102035780638d0680431461021b5780638da5cb5b146102305780639a454b9914610261578063f2fde38b14610276578063fa52c7d814610297578063facd743b146102b8575b600080fd5b3480156100d557600080fd5b506100de6102d9565b60408051918252519081900360200190f35b3480156100fc57600080fd5b5061010561038d565b6040805167ffffffffffffffff9485168152928416602084015292168183015290519081900360600190f35b34801561013d57600080fd5b50610146610397565b604080519115158252519081900360200190f35b34801561016657600080fd5b5061017b600160a060020a036004351661044f565b005b34801561018957600080fd5b5061017b600160a060020a03600435166104fc565b3480156101aa57600080fd5b506040805160206004602480358281013584810280870186019097528086526101469684359636966044959194909101929182918501908490808284375094975050509235600160a060020a0316935061059e92505050565b34801561020f57600080fd5b5061017b600435610817565b34801561022757600080fd5b506100de610939565b34801561023c57600080fd5b506102456109ac565b60408051600160a060020a039092168252519081900360200190f35b34801561026d57600080fd5b506100de610a6a565b34801561028257600080fd5b5061017b600160a060020a0360043516610aab565b3480156102a357600080fd5b50610146600160a060020a0360043516610ae8565b3480156102c457600080fd5b50610146600160a060020a0360043516610bca565b600080600060405160200180807f76616c696461746f72436f756e74000000000000000000000000000000000000815250600e0190506040516020818303038152906040526040518082805190602001908083835b6020831061034d5780518252601f19909201916020918201910161032e565b51815160209384036101000a6000190180199092169116179052604080519290940182900390912086528501959095529290920160002054949350505050565b6002600080909192565b60006004600060405160200180807f6973496e697469616c697a656400000000000000000000000000000000000000815250600d0190506040516020818303038152906040526040518082805190602001908083835b6020831061040c5780518252601f1990920191602091820191016103ed565b51815160209384036101000a600019018019909216911617905260408051929094018290039091208652850195909552929092016000205460ff16949350505050565b6104576109ac565b600160a060020a0316331461046b57600080fd5b610473610939565b61047b6102d9565b1161048557600080fd5b61048e81610bca565b151561049957600080fd5b6104a4816000610be0565b6104c56104c060016104b46102d9565b9063ffffffff610ccb16565b610cdd565b604051600160a060020a038216907fe1434e25d6611e0db941968fdc97811c982ac1602e951637d206f5fdda9dd8f190600090a250565b6105046109ac565b600160a060020a0316331461051857600080fd5b600160a060020a038116151561052d57600080fd5b61053681610bca565b1561054057600080fd5b61055c6104c060016105506102d9565b9063ffffffff610d9116565b610567816001610be0565b604051600160a060020a038216907fe366c1c0452ed8eec96861e9e54141ebff23c9ec89fe27b996b45f5ec388498790600090a250565b6000806105a9610397565b156105b357600080fd5b600160a060020a03831615156105c857600080fd5b6105d183610da7565b8415156105dd57600080fd5b83518511156105eb57600080fd5b5060005b83518110156106da57835160009085908390811061060957fe5b60209081029091010151600160a060020a0316141561062757600080fd5b610647848281518110151561063857fe5b90602001906020020151610ae8565b15156001141561065357fe5b6106636104c060016105506102d9565b610685848281518110151561067457fe5b906020019060200201516001610be0565b838181518110151561069357fe5b90602001906020020151600160a060020a03167fe366c1c0452ed8eec96861e9e54141ebff23c9ec89fe27b996b45f5ec388498760405160405180910390a26001016105ef565b8460008060405160200180807f72657175697265645369676e617475726573000000000000000000000000000081525060120190506040516020818303038152906040526040518082805190602001908083835b6020831061074d5780518252601f19909201916020918201910161072e565b51815160001960209485036101000a01908116901991909116179052604080519490920184900390932086528583019690965250928401600090812095909555505081517f6465706c6f7965644174426c6f636b00000000000000000000000000000000008152825190819003600f019020835282905290204390556107d36001610ecf565b6040805186815290517f10dbc913050d3180c3b99f7da91fd514af7cbc9c1bb59a0da5d2bc38f0cf395a9181900360200190a161080e610397565b95945050505050565b61081f6109ac565b600160a060020a0316331461083357600080fd5b8061083c6102d9565b101561084757600080fd5b80151561085357600080fd5b8060008060405160200180807f72657175697265645369676e617475726573000000000000000000000000000081525060120190506040516020818303038152906040526040518082805190602001908083835b602083106108c65780518252601f1990920191602091820191016108a7565b51815160001960209485036101000a019081169019919091161790526040805194909201849003909320865285830196909652509284016000209490945550815184815291517f10dbc913050d3180c3b99f7da91fd514af7cbc9c1bb59a0da5d2bc38f0cf395a9350918290030190a150565b600080600060405160200180807f72657175697265645369676e617475726573000000000000000000000000000081525060120190506040516020818303038152906040526040518082805190602001908083836020831061034d5780518252601f19909201916020918201910161032e565b60006002600060405160200180807f6f776e657200000000000000000000000000000000000000000000000000000081525060050190506040516020818303038152906040526040518082805190602001908083835b60208310610a215780518252601f199092019160209182019101610a02565b51815160209384036101000a6000190180199092169116179052604080519290940182900390912086528501959095529290920160002054600160a060020a0316949350505050565b604080517f6465706c6f7965644174426c6f636b00000000000000000000000000000000008152815190819003600f01902060009081526020819052205490565b610ab36109ac565b600160a060020a03163314610ac757600080fd5b600160a060020a0381161515610adc57600080fd5b610ae581610da7565b50565b6000600460008360405160200180807f76616c696461746f727300000000000000000000000000000000000000000000815250600a0182600160a060020a0316600160a060020a03166c010000000000000000000000000281526014019150506040516020818303038152906040526040518082805190602001908083835b60208310610b865780518252601f199092019160209182019101610b67565b51815160209384036101000a600019018019909216911617905260408051929094018290039091208652850195909552929092016000205460ff1695945050505050565b6000610bd582610ae8565b151560011492915050565b80600460008460405160200180807f76616c696461746f727300000000000000000000000000000000000000000000815250600a0182600160a060020a0316600160a060020a03166c010000000000000000000000000281526014019150506040516020818303038152906040526040518082805190602001908083835b60208310610c7d5780518252601f199092019160209182019101610c5e565b51815160209384036101000a60001901801990921691161790526040805192909401829003909120865285019590955292909201600020805460ff1916941515949094179093555050505050565b600082821115610cd757fe5b50900390565b8060008060405160200180807f76616c696461746f72436f756e74000000000000000000000000000000000000815250600e0190506040516020818303038152906040526040518082805190602001908083835b60208310610d505780518252601f199092019160209182019101610d31565b51815160209384036101000a600019018019909216911617905260408051929094018290039091208652850195909552929092016000209390935550505050565b600082820183811015610da057fe5b9392505050565b7f8be0079c531659141344cd1fd0a4f28419497f9722a3daafe3b4186f6b6457e0610dd06109ac565b60408051600160a060020a03928316815291841660208301528051918290030190a1806002600060405160200180807f6f776e657200000000000000000000000000000000000000000000000000000081525060050190506040516020818303038152906040526040518082805190602001908083835b60208310610e665780518252601f199092019160209182019101610e47565b51815160209384036101000a60001901801990921691161790526040805192909401829003909120865285019590955292909201600020805473ffffffffffffffffffffffffffffffffffffffff1916600160a060020a03959095169490941790935550505050565b806004600060405160200180807f6973496e697469616c697a656400000000000000000000000000000000000000815250600d0190506040516020818303038152906040526040518082805190602001908083835b60208310610f435780518252601f199092019160209182019101610f24565b51815160209384036101000a60001901801990921691161790526040805192909401829003909120865285019590955292909201600020805460ff191694151594909417909355505050505600a165627a7a723058201868f95c1caf0db8be4ff0169d3918863166ab5b346848848961761a5650a4370029",
  "source": "pragma solidity 0.4.24;\n\nimport \"./Ownable.sol\";\nimport \"../IBridgeValidators.sol\";\nimport \"../libraries/SafeMath.sol\";\nimport \"../upgradeability/EternalStorage.sol\";\n\n\ncontract BridgeValidators is IBridgeValidators, EternalStorage, Ownable {\n    using SafeMath for uint256;\n\n    event ValidatorAdded (address indexed validator);\n    event ValidatorRemoved (address indexed validator);\n    event RequiredSignaturesChanged (uint256 requiredSignatures);\n\n    function initialize(uint256 _requiredSignatures, address[] _initialValidators, address _owner)\n      public returns(bool)\n    {\n        require(!isInitialized());\n        require(_owner != address(0));\n        setOwner(_owner);\n        require(_requiredSignatures != 0);\n        require(_initialValidators.length >= _requiredSignatures);\n        for (uint256 i = 0; i < _initialValidators.length; i++) {\n            require(_initialValidators[i] != address(0));\n            assert(validators(_initialValidators[i]) != true);\n            setValidatorCount(validatorCount().add(1));\n            setValidator(_initialValidators[i], true);\n            emit ValidatorAdded(_initialValidators[i]);\n        }\n        uintStorage[keccak256(abi.encodePacked(\"requiredSignatures\"))] = _requiredSignatures;\n        uintStorage[keccak256(\"deployedAtBlock\")] = block.number;\n        setInitialize(true);\n        emit RequiredSignaturesChanged(_requiredSignatures);\n        return isInitialized();\n    }\n\n    function addValidator(address _validator) external onlyOwner {\n        require(_validator != address(0));\n        require(!isValidator(_validator));\n        setValidatorCount(validatorCount().add(1));\n        setValidator(_validator, true);\n        emit ValidatorAdded(_validator);\n    }\n\n    function removeValidator(address _validator) external onlyOwner {\n        require(validatorCount() > requiredSignatures());\n        require(isValidator(_validator));\n        setValidator(_validator, false);\n        setValidatorCount(validatorCount().sub(1));\n        emit ValidatorRemoved(_validator);\n    }\n\n    function setRequiredSignatures(uint256 _requiredSignatures) external onlyOwner {\n        require(validatorCount() >= _requiredSignatures);\n        require(_requiredSignatures != 0);\n        uintStorage[keccak256(abi.encodePacked(\"requiredSignatures\"))] = _requiredSignatures;\n        emit RequiredSignaturesChanged(_requiredSignatures);\n    }\n\n    function getBridgeValidatorsInterfacesVersion() public pure returns(uint64 major, uint64 minor, uint64 patch) {\n        return (2, 0, 0);\n    }\n\n    function requiredSignatures() public view returns(uint256) {\n        return uintStorage[keccak256(abi.encodePacked(\"requiredSignatures\"))];\n    }\n\n    function validatorCount() public view returns(uint256) {\n        return uintStorage[keccak256(abi.encodePacked(\"validatorCount\"))];\n    }\n\n    function validators(address _validator) public view returns(bool) {\n        return boolStorage[keccak256(abi.encodePacked(\"validators\", _validator))];\n    }\n\n    function isValidator(address _validator) public view returns(bool) {\n        return validators(_validator) == true;\n    }\n\n    function isInitialized() public view returns(bool) {\n        return boolStorage[keccak256(abi.encodePacked(\"isInitialized\"))];\n    }\n\n    function deployedAtBlock() public view returns(uint256) {\n        return uintStorage[keccak256(\"deployedAtBlock\")];\n    }\n\n    function setValidatorCount(uint256 _validatorCount) private {\n        uintStorage[keccak256(abi.encodePacked(\"validatorCount\"))] = _validatorCount;\n    }\n\n    function setValidator(address _validator, bool _status) private {\n        boolStorage[keccak256(abi.encodePacked(\"validators\", _validator))] = _status;\n    }\n\n    function setInitialize(bool _status) private {\n        boolStorage[keccak256(abi.encodePacked(\"isInitialized\"))] = _status;\n    }\n}\n",
  "sourcePath": "/contracts/contracts/upgradeable_contracts/BridgeValidators.sol",
  "compiler": {
    "name": "solc",
    "version": "0.4.24+commit.e67f0147.Emscripten.clang"
  },
  "schemaVersion": "2.0.0",
  "updatedAt": "2019-02-27T05:38:44.530Z"
}