{
  "contractName": "ERC677Bridge",
  "abi": [
    {
      "constant": true,
      "inputs": [
        {
          "name": "_day",
          "type": "uint256"
        }
      ],
      "name": "totalSpentPerDay",
      "outputs": [
        {
          "name": "",
          "type": "uint256"
        }
      ],
      "payable": false,
      "stateMutability": "view",
      "type": "function"
    },
    {
      "constant": true,
      "inputs": [],
      "name": "isInitialized",
      "outputs": [
        {
          "name": "",
          "type": "bool"
        }
      ],
      "payable": false,
      "stateMutability": "view",
      "type": "function"
    },
    {
      "constant": false,
      "inputs": [
        {
          "name": "_dailyLimit",
          "type": "uint256"
        }
      ],
      "name": "setExecutionDailyLimit",
      "outputs": [],
      "payable": false,
      "stateMutability": "nonpayable",
      "type": "function"
    },
    {
      "constant": true,
      "inputs": [],
      "name": "getCurrentDay",
      "outputs": [
        {
          "name": "",
          "type": "uint256"
        }
      ],
      "payable": false,
      "stateMutability": "view",
      "type": "function"
    },
    {
      "constant": true,
      "inputs": [],
      "name": "requiredBlockConfirmations",
      "outputs": [
        {
          "name": "",
          "type": "uint256"
        }
      ],
      "payable": false,
      "stateMutability": "view",
      "type": "function"
    },
    {
      "constant": true,
      "inputs": [],
      "name": "executionDailyLimit",
      "outputs": [
        {
          "name": "",
          "type": "uint256"
        }
      ],
      "payable": false,
      "stateMutability": "view",
      "type": "function"
    },
    {
      "constant": true,
      "inputs": [
        {
          "name": "_day",
          "type": "uint256"
        }
      ],
      "name": "totalExecutedPerDay",
      "outputs": [
        {
          "name": "",
          "type": "uint256"
        }
      ],
      "payable": false,
      "stateMutability": "view",
      "type": "function"
    },
    {
      "constant": true,
      "inputs": [],
      "name": "dailyLimit",
      "outputs": [
        {
          "name": "",
          "type": "uint256"
        }
      ],
      "payable": false,
      "stateMutability": "view",
      "type": "function"
    },
    {
      "constant": false,
      "inputs": [
        {
          "name": "_token",
          "type": "address"
        },
        {
          "name": "_to",
          "type": "address"
        }
      ],
      "name": "claimTokens",
      "outputs": [],
      "payable": false,
      "stateMutability": "nonpayable",
      "type": "function"
    },
    {
      "constant": true,
      "inputs": [
        {
          "name": "_amount",
          "type": "uint256"
        }
      ],
      "name": "withinExecutionLimit",
      "outputs": [
        {
          "name": "",
          "type": "bool"
        }
      ],
      "payable": false,
      "stateMutability": "view",
      "type": "function"
    },
    {
      "constant": true,
      "inputs": [],
      "name": "executionMaxPerTx",
      "outputs": [
        {
          "name": "",
          "type": "uint256"
        }
      ],
      "payable": false,
      "stateMutability": "view",
      "type": "function"
    },
    {
      "constant": true,
      "inputs": [],
      "name": "requiredSignatures",
      "outputs": [
        {
          "name": "",
          "type": "uint256"
        }
      ],
      "payable": false,
      "stateMutability": "view",
      "type": "function"
    },
    {
      "constant": true,
      "inputs": [],
      "name": "owner",
      "outputs": [
        {
          "name": "",
          "type": "address"
        }
      ],
      "payable": false,
      "stateMutability": "view",
      "type": "function"
    },
    {
      "constant": true,
      "inputs": [],
      "name": "validatorContract",
      "outputs": [
        {
          "name": "",
          "type": "address"
        }
      ],
      "payable": false,
      "stateMutability": "view",
      "type": "function"
    },
    {
      "constant": true,
      "inputs": [],
      "name": "deployedAtBlock",
      "outputs": [
        {
          "name": "",
          "type": "uint256"
        }
      ],
      "payable": false,
      "stateMutability": "view",
      "type": "function"
    },
    {
      "constant": true,
      "inputs": [],
      "name": "getBridgeInterfacesVersion",
      "outputs": [
        {
          "name": "major",
          "type": "uint64"
        },
        {
          "name": "minor",
          "type": "uint64"
        },
        {
          "name": "patch",
          "type": "uint64"
        }
      ],
      "payable": false,
      "stateMutability": "pure",
      "type": "function"
    },
    {
      "constant": false,
      "inputs": [
        {
          "name": "_minPerTx",
          "type": "uint256"
        }
      ],
      "name": "setMinPerTx",
      "outputs": [],
      "payable": false,
      "stateMutability": "nonpayable",
      "type": "function"
    },
    {
      "constant": false,
      "inputs": [
        {
          "name": "_blockConfirmations",
          "type": "uint256"
        }
      ],
      "name": "setRequiredBlockConfirmations",
      "outputs": [],
      "payable": false,
      "stateMutability": "nonpayable",
      "type": "function"
    },
    {
      "constant": false,
      "inputs": [
        {
          "name": "_dailyLimit",
          "type": "uint256"
        }
      ],
      "name": "setDailyLimit",
      "outputs": [],
      "payable": false,
      "stateMutability": "nonpayable",
      "type": "function"
    },
    {
      "constant": false,
      "inputs": [
        {
          "name": "_gasPrice",
          "type": "uint256"
        }
      ],
      "name": "setGasPrice",
      "outputs": [],
      "payable": false,
      "stateMutability": "nonpayable",
      "type": "function"
    },
    {
      "constant": false,
      "inputs": [
        {
          "name": "_maxPerTx",
          "type": "uint256"
        }
      ],
      "name": "setMaxPerTx",
      "outputs": [],
      "payable": false,
      "stateMutability": "nonpayable",
      "type": "function"
    },
    {
      "constant": true,
      "inputs": [],
      "name": "upgradeabilityAdmin",
      "outputs": [
        {
          "name": "",
          "type": "address"
        }
      ],
      "payable": false,
      "stateMutability": "view",
      "type": "function"
    },
    {
      "constant": true,
      "inputs": [],
      "name": "minPerTx",
      "outputs": [
        {
          "name": "",
          "type": "uint256"
        }
      ],
      "payable": false,
      "stateMutability": "view",
      "type": "function"
    },
    {
      "constant": true,
      "inputs": [
        {
          "name": "_amount",
          "type": "uint256"
        }
      ],
      "name": "withinLimit",
      "outputs": [
        {
          "name": "",
          "type": "bool"
        }
      ],
      "payable": false,
      "stateMutability": "view",
      "type": "function"
    },
    {
      "constant": false,
      "inputs": [
        {
          "name": "_maxPerTx",
          "type": "uint256"
        }
      ],
      "name": "setExecutionMaxPerTx",
      "outputs": [],
      "payable": false,
      "stateMutability": "nonpayable",
      "type": "function"
    },
    {
      "constant": false,
      "inputs": [
        {
          "name": "newOwner",
          "type": "address"
        }
      ],
      "name": "transferOwnership",
      "outputs": [],
      "payable": false,
      "stateMutability": "nonpayable",
      "type": "function"
    },
    {
      "constant": true,
      "inputs": [],
      "name": "maxPerTx",
      "outputs": [
        {
          "name": "",
          "type": "uint256"
        }
      ],
      "payable": false,
      "stateMutability": "view",
      "type": "function"
    },
    {
      "constant": true,
      "inputs": [],
      "name": "gasPrice",
      "outputs": [
        {
          "name": "",
          "type": "uint256"
        }
      ],
      "payable": false,
      "stateMutability": "view",
      "type": "function"
    },
    {
      "anonymous": false,
      "inputs": [
        {
          "indexed": false,
          "name": "gasPrice",
          "type": "uint256"
        }
      ],
      "name": "GasPriceChanged",
      "type": "event"
    },
    {
      "anonymous": false,
      "inputs": [
        {
          "indexed": false,
          "name": "requiredBlockConfirmations",
          "type": "uint256"
        }
      ],
      "name": "RequiredBlockConfirmationChanged",
      "type": "event"
    },
    {
      "anonymous": false,
      "inputs": [
        {
          "indexed": false,
          "name": "newLimit",
          "type": "uint256"
        }
      ],
      "name": "DailyLimitChanged",
      "type": "event"
    },
    {
      "anonymous": false,
      "inputs": [
        {
          "indexed": false,
          "name": "newLimit",
          "type": "uint256"
        }
      ],
      "name": "ExecutionDailyLimitChanged",
      "type": "event"
    },
    {
      "anonymous": false,
      "inputs": [
        {
          "indexed": false,
          "name": "previousOwner",
          "type": "address"
        },
        {
          "indexed": false,
          "name": "newOwner",
          "type": "address"
        }
      ],
      "name": "OwnershipTransferred",
      "type": "event"
    },
    {
      "constant": true,
      "inputs": [],
      "name": "erc677token",
      "outputs": [
        {
          "name": "",
          "type": "address"
        }
      ],
      "payable": false,
      "stateMutability": "view",
      "type": "function"
    },
    {
      "constant": false,
      "inputs": [
        {
          "name": "_from",
          "type": "address"
        },
        {
          "name": "_value",
          "type": "uint256"
        },
        {
          "name": "",
          "type": "bytes"
        }
      ],
      "name": "onTokenTransfer",
      "outputs": [
        {
          "name": "",
          "type": "bool"
        }
      ],
      "payable": false,
      "stateMutability": "nonpayable",
      "type": "function"
    }
  ],
  "bytecode": "0x608060405234801561001057600080fd5b506118c6806100206000396000f3006080604052600436106101665763ffffffff60e060020a60003504166318d8f9c9811461016b5780632bd0bb051461019c578063392e53cd146101c65780633dd95d1b146101ef5780633e6968b6146102095780633f0a9f651461021e57806343b37dd3146102335780634fb3fef71461024857806367eeba0c1461026057806369ffa08a14610275578063879ce6761461029c5780638aa1949a146102b45780638d068043146102c95780638da5cb5b146102de57806399439089146102f35780639a454b99146103085780639cb7595a1461031d578063a2a6ca271461035e578063a4c0ed3614610376578063acf5c689146103a7578063b20d30a9146103bf578063bf1fe420146103d7578063c6f6f216146103ef578063df0ad3de14610407578063df25f3f01461041c578063ea9f496814610431578063f20151e114610449578063f2fde38b14610461578063f968adbe14610482578063fe173b9714610497575b600080fd5b34801561017757600080fd5b506101806104ac565b60408051600160a060020a039092168252519081900360200190f35b3480156101a857600080fd5b506101b460043561056a565b60408051918252519081900360200190f35b3480156101d257600080fd5b506101db610627565b604080519115158252519081900360200190f35b3480156101fb57600080fd5b506102076004356106df565b005b34801561021557600080fd5b506101b46107e1565b34801561022a57600080fd5b506101b46107ea565b34801561023f57600080fd5b506101b461089e565b34801561025457600080fd5b506101b4600435610911565b34801561026c57600080fd5b506101b461098c565b34801561028157600080fd5b50610207600160a060020a03600435811690602435166109ff565b3480156102a857600080fd5b506101db600435610bbb565b3480156102c057600080fd5b506101b4610c05565b3480156102d557600080fd5b506101b4610c78565b3480156102ea57600080fd5b50610180610cf0565b3480156102ff57600080fd5b50610180610d64565b34801561031457600080fd5b506101b4610dd8565b34801561032957600080fd5b50610332610e4b565b6040805167ffffffffffffffff9485168152928416602084015292168183015290519081900360600190f35b34801561036a57600080fd5b50610207600435610e55565b34801561038257600080fd5b506101db60048035600160a060020a0316906024803591604435918201910135610f4c565b3480156103b357600080fd5b5061020760043561101f565b3480156103cb57600080fd5b5061020760043561112e565b3480156103e357600080fd5b50610207600435611230565b3480156103fb57600080fd5b5061020760043561133f565b34801561041357600080fd5b506101806113e0565b34801561042857600080fd5b506101b4611420565b34801561043d57600080fd5b506101db600435611493565b34801561045557600080fd5b506102076004356114de565b34801561046d57600080fd5b50610207600160a060020a036004351661157f565b34801561048e57600080fd5b506101b46115bc565b3480156104a357600080fd5b506101b461162f565b60006002600060405160200180807f657263363737746f6b656e000000000000000000000000000000000000000000815250600b0190506040516020818303038152906040526040518082805190602001908083835b602083106105215780518252601f199092019160209182019101610502565b51815160209384036101000a6000190180199092169116179052604080519290940182900390912086528501959095529290920160002054600160a060020a0316949350505050565b60008060008360405160200180807f746f74616c5370656e74506572446179000000000000000000000000000000008152506010018281526020019150506040516020818303038152906040526040518082805190602001908083835b602083106105e65780518252601f1990920191602091820191016105c7565b51815160209384036101000a600019018019909216911617905260408051929094018290039091208652850195909552929092016000205495945050505050565b60006004600060405160200180807f6973496e697469616c697a656400000000000000000000000000000000000000815250600d0190506040516020818303038152906040526040518082805190602001908083835b6020831061069c5780518252601f19909201916020918201910161067d565b51815160209384036101000a600019018019909216911617905260408051929094018290039091208652850195909552929092016000205460ff16949350505050565b6106e7610cf0565b600160a060020a031633146106fb57600080fd5b8060008060405160200180807f657865637574696f6e4461696c794c696d69740000000000000000000000000081525060130190506040516020818303038152906040526040518082805190602001908083835b6020831061076e5780518252601f19909201916020918201910161074f565b51815160001960209485036101000a019081169019919091161790526040805194909201849003909320865285830196909652509284016000209490945550815184815291517f9bebf928b90863f24cc31f726a3a7545efd409f1dcf552301b1ee3710da70d3b9350918290030190a150565b62015180420490565b600080600060405160200180807f7265717569726564426c6f636b436f6e6669726d6174696f6e73000000000000815250601a0190506040516020818303038152906040526040518082805190602001908083835b6020831061085e5780518252601f19909201916020918201910161083f565b51815160209384036101000a6000190180199092169116179052604080519290940182900390912086528501959095529290920160002054949350505050565b600080600060405160200180807f657865637574696f6e4461696c794c696d69740000000000000000000000000081525060130190506040516020818303038152906040526040518082805190602001908083836020831061085e5780518252601f19909201916020918201910161083f565b60008060008360405160200180807f746f74616c457865637574656450657244617900000000000000000000000000815250601301828152602001915050604051602081830303815290604052604051808280519060200190808383602083106105e65780518252601f1990920191602091820191016105c7565b600080600060405160200180807f6461696c794c696d697400000000000000000000000000000000000000000000815250600a0190506040516020818303038152906040526040518082805190602001908083836020831061085e5780518252601f19909201916020918201910161083f565b600080610a0a6113e0565b600160a060020a03163314610a1e57600080fd5b600160a060020a0383161515610a3357600080fd5b600160a060020a0384161515610a7f57604051600160a060020a03841690303180156108fc02916000818181858888f19350505050158015610a79573d6000803e3d6000fd5b50610bb5565b604080517f70a082310000000000000000000000000000000000000000000000000000000081523060048201529051859350600160a060020a038416916370a082319160248083019260209291908290030181600087803b158015610ae357600080fd5b505af1158015610af7573d6000803e3d6000fd5b505050506040513d6020811015610b0d57600080fd5b5051604080517fa9059cbb000000000000000000000000000000000000000000000000000000008152600160a060020a0386811660048301526024820184905291519293509084169163a9059cbb916044808201926020929091908290030181600087803b158015610b7e57600080fd5b505af1158015610b92573d6000803e3d6000fd5b505050506040513d6020811015610ba857600080fd5b50511515610bb557600080fd5b50505050565b600080610bde83610bd2610bcd6107e1565b610911565b9063ffffffff6116a216565b905080610be961089e565b10158015610bfe5750610bfa610c05565b8311155b9392505050565b600080600060405160200180807f657865637574696f6e4d6178506572547800000000000000000000000000000081525060110190506040516020818303038152906040526040518082805190602001908083836020831061085e5780518252601f19909201916020918201910161083f565b6000610c82610d64565b600160a060020a0316638d0680436040518163ffffffff1660e060020a028152600401602060405180830381600087803b158015610cbf57600080fd5b505af1158015610cd3573d6000803e3d6000fd5b505050506040513d6020811015610ce957600080fd5b5051905090565b60006002600060405160200180807f6f776e65720000000000000000000000000000000000000000000000000000008152506005019050604051602081830303815290604052604051808280519060200190808383602083106105215780518252601f199092019160209182019101610502565b60006002600060405160200180807f76616c696461746f72436f6e74726163740000000000000000000000000000008152506011019050604051602081830303815290604052604051808280519060200190808383602083106105215780518252601f199092019160209182019101610502565b600080600060405160200180807f6465706c6f7965644174426c6f636b0000000000000000000000000000000000815250600f0190506040516020818303038152906040526040518082805190602001908083836020831061085e5780518252601f19909201916020918201910161083f565b6002806000909192565b610e5d610cf0565b600160a060020a03163314610e7157600080fd5b610e7961098c565b81108015610e8d5750610e8a6115bc565b81105b1515610e9857600080fd5b8060008060405160200180807f6d696e506572547800000000000000000000000000000000000000000000000081525060080190506040516020818303038152906040526040518082805190602001908083835b60208310610f0b5780518252601f199092019160209182019101610eec565b51815160209384036101000a600019018019909216911617905260408051929094018290039091208652850195909552929092016000209390935550505050565b6000610f566104ac565b600160a060020a03163314610f6a57600080fd5b610f7384611493565b1515610f7e57600080fd5b610fa2610f896107e1565b610f9d86610bd2610f986107e1565b61056a565b6116b1565b610faa6104ac565b600160a060020a03166342966c68856040518263ffffffff1660e060020a02815260040180828152602001915050600060405180830381600087803b158015610ff257600080fd5b505af1158015611006573d6000803e3d6000fd5b50505050611014858561176e565b506001949350505050565b611027610cf0565b600160a060020a0316331461103b57600080fd5b6000811161104857600080fd5b8060008060405160200180807f7265717569726564426c6f636b436f6e6669726d6174696f6e73000000000000815250601a0190506040516020818303038152906040526040518082805190602001908083835b602083106110bb5780518252601f19909201916020918201910161109c565b51815160001960209485036101000a019081169019919091161790526040805194909201849003909320865285830196909652509284016000209490945550815184815291517f4fb76205cd57c896b21511d2114137d8e901b4ccd659e1a0f97d6306795264fb9350918290030190a150565b611136610cf0565b600160a060020a0316331461114a57600080fd5b8060008060405160200180807f6461696c794c696d697400000000000000000000000000000000000000000000815250600a0190506040516020818303038152906040526040518082805190602001908083835b602083106111bd5780518252601f19909201916020918201910161119e565b51815160001960209485036101000a019081169019919091161790526040805194909201849003909320865285830196909652509284016000209490945550815184815291517fad4123ae17c414d9c6d2fec478b402e6b01856cc250fd01fbfd252fda0089d3c9350918290030190a150565b611238610cf0565b600160a060020a0316331461124c57600080fd5b6000811161125957600080fd5b8060008060405160200180807f676173507269636500000000000000000000000000000000000000000000000081525060080190506040516020818303038152906040526040518082805190602001908083835b602083106112cc5780518252601f1990920191602091820191016112ad565b51815160001960209485036101000a019081169019919091161790526040805194909201849003909320865285830196909652509284016000209490945550815184815291517f52264b89e0fceafb26e79fd49ef8a366eb6297483bf4035b027f0c99a7ad512e9350918290030190a150565b611347610cf0565b600160a060020a0316331461135b57600080fd5b61136361098c565b811061136e57600080fd5b8060008060405160200180807f6d61785065725478000000000000000000000000000000000000000000000000815250600801905060405160208183030381529060405260405180828051906020019080838360208310610f0b5780518252601f199092019160209182019101610eec565b600030600160a060020a031663025313a26040518163ffffffff1660e060020a028152600401602060405180830381600087803b158015610cbf57600080fd5b600080600060405160200180807f6d696e506572547800000000000000000000000000000000000000000000000081525060080190506040516020818303038152906040526040518082805190602001908083836020831061085e5780518252601f19909201916020918201910161083f565b6000806114a583610bd2610f986107e1565b9050806114b061098c565b101580156114c557506114c16115bc565b8311155b8015610bfe57506114d4611420565b9092101592915050565b6114e6610cf0565b600160a060020a031633146114fa57600080fd5b61150261089e565b811061150d57600080fd5b8060008060405160200180807f657865637574696f6e4d61785065725478000000000000000000000000000000815250601101905060405160208183030381529060405260405180828051906020019080838360208310610f0b5780518252601f199092019160209182019101610eec565b611587610cf0565b600160a060020a0316331461159b57600080fd5b600160a060020a03811615156115b057600080fd5b6115b981611772565b50565b600080600060405160200180807f6d6178506572547800000000000000000000000000000000000000000000000081525060080190506040516020818303038152906040526040518082805190602001908083836020831061085e5780518252601f19909201916020918201910161083f565b600080600060405160200180807f676173507269636500000000000000000000000000000000000000000000000081525060080190506040516020818303038152906040526040518082805190602001908083836020831061085e5780518252601f19909201916020918201910161083f565b600082820183811015610bfe57fe5b806000808460405160200180807f746f74616c5370656e74506572446179000000000000000000000000000000008152506010018281526020019150506040516020818303038152906040526040518082805190602001908083835b6020831061172c5780518252601f19909201916020918201910161170d565b51815160209384036101000a60001901801990921691161790526040805192909401829003909120865285019590955292909201600020939093555050505050565b5050565b7f8be0079c531659141344cd1fd0a4f28419497f9722a3daafe3b4186f6b6457e061179b610cf0565b60408051600160a060020a03928316815291841660208301528051918290030190a1806002600060405160200180807f6f776e657200000000000000000000000000000000000000000000000000000081525060050190506040516020818303038152906040526040518082805190602001908083835b602083106118315780518252601f199092019160209182019101611812565b51815160209384036101000a60001901801990921691161790526040805192909401829003909120865285019590955292909201600020805473ffffffffffffffffffffffffffffffffffffffff1916600160a060020a039590951694909417909355505050505600a165627a7a72305820e0cae7de4f6169857a98a6486222f2ca05e76b7a9ff1d63f72a0e2bd3a6f2b960029",
  "source": "pragma solidity 0.4.24;\n\n\nimport \"./BasicBridge.sol\";\nimport \"../IBurnableMintableERC677Token.sol\";\n\ncontract ERC677Bridge is BasicBridge {\n    function erc677token() public view returns(IBurnableMintableERC677Token) {\n        return IBurnableMintableERC677Token(addressStorage[keccak256(abi.encodePacked(\"erc677token\"))]);\n    }\n\n    function setErc677token(address _token) internal {\n        require(_token != address(0) && isContract(_token));\n        addressStorage[keccak256(abi.encodePacked(\"erc677token\"))] = _token;\n    }\n\n    function onTokenTransfer(address _from, uint256 _value, bytes /*_data*/) external returns(bool) {\n        require(msg.sender == address(erc677token()));\n        require(withinLimit(_value));\n        setTotalSpentPerDay(getCurrentDay(), totalSpentPerDay(getCurrentDay()).add(_value));\n        erc677token().burn(_value);\n        fireEventOnTokenTransfer(_from, _value);\n        return true;\n    }\n\n    function fireEventOnTokenTransfer(address /*_from */, uint256 /* _value */) internal {\n        // has to be defined\n    }\n\n}\n",
  "sourcePath": "/contracts/contracts/upgradeable_contracts/ERC677Bridge.sol",
  "compiler": {
    "name": "solc",
    "version": "0.4.24+commit.e67f0147.Emscripten.clang"
  },
  "schemaVersion": "2.0.0",
  "updatedAt": "2019-02-27T05:38:44.532Z"
}