{
  "contractName": "ForeignBridgeNativeToErc",
  "abi": [
    {
      "constant": true,
      "inputs": [],
      "name": "erc677token",
      "outputs": [
        {
          "name": "",
          "type": "address"
        }
      ],
      "payable": false,
      "stateMutability": "view",
      "type": "function"
    },
    {
      "constant": true,
      "inputs": [
        {
          "name": "_txHash",
          "type": "bytes32"
        }
      ],
      "name": "relayedMessages",
      "outputs": [
        {
          "name": "",
          "type": "bool"
        }
      ],
      "payable": false,
      "stateMutability": "view",
      "type": "function"
    },
    {
      "constant": false,
      "inputs": [
        {
          "name": "vs",
          "type": "uint8[]"
        },
        {
          "name": "rs",
          "type": "bytes32[]"
        },
        {
          "name": "ss",
          "type": "bytes32[]"
        },
        {
          "name": "message",
          "type": "bytes"
        }
      ],
      "name": "executeSignatures",
      "outputs": [],
      "payable": false,
      "stateMutability": "nonpayable",
      "type": "function"
    },
    {
      "constant": true,
      "inputs": [
        {
          "name": "_day",
          "type": "uint256"
        }
      ],
      "name": "totalSpentPerDay",
      "outputs": [
        {
          "name": "",
          "type": "uint256"
        }
      ],
      "payable": false,
      "stateMutability": "view",
      "type": "function"
    },
    {
      "constant": true,
      "inputs": [],
      "name": "isInitialized",
      "outputs": [
        {
          "name": "",
          "type": "bool"
        }
      ],
      "payable": false,
      "stateMutability": "view",
      "type": "function"
    },
    {
      "constant": false,
      "inputs": [
        {
          "name": "_dailyLimit",
          "type": "uint256"
        }
      ],
      "name": "setExecutionDailyLimit",
      "outputs": [],
      "payable": false,
      "stateMutability": "nonpayable",
      "type": "function"
    },
    {
      "constant": true,
      "inputs": [],
      "name": "getCurrentDay",
      "outputs": [
        {
          "name": "",
          "type": "uint256"
        }
      ],
      "payable": false,
      "stateMutability": "view",
      "type": "function"
    },
    {
      "constant": true,
      "inputs": [],
      "name": "requiredBlockConfirmations",
      "outputs": [
        {
          "name": "",
          "type": "uint256"
        }
      ],
      "payable": false,
      "stateMutability": "view",
      "type": "function"
    },
    {
      "constant": true,
      "inputs": [],
      "name": "executionDailyLimit",
      "outputs": [
        {
          "name": "",
          "type": "uint256"
        }
      ],
      "payable": false,
      "stateMutability": "view",
      "type": "function"
    },
    {
      "constant": true,
      "inputs": [
        {
          "name": "_day",
          "type": "uint256"
        }
      ],
      "name": "totalExecutedPerDay",
      "outputs": [
        {
          "name": "",
          "type": "uint256"
        }
      ],
      "payable": false,
      "stateMutability": "view",
      "type": "function"
    },
    {
      "constant": true,
      "inputs": [],
      "name": "dailyLimit",
      "outputs": [
        {
          "name": "",
          "type": "uint256"
        }
      ],
      "payable": false,
      "stateMutability": "view",
      "type": "function"
    },
    {
      "constant": false,
      "inputs": [
        {
          "name": "_token",
          "type": "address"
        },
        {
          "name": "_to",
          "type": "address"
        }
      ],
      "name": "claimTokens",
      "outputs": [],
      "payable": false,
      "stateMutability": "nonpayable",
      "type": "function"
    },
    {
      "constant": true,
      "inputs": [
        {
          "name": "_amount",
          "type": "uint256"
        }
      ],
      "name": "withinExecutionLimit",
      "outputs": [
        {
          "name": "",
          "type": "bool"
        }
      ],
      "payable": false,
      "stateMutability": "view",
      "type": "function"
    },
    {
      "constant": true,
      "inputs": [],
      "name": "executionMaxPerTx",
      "outputs": [
        {
          "name": "",
          "type": "uint256"
        }
      ],
      "payable": false,
      "stateMutability": "view",
      "type": "function"
    },
    {
      "constant": true,
      "inputs": [],
      "name": "requiredSignatures",
      "outputs": [
        {
          "name": "",
          "type": "uint256"
        }
      ],
      "payable": false,
      "stateMutability": "view",
      "type": "function"
    },
    {
      "constant": true,
      "inputs": [],
      "name": "owner",
      "outputs": [
        {
          "name": "",
          "type": "address"
        }
      ],
      "payable": false,
      "stateMutability": "view",
      "type": "function"
    },
    {
      "constant": true,
      "inputs": [],
      "name": "validatorContract",
      "outputs": [
        {
          "name": "",
          "type": "address"
        }
      ],
      "payable": false,
      "stateMutability": "view",
      "type": "function"
    },
    {
      "constant": true,
      "inputs": [],
      "name": "deployedAtBlock",
      "outputs": [
        {
          "name": "",
          "type": "uint256"
        }
      ],
      "payable": false,
      "stateMutability": "view",
      "type": "function"
    },
    {
      "constant": true,
      "inputs": [],
      "name": "getBridgeInterfacesVersion",
      "outputs": [
        {
          "name": "major",
          "type": "uint64"
        },
        {
          "name": "minor",
          "type": "uint64"
        },
        {
          "name": "patch",
          "type": "uint64"
        }
      ],
      "payable": false,
      "stateMutability": "pure",
      "type": "function"
    },
    {
      "constant": false,
      "inputs": [
        {
          "name": "_minPerTx",
          "type": "uint256"
        }
      ],
      "name": "setMinPerTx",
      "outputs": [],
      "payable": false,
      "stateMutability": "nonpayable",
      "type": "function"
    },
    {
      "constant": false,
      "inputs": [
        {
          "name": "_from",
          "type": "address"
        },
        {
          "name": "_value",
          "type": "uint256"
        },
        {
          "name": "",
          "type": "bytes"
        }
      ],
      "name": "onTokenTransfer",
      "outputs": [
        {
          "name": "",
          "type": "bool"
        }
      ],
      "payable": false,
      "stateMutability": "nonpayable",
      "type": "function"
    },
    {
      "constant": false,
      "inputs": [
        {
          "name": "_blockConfirmations",
          "type": "uint256"
        }
      ],
      "name": "setRequiredBlockConfirmations",
      "outputs": [],
      "payable": false,
      "stateMutability": "nonpayable",
      "type": "function"
    },
    {
      "constant": false,
      "inputs": [
        {
          "name": "_dailyLimit",
          "type": "uint256"
        }
      ],
      "name": "setDailyLimit",
      "outputs": [],
      "payable": false,
      "stateMutability": "nonpayable",
      "type": "function"
    },
    {
      "constant": false,
      "inputs": [
        {
          "name": "_gasPrice",
          "type": "uint256"
        }
      ],
      "name": "setGasPrice",
      "outputs": [],
      "payable": false,
      "stateMutability": "nonpayable",
      "type": "function"
    },
    {
      "constant": false,
      "inputs": [
        {
          "name": "_maxPerTx",
          "type": "uint256"
        }
      ],
      "name": "setMaxPerTx",
      "outputs": [],
      "payable": false,
      "stateMutability": "nonpayable",
      "type": "function"
    },
    {
      "constant": true,
      "inputs": [],
      "name": "upgradeabilityAdmin",
      "outputs": [
        {
          "name": "",
          "type": "address"
        }
      ],
      "payable": false,
      "stateMutability": "view",
      "type": "function"
    },
    {
      "constant": true,
      "inputs": [],
      "name": "minPerTx",
      "outputs": [
        {
          "name": "",
          "type": "uint256"
        }
      ],
      "payable": false,
      "stateMutability": "view",
      "type": "function"
    },
    {
      "constant": true,
      "inputs": [
        {
          "name": "_amount",
          "type": "uint256"
        }
      ],
      "name": "withinLimit",
      "outputs": [
        {
          "name": "",
          "type": "bool"
        }
      ],
      "payable": false,
      "stateMutability": "view",
      "type": "function"
    },
    {
      "constant": false,
      "inputs": [
        {
          "name": "_maxPerTx",
          "type": "uint256"
        }
      ],
      "name": "setExecutionMaxPerTx",
      "outputs": [],
      "payable": false,
      "stateMutability": "nonpayable",
      "type": "function"
    },
    {
      "constant": false,
      "inputs": [
        {
          "name": "newOwner",
          "type": "address"
        }
      ],
      "name": "transferOwnership",
      "outputs": [],
      "payable": false,
      "stateMutability": "nonpayable",
      "type": "function"
    },
    {
      "constant": true,
      "inputs": [],
      "name": "maxPerTx",
      "outputs": [
        {
          "name": "",
          "type": "uint256"
        }
      ],
      "payable": false,
      "stateMutability": "view",
      "type": "function"
    },
    {
      "constant": true,
      "inputs": [],
      "name": "gasPrice",
      "outputs": [
        {
          "name": "",
          "type": "uint256"
        }
      ],
      "payable": false,
      "stateMutability": "view",
      "type": "function"
    },
    {
      "anonymous": false,
      "inputs": [
        {
          "indexed": false,
          "name": "recipient",
          "type": "address"
        },
        {
          "indexed": false,
          "name": "value",
          "type": "uint256"
        }
      ],
      "name": "UserRequestForAffirmation",
      "type": "event"
    },
    {
      "anonymous": false,
      "inputs": [
        {
          "indexed": false,
          "name": "recipient",
          "type": "address"
        },
        {
          "indexed": false,
          "name": "value",
          "type": "uint256"
        },
        {
          "indexed": false,
          "name": "transactionHash",
          "type": "bytes32"
        }
      ],
      "name": "RelayedMessage",
      "type": "event"
    },
    {
      "anonymous": false,
      "inputs": [
        {
          "indexed": false,
          "name": "gasPrice",
          "type": "uint256"
        }
      ],
      "name": "GasPriceChanged",
      "type": "event"
    },
    {
      "anonymous": false,
      "inputs": [
        {
          "indexed": false,
          "name": "requiredBlockConfirmations",
          "type": "uint256"
        }
      ],
      "name": "RequiredBlockConfirmationChanged",
      "type": "event"
    },
    {
      "anonymous": false,
      "inputs": [
        {
          "indexed": false,
          "name": "newLimit",
          "type": "uint256"
        }
      ],
      "name": "DailyLimitChanged",
      "type": "event"
    },
    {
      "anonymous": false,
      "inputs": [
        {
          "indexed": false,
          "name": "newLimit",
          "type": "uint256"
        }
      ],
      "name": "ExecutionDailyLimitChanged",
      "type": "event"
    },
    {
      "anonymous": false,
      "inputs": [
        {
          "indexed": false,
          "name": "previousOwner",
          "type": "address"
        },
        {
          "indexed": false,
          "name": "newOwner",
          "type": "address"
        }
      ],
      "name": "OwnershipTransferred",
      "type": "event"
    },
    {
      "constant": false,
      "inputs": [
        {
          "name": "_validatorContract",
          "type": "address"
        },
        {
          "name": "_erc677token",
          "type": "address"
        },
        {
          "name": "_dailyLimit",
          "type": "uint256"
        },
        {
          "name": "_maxPerTx",
          "type": "uint256"
        },
        {
          "name": "_minPerTx",
          "type": "uint256"
        },
        {
          "name": "_foreignGasPrice",
          "type": "uint256"
        },
        {
          "name": "_requiredBlockConfirmations",
          "type": "uint256"
        },
        {
          "name": "_homeDailyLimit",
          "type": "uint256"
        },
        {
          "name": "_homeMaxPerTx",
          "type": "uint256"
        },
        {
          "name": "_owner",
          "type": "address"
        }
      ],
      "name": "initialize",
      "outputs": [
        {
          "name": "",
          "type": "bool"
        }
      ],
      "payable": false,
      "stateMutability": "nonpayable",
      "type": "function"
    },
    {
      "constant": true,
      "inputs": [],
      "name": "getBridgeMode",
      "outputs": [
        {
          "name": "_data",
          "type": "bytes4"
        }
      ],
      "payable": false,
      "stateMutability": "pure",
      "type": "function"
    },
    {
      "constant": false,
      "inputs": [
        {
          "name": "_token",
          "type": "address"
        },
        {
          "name": "_to",
          "type": "address"
        }
      ],
      "name": "claimTokensFromErc677",
      "outputs": [],
      "payable": false,
      "stateMutability": "nonpayable",
      "type": "function"
    }
  ],
  "bytecode": "0x608060405234801561001057600080fd5b50612db3806100206000396000f30060806040526004361061019d5763ffffffff60e060020a60003504166318d8f9c981146101a257806321d800ec146101d3578063232a2c1d146101ff5780632bd0bb0514610245578063392e53cd1461026f5780633dd95d1b146102845780633e6968b61461029c5780633f0a9f65146102b1578063437764df146102c657806343b37dd3146103105780634fb3fef7146103255780635ad1d7f91461033d57806367eeba0c1461038857806369ffa08a1461039d578063879ce676146103c45780638aa1949a146103dc5780638d068043146103f15780638da5cb5b146104065780639313dc431461041b57806399439089146104425780639a454b99146104575780639cb7595a1461046c578063a2a6ca27146104ad578063a4c0ed36146104c5578063acf5c689146104f6578063b20d30a91461050e578063bf1fe42014610526578063c6f6f2161461053e578063df0ad3de14610556578063df25f3f01461056b578063ea9f496814610580578063f20151e114610598578063f2fde38b146105b0578063f968adbe146105d1578063fe173b97146105e6575b600080fd5b3480156101ae57600080fd5b506101b76105fb565b60408051600160a060020a039092168252519081900360200190f35b3480156101df57600080fd5b506101eb6004356106b9565b604080519115158252519081900360200190f35b34801561020b57600080fd5b506102436024600480358281019290820135918135808301929082013591604435808301929082013591606435918201910135610782565b005b34801561025157600080fd5b5061025d60043561095a565b60408051918252519081900360200190f35b34801561027b57600080fd5b506101eb610a17565b34801561029057600080fd5b50610243600435610acf565b3480156102a857600080fd5b5061025d610bd1565b3480156102bd57600080fd5b5061025d610bda565b3480156102d257600080fd5b506102db610c8e565b604080517fffffffff000000000000000000000000000000000000000000000000000000009092168252519081900360200190f35b34801561031c57600080fd5b5061025d610d31565b34801561033157600080fd5b5061025d600435610da4565b34801561034957600080fd5b506101eb600160a060020a0360043581169060243581169060443590606435906084359060a4359060c4359060e4359061010435906101243516610e1f565b34801561039457600080fd5b5061025d611515565b3480156103a957600080fd5b50610243600160a060020a0360043581169060243516611588565b3480156103d057600080fd5b506101eb600435611744565b3480156103e857600080fd5b5061025d61178e565b3480156103fd57600080fd5b5061025d611801565b34801561041257600080fd5b506101b7611879565b34801561042757600080fd5b50610243600160a060020a03600435811690602435166118ed565b34801561044e57600080fd5b506101b761199a565b34801561046357600080fd5b5061025d611a0e565b34801561047857600080fd5b50610481611a81565b6040805167ffffffffffffffff9485168152928416602084015292168183015290519081900360600190f35b3480156104b957600080fd5b50610243600435611a8b565b3480156104d157600080fd5b506101eb60048035600160a060020a0316906024803591604435918201910135611b82565b34801561050257600080fd5b50610243600435611c55565b34801561051a57600080fd5b50610243600435611d64565b34801561053257600080fd5b50610243600435611e66565b34801561054a57600080fd5b50610243600435611f75565b34801561056257600080fd5b506101b7612016565b34801561057757600080fd5b5061025d612056565b34801561058c57600080fd5b506101eb6004356120c9565b3480156105a457600080fd5b50610243600435612114565b3480156105bc57600080fd5b50610243600160a060020a03600435166121b5565b3480156105dd57600080fd5b5061025d6121f2565b3480156105f257600080fd5b5061025d612265565b60006002600060405160200180807f657263363737746f6b656e000000000000000000000000000000000000000000815250600b0190506040516020818303038152906040526040518082805190602001908083835b602083106106705780518252601f199092019160209182019101610651565b51815160209384036101000a6000190180199092169116179052604080519290940182900390912086528501959095529290920160002054600160a060020a0316949350505050565b6000600460008360405160200180807f72656c617965644d657373616765730000000000000000000000000000000000815250600f0182600019166000191681526020019150506040516020818303038152906040526040518082805190602001908083835b6020831061073e5780518252601f19909201916020918201910161071f565b51815160209384036101000a600019018019909216911617905260408051929094018290039091208652850195909552929092016000205460ff1695945050505050565b60008060008061085a86868080601f0160208091040260200160405190810160405280939291908181526020018383808284378201915050505050508d8d808060200260200160405190810160405280939291908181526020018383602002808284378201915050505050508c8c808060200260200160405190810160405280939291908181526020018383602002808284378201915050505050508b8b8080602002602001604051908101604052809392919081815260200183836020028082843750610855945061199a9350505050565b6122d8565b61089386868080601f01602080910402602001604051908101604052809392919081815260200183838082843750612545945050505050565b929650909450925090506108a68361258b565b1561094157600160a060020a03811630146108c057600080fd5b6108c9826106b9565b156108d357600080fd5b6108de82600161259c565b6108e8848461266e565b15156108f357600080fd5b60408051600160a060020a03861681526020810185905280820184905290517f4ab7d581336d92edbea22636a613e8e76c99ac7f91137c1523db38dbfb3bf3299181900360600190a161094c565b61094c84848461019d565b505050505050505050505050565b60008060008360405160200180807f746f74616c5370656e74506572446179000000000000000000000000000000008152506010018281526020019150506040516020818303038152906040526040518082805190602001908083835b602083106109d65780518252601f1990920191602091820191016109b7565b51815160209384036101000a600019018019909216911617905260408051929094018290039091208652850195909552929092016000205495945050505050565b60006004600060405160200180807f6973496e697469616c697a656400000000000000000000000000000000000000815250600d0190506040516020818303038152906040526040518082805190602001908083835b60208310610a8c5780518252601f199092019160209182019101610a6d565b51815160209384036101000a600019018019909216911617905260408051929094018290039091208652850195909552929092016000205460ff16949350505050565b610ad7611879565b600160a060020a03163314610aeb57600080fd5b8060008060405160200180807f657865637574696f6e4461696c794c696d69740000000000000000000000000081525060130190506040516020818303038152906040526040518082805190602001908083835b60208310610b5e5780518252601f199092019160209182019101610b3f565b51815160001960209485036101000a019081169019919091161790526040805194909201849003909320865285830196909652509284016000209490945550815184815291517f9bebf928b90863f24cc31f726a3a7545efd409f1dcf552301b1ee3710da70d3b9350918290030190a150565b62015180420490565b600080600060405160200180807f7265717569726564426c6f636b436f6e6669726d6174696f6e73000000000000815250601a0190506040516020818303038152906040526040518082805190602001908083835b60208310610c4e5780518252601f199092019160209182019101610c2f565b51815160209384036101000a6000190180199092169116179052604080519290940182900390912086528501959095529290920160002054949350505050565b600060405160200180807f6e61746976652d746f2d6572632d636f7265000000000000000000000000000081525060120190506040516020818303038152906040526040518082805190602001908083835b60208310610cff5780518252601f199092019160209182019101610ce0565b6001836020036101000a0380198251168184511680821785525050505050509050019150506040518091039020905090565b600080600060405160200180807f657865637574696f6e4461696c794c696d697400000000000000000000000000815250601301905060405160208183030381529060405260405180828051906020019080838360208310610c4e5780518252601f199092019160209182019101610c2f565b60008060008360405160200180807f746f74616c457865637574656450657244617900000000000000000000000000815250601301828152602001915050604051602081830303815290604052604051808280519060200190808383602083106109d65780518252601f1990920191602091820191016109b7565b6000610e29610a17565b15610e3357600080fd5b600160a060020a038b1615801590610e4f5750610e4f8b61272c565b1515610e5a57600080fd5b600087118015610e6957508688115b8015610e7457508789115b1515610e7f57600080fd5b60008611610e8c57600080fd5b838310610e9857600080fd5b600160a060020a0382161515610ead57600080fd5b8a6002600060405160200180807f76616c696461746f72436f6e747261637400000000000000000000000000000081525060110190506040516020818303038152906040526040518082805190602001908083835b60208310610f215780518252601f199092019160209182019101610f02565b51815160209384036101000a60001901801990921691161790526040805192909401829003909120865285019590955292909201600020805473ffffffffffffffffffffffffffffffffffffffff1916600160a060020a03959095169490941790935550610f9291508b9050612734565b8860008060405160200180807f6461696c794c696d697400000000000000000000000000000000000000000000815250600a0190506040516020818303038152906040526040518082805190602001908083835b602083106110055780518252601f199092019160209182019101610fe6565b51815160209384036101000a6000190180199092169116179052604080519290940182900390912086528581019690965250928301600090812095909555505080517f6465706c6f7965644174426c6f636b0000000000000000000000000000000000818401528151600f818303018152602f90910191829052805143949384939182918401908083835b602083106110af5780518252601f199092019160209182019101611090565b51815160209384036101000a6000190180199092169116179052604080519290940182900390912086528581019690965250928301600090812095909555505080517f6d61785065725478000000000000000000000000000000000000000000000000818401528151600881830301815260289091019182905280518c949384939182918401908083835b602083106111595780518252601f19909201916020918201910161113a565b51815160209384036101000a6000190180199092169116179052604080519290940182900390912086528581019690965250928301600090812095909555505080517f6d696e5065725478000000000000000000000000000000000000000000000000818401528151600881830301815260289091019182905280518b949384939182918401908083835b602083106112035780518252601f1990920191602091820191016111e4565b51815160209384036101000a6000190180199092169116179052604080519290940182900390912086528581019690965250928301600090812095909555505080517f6761735072696365000000000000000000000000000000000000000000000000818401528151600881830301815260289091019182905280518a949384939182918401908083835b602083106112ad5780518252601f19909201916020918201910161128e565b51815160209384036101000a6000190180199092169116179052604080519290940182900390912086528581019690965250928301600090812095909555505080517f7265717569726564426c6f636b436f6e6669726d6174696f6e73000000000000818401528151601a818303018152603a90910191829052805189949384939182918401908083835b602083106113575780518252601f199092019160209182019101611338565b51815160209384036101000a6000190180199092169116179052604080519290940182900390912086528581019690965250928301600090812095909555505080517f657865637574696f6e4461696c794c696d6974000000000000000000000000008184015281516013818303018152603390910191829052805188949384939182918401908083835b602083106114015780518252601f1990920191602091820191016113e2565b51815160209384036101000a6000190180199092169116179052604080519290940182900390912086528581019690965250928301600090812095909555505080517f657865637574696f6e4d617850657254780000000000000000000000000000008184015281516011818303018152603190910191829052805187949384939182918401908083835b602083106114ab5780518252601f19909201916020918201910161148c565b51815160209384036101000a6000190180199092169116179052604080519290940182900390912086528501959095529290920160002093909355506114f49150839050612838565b6114fe60016128f6565b611506610a17565b9b9a5050505050505050505050565b600080600060405160200180807f6461696c794c696d697400000000000000000000000000000000000000000000815250600a01905060405160208183030381529060405260405180828051906020019080838360208310610c4e5780518252601f199092019160209182019101610c2f565b600080611593612016565b600160a060020a031633146115a757600080fd5b600160a060020a03831615156115bc57600080fd5b600160a060020a038416151561160857604051600160a060020a03841690303180156108fc02916000818181858888f19350505050158015611602573d6000803e3d6000fd5b5061173e565b604080517f70a082310000000000000000000000000000000000000000000000000000000081523060048201529051859350600160a060020a038416916370a082319160248083019260209291908290030181600087803b15801561166c57600080fd5b505af1158015611680573d6000803e3d6000fd5b505050506040513d602081101561169657600080fd5b5051604080517fa9059cbb000000000000000000000000000000000000000000000000000000008152600160a060020a0386811660048301526024820184905291519293509084169163a9059cbb916044808201926020929091908290030181600087803b15801561170757600080fd5b505af115801561171b573d6000803e3d6000fd5b505050506040513d602081101561173157600080fd5b5051151561173e57600080fd5b50505050565b6000806117678361175b611756610bd1565b610da4565b9063ffffffff6129b716565b905080611772610d31565b10158015611787575061178361178e565b8311155b9392505050565b600080600060405160200180807f657865637574696f6e4d61785065725478000000000000000000000000000000815250601101905060405160208183030381529060405260405180828051906020019080838360208310610c4e5780518252601f199092019160209182019101610c2f565b600061180b61199a565b600160a060020a0316638d0680436040518163ffffffff1660e060020a028152600401602060405180830381600087803b15801561184857600080fd5b505af115801561185c573d6000803e3d6000fd5b505050506040513d602081101561187257600080fd5b5051905090565b60006002600060405160200180807f6f776e65720000000000000000000000000000000000000000000000000000008152506005019050604051602081830303815290604052604051808280519060200190808383602083106106705780518252601f199092019160209182019101610651565b6118f5612016565b600160a060020a0316331461190957600080fd5b6119116105fb565b604080517f69ffa08a000000000000000000000000000000000000000000000000000000008152600160a060020a0385811660048301528481166024830152915192909116916369ffa08a9160448082019260009290919082900301818387803b15801561197e57600080fd5b505af1158015611992573d6000803e3d6000fd5b505050505050565b60006002600060405160200180807f76616c696461746f72436f6e74726163740000000000000000000000000000008152506011019050604051602081830303815290604052604051808280519060200190808383602083106106705780518252601f199092019160209182019101610651565b600080600060405160200180807f6465706c6f7965644174426c6f636b0000000000000000000000000000000000815250600f01905060405160208183030381529060405260405180828051906020019080838360208310610c4e5780518252601f199092019160209182019101610c2f565b6002806000909192565b611a93611879565b600160a060020a03163314611aa757600080fd5b611aaf611515565b81108015611ac35750611ac06121f2565b81105b1515611ace57600080fd5b8060008060405160200180807f6d696e506572547800000000000000000000000000000000000000000000000081525060080190506040516020818303038152906040526040518082805190602001908083835b60208310611b415780518252601f199092019160209182019101611b22565b51815160209384036101000a600019018019909216911617905260408051929094018290039091208652850195909552929092016000209390935550505050565b6000611b8c6105fb565b600160a060020a03163314611ba057600080fd5b611ba9846120c9565b1515611bb457600080fd5b611bd8611bbf610bd1565b611bd38661175b611bce610bd1565b61095a565b6129d1565b611be06105fb565b600160a060020a03166342966c68856040518263ffffffff1660e060020a02815260040180828152602001915050600060405180830381600087803b158015611c2857600080fd5b505af1158015611c3c573d6000803e3d6000fd5b50505050611c4a8585612a8e565b506001949350505050565b611c5d611879565b600160a060020a03163314611c7157600080fd5b60008111611c7e57600080fd5b8060008060405160200180807f7265717569726564426c6f636b436f6e6669726d6174696f6e73000000000000815250601a0190506040516020818303038152906040526040518082805190602001908083835b60208310611cf15780518252601f199092019160209182019101611cd2565b51815160001960209485036101000a019081169019919091161790526040805194909201849003909320865285830196909652509284016000209490945550815184815291517f4fb76205cd57c896b21511d2114137d8e901b4ccd659e1a0f97d6306795264fb9350918290030190a150565b611d6c611879565b600160a060020a03163314611d8057600080fd5b8060008060405160200180807f6461696c794c696d697400000000000000000000000000000000000000000000815250600a0190506040516020818303038152906040526040518082805190602001908083835b60208310611df35780518252601f199092019160209182019101611dd4565b51815160001960209485036101000a019081169019919091161790526040805194909201849003909320865285830196909652509284016000209490945550815184815291517fad4123ae17c414d9c6d2fec478b402e6b01856cc250fd01fbfd252fda0089d3c9350918290030190a150565b611e6e611879565b600160a060020a03163314611e8257600080fd5b60008111611e8f57600080fd5b8060008060405160200180807f676173507269636500000000000000000000000000000000000000000000000081525060080190506040516020818303038152906040526040518082805190602001908083835b60208310611f025780518252601f199092019160209182019101611ee3565b51815160001960209485036101000a019081169019919091161790526040805194909201849003909320865285830196909652509284016000209490945550815184815291517f52264b89e0fceafb26e79fd49ef8a366eb6297483bf4035b027f0c99a7ad512e9350918290030190a150565b611f7d611879565b600160a060020a03163314611f9157600080fd5b611f99611515565b8110611fa457600080fd5b8060008060405160200180807f6d61785065725478000000000000000000000000000000000000000000000000815250600801905060405160208183030381529060405260405180828051906020019080838360208310611b415780518252601f199092019160209182019101611b22565b600030600160a060020a031663025313a26040518163ffffffff1660e060020a028152600401602060405180830381600087803b15801561184857600080fd5b600080600060405160200180807f6d696e5065725478000000000000000000000000000000000000000000000000815250600801905060405160208183030381529060405260405180828051906020019080838360208310610c4e5780518252601f199092019160209182019101610c2f565b6000806120db8361175b611bce610bd1565b9050806120e6611515565b101580156120fb57506120f76121f2565b8311155b8015611787575061210a612056565b9092101592915050565b61211c611879565b600160a060020a0316331461213057600080fd5b612138610d31565b811061214357600080fd5b8060008060405160200180807f657865637574696f6e4d61785065725478000000000000000000000000000000815250601101905060405160208183030381529060405260405180828051906020019080838360208310611b415780518252601f199092019160209182019101611b22565b6121bd611879565b600160a060020a031633146121d157600080fd5b600160a060020a03811615156121e657600080fd5b6121ef81612838565b50565b600080600060405160200180807f6d61785065725478000000000000000000000000000000000000000000000000815250600801905060405160208183030381529060405260405180828051906020019080838360208310610c4e5780518252601f199092019160209182019101610c2f565b600080600060405160200180807f6761735072696365000000000000000000000000000000000000000000000000815250600801905060405160208183030381529060405260405180828051906020019080838360208310610c4e5780518252601f199092019160209182019101610c2f565b60008060606000806122e98a612ad6565b15156122f457600080fd5b85600160a060020a0316638d0680436040518163ffffffff1660e060020a028152600401602060405180830381600087803b15801561233257600080fd5b505af1158015612346573d6000803e3d6000fd5b505050506040513d602081101561235c57600080fd5b5051895190955085111561236f57600080fd5b6123788a612aea565b9350846040519080825280602002602001820160405280156123a4578160200160208202803883390190505b509250600091505b84821015612539576001848a848151811015156123c557fe5b906020019060200201518a858151811015156123dd57fe5b906020019060200201518a868151811015156123f557fe5b60209081029091018101516040805160008082528185018084529790975260ff9095168582015260608501939093526080840152905160a0808401949293601f19830193908390039091019190865af1158015612456573d6000803e3d6000fd5b50505060206040510351905085600160a060020a031663facd743b826040518263ffffffff1660e060020a0281526004018082600160a060020a0316600160a060020a03168152602001915050602060405180830381600087803b1580156124bd57600080fd5b505af11580156124d1573d6000803e3d6000fd5b505050506040513d60208110156124e757600080fd5b505115156124f457600080fd5b6124fe8382612caf565b1561250857600080fd5b80838381518110151561251757fe5b600160a060020a039092166020928302909101909101526001909101906123ac565b50505050505050505050565b60008060008061255485612ad6565b151561255f57600080fd5b600160a060020a0360148601511693506034850151925060548501519150606885015190509193509193565b600061259682611744565b92915050565b80600460008460405160200180807f72656c617965644d657373616765730000000000000000000000000000000000815250600f0182600019166000191681526020019150506040516020818303038152906040526040518082805190602001908083835b602083106126205780518252601f199092019160209182019101612601565b51815160209384036101000a60001901801990921691161790526040805192909401829003909120865285019590955292909201600020805460ff1916941515949094179093555050505050565b600061268f61267b610bd1565b61268a8461175b611756610bd1565b612d08565b6126976105fb565b600160a060020a03166340c10f1984846040518363ffffffff1660e060020a0281526004018083600160a060020a0316600160a060020a0316815260200182815260200192505050602060405180830381600087803b1580156126f957600080fd5b505af115801561270d573d6000803e3d6000fd5b505050506040513d602081101561272357600080fd5b50519392505050565b6000903b1190565b600160a060020a0381161580159061275057506127508161272c565b151561275b57600080fd5b806002600060405160200180807f657263363737746f6b656e000000000000000000000000000000000000000000815250600b0190506040516020818303038152906040526040518082805190602001908083835b602083106127cf5780518252601f1990920191602091820191016127b0565b51815160209384036101000a60001901801990921691161790526040805192909401829003909120865285019590955292909201600020805473ffffffffffffffffffffffffffffffffffffffff1916600160a060020a03959095169490941790935550505050565b7f8be0079c531659141344cd1fd0a4f28419497f9722a3daafe3b4186f6b6457e0612861611879565b60408051600160a060020a03928316815291841660208301528051918290030190a1806002600060405160200180807f6f776e65720000000000000000000000000000000000000000000000000000008152506005019050604051602081830303815290604052604051808280519060200190808383602083106127cf5780518252601f1990920191602091820191016127b0565b806004600060405160200180807f6973496e697469616c697a656400000000000000000000000000000000000000815250600d0190506040516020818303038152906040526040518082805190602001908083835b6020831061296a5780518252601f19909201916020918201910161294b565b51815160209384036101000a60001901801990921691161790526040805192909401829003909120865285019590955292909201600020805460ff19169415159490941790935550505050565b6000828201838110156129c657fe5b8091505b5092915050565b806000808460405160200180807f746f74616c5370656e74506572446179000000000000000000000000000000008152506010018281526020019150506040516020818303038152906040526040518082805190602001908083835b60208310612a4c5780518252601f199092019160209182019101612a2d565b51815160209384036101000a60001901801990921691161790526040805192909401829003909120865285019590955292909201600020939093555050505050565b60408051600160a060020a03841681526020810183905281517f1d491a427d1f8cc0d447496f300fac39f7306122481d8e663451eb268274146b929181900390910190a15050565b6000612ae0612d82565b8251149050919050565b604080518082018252601a81527f19457468657265756d205369676e6564204d6573736167653a0a000000000000602080830191825283518085018552600381527f313034000000000000000000000000000000000000000000000000000000000081830152935183516000959385938593899391019182918083835b60208310612b865780518252601f199092019160209182019101612b67565b51815160209384036101000a600019018019909216911617905286519190930192860191508083835b60208310612bce5780518252601f199092019160209182019101612baf565b51815160209384036101000a600019018019909216911617905285519190930192850191508083835b60208310612c165780518252601f199092019160209182019101612bf7565b6001836020036101000a03801982511681845116808217855250505050505090500193505050506040516020818303038152906040526040518082805190602001908083835b60208310612c7b5780518252601f199092019160209182019101612c5c565b5181516020939093036101000a60001901801990911692169190911790526040519201829003909120979650505050505050565b6000805b8351811015612cfe5782600160a060020a03168482815181101515612cd457fe5b90602001906020020151600160a060020a03161415612cf657600191506129ca565b600101612cb3565b5060009392505050565b806000808460405160200180807f746f74616c45786563757465645065724461790000000000000000000000000081525060130182815260200191505060405160208183030381529060405260405180828051906020019080838360208310612a4c5780518252601f199092019160209182019101612a2d565b6068905600a165627a7a723058209697384fc5824c29598c910e8d3b5fa722b170d736026f6979265c113be4df9d0029",
  "source": "pragma solidity 0.4.24;\nimport \"../../libraries/SafeMath.sol\";\nimport \"../BasicBridge.sol\";\nimport \"../../IBurnableMintableERC677Token.sol\";\nimport \"../../ERC677Receiver.sol\";\nimport \"../BasicForeignBridge.sol\";\nimport \"openzeppelin-solidity/contracts/token/ERC20/ERC20Basic.sol\";\nimport \"../ERC677Bridge.sol\";\n\n\ncontract ForeignBridgeNativeToErc is ERC677Receiver, BasicBridge, BasicForeignBridge, ERC677Bridge {\n\n    /// Event created on money withdraw.\n    event UserRequestForAffirmation(address recipient, uint256 value);\n\n    function initialize(\n        address _validatorContract,\n        address _erc677token,\n        uint256 _dailyLimit,\n        uint256 _maxPerTx,\n        uint256 _minPerTx,\n        uint256 _foreignGasPrice,\n        uint256 _requiredBlockConfirmations,\n        uint256 _homeDailyLimit,\n        uint256 _homeMaxPerTx,\n        address _owner\n    ) public returns(bool) {\n        require(!isInitialized());\n        require(_validatorContract != address(0) && isContract(_validatorContract));\n        require(_minPerTx > 0 && _maxPerTx > _minPerTx && _dailyLimit > _maxPerTx);\n        require(_foreignGasPrice > 0);\n        require(_homeMaxPerTx < _homeDailyLimit);\n        require(_owner != address(0));\n        addressStorage[keccak256(abi.encodePacked(\"validatorContract\"))] = _validatorContract;\n        setErc677token(_erc677token);\n        uintStorage[keccak256(abi.encodePacked(\"dailyLimit\"))] = _dailyLimit;\n        uintStorage[keccak256(abi.encodePacked(\"deployedAtBlock\"))] = block.number;\n        uintStorage[keccak256(abi.encodePacked(\"maxPerTx\"))] = _maxPerTx;\n        uintStorage[keccak256(abi.encodePacked(\"minPerTx\"))] = _minPerTx;\n        uintStorage[keccak256(abi.encodePacked(\"gasPrice\"))] = _foreignGasPrice;\n        uintStorage[keccak256(abi.encodePacked(\"requiredBlockConfirmations\"))] = _requiredBlockConfirmations;\n        uintStorage[keccak256(abi.encodePacked(\"executionDailyLimit\"))] = _homeDailyLimit;\n        uintStorage[keccak256(abi.encodePacked(\"executionMaxPerTx\"))] = _homeMaxPerTx;\n        setOwner(_owner);\n        setInitialize(true);\n        return isInitialized();\n    }\n\n    function getBridgeMode() public pure returns(bytes4 _data) {\n        return bytes4(keccak256(abi.encodePacked(\"native-to-erc-core\")));\n    }\n\n    function claimTokensFromErc677(address _token, address _to) external onlyIfOwnerOfProxy {\n        erc677token().claimTokens(_token, _to);\n    }\n\n    function onExecuteMessage(address _recipient, uint256 _amount) internal returns(bool){\n        setTotalExecutedPerDay(getCurrentDay(), totalExecutedPerDay(getCurrentDay()).add(_amount));\n        return erc677token().mint(_recipient, _amount);\n    }\n\n    function fireEventOnTokenTransfer(address _from, uint256 _value) internal {\n        emit UserRequestForAffirmation(_from, _value);\n    }\n\n    function messageWithinLimits(uint256 _amount) internal view returns(bool) {\n        return withinExecutionLimit(_amount);\n    }\n\n    function onFailedMessage(address, uint256, bytes32) internal {\n        revert();\n    }\n}\n",
  "sourcePath": "/contracts/contracts/upgradeable_contracts/native_to_erc20/ForeignBridgeNativeToErc.sol",
  "compiler": {
    "name": "solc",
    "version": "0.4.24+commit.e67f0147.Emscripten.clang"
  },
  "schemaVersion": "2.0.0",
  "updatedAt": "2019-02-27T05:38:44.541Z"
}