{
  "contractName": "ForeignBridgeErcToErc",
  "abi": [
    {
      "constant": true,
      "inputs": [
        {
          "name": "_txHash",
          "type": "bytes32"
        }
      ],
      "name": "relayedMessages",
      "outputs": [
        {
          "name": "",
          "type": "bool"
        }
      ],
      "payable": false,
      "stateMutability": "view",
      "type": "function"
    },
    {
      "constant": false,
      "inputs": [
        {
          "name": "vs",
          "type": "uint8[]"
        },
        {
          "name": "rs",
          "type": "bytes32[]"
        },
        {
          "name": "ss",
          "type": "bytes32[]"
        },
        {
          "name": "message",
          "type": "bytes"
        }
      ],
      "name": "executeSignatures",
      "outputs": [],
      "payable": false,
      "stateMutability": "nonpayable",
      "type": "function"
    },
    {
      "constant": true,
      "inputs": [
        {
          "name": "_day",
          "type": "uint256"
        }
      ],
      "name": "totalSpentPerDay",
      "outputs": [
        {
          "name": "",
          "type": "uint256"
        }
      ],
      "payable": false,
      "stateMutability": "view",
      "type": "function"
    },
    {
      "constant": true,
      "inputs": [],
      "name": "isInitialized",
      "outputs": [
        {
          "name": "",
          "type": "bool"
        }
      ],
      "payable": false,
      "stateMutability": "view",
      "type": "function"
    },
    {
      "constant": false,
      "inputs": [
        {
          "name": "_dailyLimit",
          "type": "uint256"
        }
      ],
      "name": "setExecutionDailyLimit",
      "outputs": [],
      "payable": false,
      "stateMutability": "nonpayable",
      "type": "function"
    },
    {
      "constant": true,
      "inputs": [],
      "name": "getCurrentDay",
      "outputs": [
        {
          "name": "",
          "type": "uint256"
        }
      ],
      "payable": false,
      "stateMutability": "view",
      "type": "function"
    },
    {
      "constant": true,
      "inputs": [],
      "name": "requiredBlockConfirmations",
      "outputs": [
        {
          "name": "",
          "type": "uint256"
        }
      ],
      "payable": false,
      "stateMutability": "view",
      "type": "function"
    },
    {
      "constant": true,
      "inputs": [],
      "name": "executionDailyLimit",
      "outputs": [
        {
          "name": "",
          "type": "uint256"
        }
      ],
      "payable": false,
      "stateMutability": "view",
      "type": "function"
    },
    {
      "constant": true,
      "inputs": [
        {
          "name": "_day",
          "type": "uint256"
        }
      ],
      "name": "totalExecutedPerDay",
      "outputs": [
        {
          "name": "",
          "type": "uint256"
        }
      ],
      "payable": false,
      "stateMutability": "view",
      "type": "function"
    },
    {
      "constant": true,
      "inputs": [],
      "name": "dailyLimit",
      "outputs": [
        {
          "name": "",
          "type": "uint256"
        }
      ],
      "payable": false,
      "stateMutability": "view",
      "type": "function"
    },
    {
      "constant": true,
      "inputs": [
        {
          "name": "_amount",
          "type": "uint256"
        }
      ],
      "name": "withinExecutionLimit",
      "outputs": [
        {
          "name": "",
          "type": "bool"
        }
      ],
      "payable": false,
      "stateMutability": "view",
      "type": "function"
    },
    {
      "constant": true,
      "inputs": [],
      "name": "executionMaxPerTx",
      "outputs": [
        {
          "name": "",
          "type": "uint256"
        }
      ],
      "payable": false,
      "stateMutability": "view",
      "type": "function"
    },
    {
      "constant": true,
      "inputs": [],
      "name": "requiredSignatures",
      "outputs": [
        {
          "name": "",
          "type": "uint256"
        }
      ],
      "payable": false,
      "stateMutability": "view",
      "type": "function"
    },
    {
      "constant": true,
      "inputs": [],
      "name": "owner",
      "outputs": [
        {
          "name": "",
          "type": "address"
        }
      ],
      "payable": false,
      "stateMutability": "view",
      "type": "function"
    },
    {
      "constant": true,
      "inputs": [],
      "name": "validatorContract",
      "outputs": [
        {
          "name": "",
          "type": "address"
        }
      ],
      "payable": false,
      "stateMutability": "view",
      "type": "function"
    },
    {
      "constant": true,
      "inputs": [],
      "name": "deployedAtBlock",
      "outputs": [
        {
          "name": "",
          "type": "uint256"
        }
      ],
      "payable": false,
      "stateMutability": "view",
      "type": "function"
    },
    {
      "constant": true,
      "inputs": [],
      "name": "getBridgeInterfacesVersion",
      "outputs": [
        {
          "name": "major",
          "type": "uint64"
        },
        {
          "name": "minor",
          "type": "uint64"
        },
        {
          "name": "patch",
          "type": "uint64"
        }
      ],
      "payable": false,
      "stateMutability": "pure",
      "type": "function"
    },
    {
      "constant": false,
      "inputs": [
        {
          "name": "_minPerTx",
          "type": "uint256"
        }
      ],
      "name": "setMinPerTx",
      "outputs": [],
      "payable": false,
      "stateMutability": "nonpayable",
      "type": "function"
    },
    {
      "constant": false,
      "inputs": [
        {
          "name": "_blockConfirmations",
          "type": "uint256"
        }
      ],
      "name": "setRequiredBlockConfirmations",
      "outputs": [],
      "payable": false,
      "stateMutability": "nonpayable",
      "type": "function"
    },
    {
      "constant": false,
      "inputs": [
        {
          "name": "_dailyLimit",
          "type": "uint256"
        }
      ],
      "name": "setDailyLimit",
      "outputs": [],
      "payable": false,
      "stateMutability": "nonpayable",
      "type": "function"
    },
    {
      "constant": false,
      "inputs": [
        {
          "name": "_gasPrice",
          "type": "uint256"
        }
      ],
      "name": "setGasPrice",
      "outputs": [],
      "payable": false,
      "stateMutability": "nonpayable",
      "type": "function"
    },
    {
      "constant": false,
      "inputs": [
        {
          "name": "_maxPerTx",
          "type": "uint256"
        }
      ],
      "name": "setMaxPerTx",
      "outputs": [],
      "payable": false,
      "stateMutability": "nonpayable",
      "type": "function"
    },
    {
      "constant": true,
      "inputs": [],
      "name": "upgradeabilityAdmin",
      "outputs": [
        {
          "name": "",
          "type": "address"
        }
      ],
      "payable": false,
      "stateMutability": "view",
      "type": "function"
    },
    {
      "constant": true,
      "inputs": [],
      "name": "minPerTx",
      "outputs": [
        {
          "name": "",
          "type": "uint256"
        }
      ],
      "payable": false,
      "stateMutability": "view",
      "type": "function"
    },
    {
      "constant": true,
      "inputs": [
        {
          "name": "_amount",
          "type": "uint256"
        }
      ],
      "name": "withinLimit",
      "outputs": [
        {
          "name": "",
          "type": "bool"
        }
      ],
      "payable": false,
      "stateMutability": "view",
      "type": "function"
    },
    {
      "constant": false,
      "inputs": [
        {
          "name": "_maxPerTx",
          "type": "uint256"
        }
      ],
      "name": "setExecutionMaxPerTx",
      "outputs": [],
      "payable": false,
      "stateMutability": "nonpayable",
      "type": "function"
    },
    {
      "constant": false,
      "inputs": [
        {
          "name": "newOwner",
          "type": "address"
        }
      ],
      "name": "transferOwnership",
      "outputs": [],
      "payable": false,
      "stateMutability": "nonpayable",
      "type": "function"
    },
    {
      "constant": true,
      "inputs": [],
      "name": "maxPerTx",
      "outputs": [
        {
          "name": "",
          "type": "uint256"
        }
      ],
      "payable": false,
      "stateMutability": "view",
      "type": "function"
    },
    {
      "constant": true,
      "inputs": [],
      "name": "gasPrice",
      "outputs": [
        {
          "name": "",
          "type": "uint256"
        }
      ],
      "payable": false,
      "stateMutability": "view",
      "type": "function"
    },
    {
      "anonymous": false,
      "inputs": [
        {
          "indexed": false,
          "name": "recipient",
          "type": "address"
        },
        {
          "indexed": false,
          "name": "value",
          "type": "uint256"
        },
        {
          "indexed": false,
          "name": "transactionHash",
          "type": "bytes32"
        }
      ],
      "name": "RelayedMessage",
      "type": "event"
    },
    {
      "anonymous": false,
      "inputs": [
        {
          "indexed": false,
          "name": "gasPrice",
          "type": "uint256"
        }
      ],
      "name": "GasPriceChanged",
      "type": "event"
    },
    {
      "anonymous": false,
      "inputs": [
        {
          "indexed": false,
          "name": "requiredBlockConfirmations",
          "type": "uint256"
        }
      ],
      "name": "RequiredBlockConfirmationChanged",
      "type": "event"
    },
    {
      "anonymous": false,
      "inputs": [
        {
          "indexed": false,
          "name": "newLimit",
          "type": "uint256"
        }
      ],
      "name": "DailyLimitChanged",
      "type": "event"
    },
    {
      "anonymous": false,
      "inputs": [
        {
          "indexed": false,
          "name": "newLimit",
          "type": "uint256"
        }
      ],
      "name": "ExecutionDailyLimitChanged",
      "type": "event"
    },
    {
      "anonymous": false,
      "inputs": [
        {
          "indexed": false,
          "name": "previousOwner",
          "type": "address"
        },
        {
          "indexed": false,
          "name": "newOwner",
          "type": "address"
        }
      ],
      "name": "OwnershipTransferred",
      "type": "event"
    },
    {
      "constant": false,
      "inputs": [
        {
          "name": "_validatorContract",
          "type": "address"
        },
        {
          "name": "_erc20token",
          "type": "address"
        },
        {
          "name": "_requiredBlockConfirmations",
          "type": "uint256"
        },
        {
          "name": "_gasPrice",
          "type": "uint256"
        },
        {
          "name": "_maxPerTx",
          "type": "uint256"
        },
        {
          "name": "_homeDailyLimit",
          "type": "uint256"
        },
        {
          "name": "_homeMaxPerTx",
          "type": "uint256"
        },
        {
          "name": "_owner",
          "type": "address"
        }
      ],
      "name": "initialize",
      "outputs": [
        {
          "name": "",
          "type": "bool"
        }
      ],
      "payable": false,
      "stateMutability": "nonpayable",
      "type": "function"
    },
    {
      "constant": true,
      "inputs": [],
      "name": "getBridgeMode",
      "outputs": [
        {
          "name": "_data",
          "type": "bytes4"
        }
      ],
      "payable": false,
      "stateMutability": "pure",
      "type": "function"
    },
    {
      "constant": false,
      "inputs": [
        {
          "name": "_token",
          "type": "address"
        },
        {
          "name": "_to",
          "type": "address"
        }
      ],
      "name": "claimTokens",
      "outputs": [],
      "payable": false,
      "stateMutability": "nonpayable",
      "type": "function"
    },
    {
      "constant": true,
      "inputs": [],
      "name": "erc20token",
      "outputs": [
        {
          "name": "",
          "type": "address"
        }
      ],
      "payable": false,
      "stateMutability": "view",
      "type": "function"
    }
  ],
  "bytecode": "0x608060405234801561001057600080fd5b506129d9806100206000396000f3006080604052600436106101875763ffffffff60e060020a6000350416631dcea427811461018c57806321d800ec146101bd578063232a2c1d146101e95780632aa2c3811461022f5780632bd0bb0514610270578063392e53cd1461029a5780633dd95d1b146102af5780633e6968b6146102c75780633f0a9f65146102dc578063437764df146102f157806343b37dd31461033b5780634fb3fef71461035057806367eeba0c1461036857806369ffa08a1461037d578063879ce676146103a45780638aa1949a146103bc5780638d068043146103d15780638da5cb5b146103e657806399439089146103fb5780639a454b99146104105780639cb7595a14610425578063a2a6ca2714610466578063acf5c6891461047e578063b20d30a914610496578063bf1fe420146104ae578063c6f6f216146104c6578063df0ad3de146104de578063df25f3f0146104f3578063ea9f496814610508578063f20151e114610520578063f2fde38b14610538578063f968adbe14610559578063fe173b971461056e575b600080fd5b34801561019857600080fd5b506101a1610583565b60408051600160a060020a039092168252519081900360200190f35b3480156101c957600080fd5b506101d5600435610641565b604080519115158252519081900360200190f35b3480156101f557600080fd5b5061022d602460048035828101929082013591813580830192908201359160443580830192908201359160643591820191013561070a565b005b34801561023b57600080fd5b506101d5600160a060020a0360043581169060243581169060443590606435906084359060a4359060c4359060e435166108e2565b34801561027c57600080fd5b50610288600435610e69565b60408051918252519081900360200190f35b3480156102a657600080fd5b506101d5610f26565b3480156102bb57600080fd5b5061022d600435610fde565b3480156102d357600080fd5b506102886110e0565b3480156102e857600080fd5b506102886110e9565b3480156102fd57600080fd5b5061030661119d565b604080517fffffffff000000000000000000000000000000000000000000000000000000009092168252519081900360200190f35b34801561034757600080fd5b50610288611240565b34801561035c57600080fd5b506102886004356112b3565b34801561037457600080fd5b5061028861132e565b34801561038957600080fd5b5061022d600160a060020a03600435811690602435166113a1565b3480156103b057600080fd5b506101d56004356113eb565b3480156103c857600080fd5b50610288611435565b3480156103dd57600080fd5b506102886114a8565b3480156103f257600080fd5b506101a1611520565b34801561040757600080fd5b506101a1611594565b34801561041c57600080fd5b50610288611608565b34801561043157600080fd5b5061043a61167b565b6040805167ffffffffffffffff9485168152928416602084015292168183015290519081900360600190f35b34801561047257600080fd5b5061022d600435611685565b34801561048a57600080fd5b5061022d60043561177c565b3480156104a257600080fd5b5061022d60043561188b565b3480156104ba57600080fd5b5061022d60043561198d565b3480156104d257600080fd5b5061022d600435611a9c565b3480156104ea57600080fd5b506101a1611b3d565b3480156104ff57600080fd5b50610288611b7d565b34801561051457600080fd5b506101d5600435611bf0565b34801561052c57600080fd5b5061022d600435611c40565b34801561054457600080fd5b5061022d600160a060020a0360043516611ce1565b34801561056557600080fd5b50610288611d1e565b34801561057a57600080fd5b50610288611d91565b60006002600060405160200180807f6572633230746f6b656e00000000000000000000000000000000000000000000815250600a0190506040516020818303038152906040526040518082805190602001908083835b602083106105f85780518252601f1990920191602091820191016105d9565b51815160209384036101000a6000190180199092169116179052604080519290940182900390912086528501959095529290920160002054600160a060020a0316949350505050565b6000600460008360405160200180807f72656c617965644d657373616765730000000000000000000000000000000000815250600f0182600019166000191681526020019150506040516020818303038152906040526040518082805190602001908083835b602083106106c65780518252601f1990920191602091820191016106a7565b51815160209384036101000a600019018019909216911617905260408051929094018290039091208652850195909552929092016000205460ff1695945050505050565b6000806000806107e286868080601f0160208091040260200160405190810160405280939291908181526020018383808284378201915050505050508d8d808060200260200160405190810160405280939291908181526020018383602002808284378201915050505050508c8c808060200260200160405190810160405280939291908181526020018383602002808284378201915050505050508b8b80806020026020016040519081016040528093929190818152602001838360200280828437506107dd94506115949350505050565b611e04565b61081b86868080601f01602080910402602001604051908101604052809392919081815260200183838082843750612071945050505050565b9296509094509250905061082e836120b7565b156108c957600160a060020a038116301461084857600080fd5b61085182610641565b1561085b57600080fd5b6108668260016120c8565b610870848461219a565b151561087b57600080fd5b60408051600160a060020a03861681526020810185905280820184905290517f4ab7d581336d92edbea22636a613e8e76c99ac7f91137c1523db38dbfb3bf3299181900360600190a16108d4565b6108d4848484610187565b505050505050505050505050565b60006108ec610f26565b156108f657600080fd5b600160a060020a03891615801590610912575061091289612258565b151561091d57600080fd5b86151561092957600080fd5b6000861161093657600080fd5b83831061094257600080fd5b600160a060020a038216151561095757600080fd5b886002600060405160200180807f76616c696461746f72436f6e747261637400000000000000000000000000000081525060110190506040516020818303038152906040526040518082805190602001908083835b602083106109cb5780518252601f1990920191602091820191016109ac565b51815160209384036101000a60001901801990921691161790526040805192909401829003909120865285019590955292909201600020805473ffffffffffffffffffffffffffffffffffffffff1916600160a060020a03959095169490941790935550610a3c9150899050612260565b4360008060405160200180807f6465706c6f7965644174426c6f636b0000000000000000000000000000000000815250600f0190506040516020818303038152906040526040518082805190602001908083835b60208310610aaf5780518252601f199092019160209182019101610a90565b51815160209384036101000a6000190180199092169116179052604080519290940182900390912086528581019690965250928301600090812095909555505080517f7265717569726564426c6f636b436f6e6669726d6174696f6e73000000000000818401528151601a818303018152603a9091019182905280518b949384939182918401908083835b60208310610b595780518252601f199092019160209182019101610b3a565b51815160209384036101000a6000190180199092169116179052604080519290940182900390912086528581019690965250928301600090812095909555505080517f6761735072696365000000000000000000000000000000000000000000000000818401528151600881830301815260289091019182905280518a949384939182918401908083835b60208310610c035780518252601f199092019160209182019101610be4565b51815160209384036101000a6000190180199092169116179052604080519290940182900390912086528581019690965250928301600090812095909555505080517f6d617850657254780000000000000000000000000000000000000000000000008184015281516008818303018152602890910191829052805189949384939182918401908083835b60208310610cad5780518252601f199092019160209182019101610c8e565b51815160209384036101000a6000190180199092169116179052604080519290940182900390912086528581019690965250928301600090812095909555505080517f657865637574696f6e4461696c794c696d6974000000000000000000000000008184015281516013818303018152603390910191829052805188949384939182918401908083835b60208310610d575780518252601f199092019160209182019101610d38565b51815160209384036101000a6000190180199092169116179052604080519290940182900390912086528581019690965250928301600090812095909555505080517f657865637574696f6e4d617850657254780000000000000000000000000000008184015281516011818303018152603190910191829052805187949384939182918401908083835b60208310610e015780518252601f199092019160209182019101610de2565b51815160209384036101000a600019018019909216911617905260408051929094018290039091208652850195909552929092016000209390935550610e4a9150839050612364565b610e546001612422565b610e5c610f26565b9998505050505050505050565b60008060008360405160200180807f746f74616c5370656e74506572446179000000000000000000000000000000008152506010018281526020019150506040516020818303038152906040526040518082805190602001908083835b60208310610ee55780518252601f199092019160209182019101610ec6565b51815160209384036101000a600019018019909216911617905260408051929094018290039091208652850195909552929092016000205495945050505050565b60006004600060405160200180807f6973496e697469616c697a656400000000000000000000000000000000000000815250600d0190506040516020818303038152906040526040518082805190602001908083835b60208310610f9b5780518252601f199092019160209182019101610f7c565b51815160209384036101000a600019018019909216911617905260408051929094018290039091208652850195909552929092016000205460ff16949350505050565b610fe6611520565b600160a060020a03163314610ffa57600080fd5b8060008060405160200180807f657865637574696f6e4461696c794c696d69740000000000000000000000000081525060130190506040516020818303038152906040526040518082805190602001908083835b6020831061106d5780518252601f19909201916020918201910161104e565b51815160001960209485036101000a019081169019919091161790526040805194909201849003909320865285830196909652509284016000209490945550815184815291517f9bebf928b90863f24cc31f726a3a7545efd409f1dcf552301b1ee3710da70d3b9350918290030190a150565b62015180420490565b600080600060405160200180807f7265717569726564426c6f636b436f6e6669726d6174696f6e73000000000000815250601a0190506040516020818303038152906040526040518082805190602001908083835b6020831061115d5780518252601f19909201916020918201910161113e565b51815160209384036101000a6000190180199092169116179052604080519290940182900390912086528501959095529290920160002054949350505050565b600060405160200180807f6572632d746f2d6572632d636f72650000000000000000000000000000000000815250600f0190506040516020818303038152906040526040518082805190602001908083835b6020831061120e5780518252601f1990920191602091820191016111ef565b6001836020036101000a0380198251168184511680821785525050505050509050019150506040518091039020905090565b600080600060405160200180807f657865637574696f6e4461696c794c696d69740000000000000000000000000081525060130190506040516020818303038152906040526040518082805190602001908083836020831061115d5780518252601f19909201916020918201910161113e565b60008060008360405160200180807f746f74616c45786563757465645065724461790000000000000000000000000081525060130182815260200191505060405160208183030381529060405260405180828051906020019080838360208310610ee55780518252601f199092019160209182019101610ec6565b600080600060405160200180807f6461696c794c696d697400000000000000000000000000000000000000000000815250600a0190506040516020818303038152906040526040518082805190602001908083836020831061115d5780518252601f19909201916020918201910161113e565b6113a9611b3d565b600160a060020a031633146113bd57600080fd5b6113c5610583565b600160a060020a03838116911614156113dd57600080fd5b6113e782826124e3565b5050565b60008061140e836114026113fd6110e0565b6112b3565b9063ffffffff61269f16565b905080611419611240565b1015801561142e575061142a611435565b8311155b9392505050565b600080600060405160200180807f657865637574696f6e4d6178506572547800000000000000000000000000000081525060110190506040516020818303038152906040526040518082805190602001908083836020831061115d5780518252601f19909201916020918201910161113e565b60006114b2611594565b600160a060020a0316638d0680436040518163ffffffff1660e060020a028152600401602060405180830381600087803b1580156114ef57600080fd5b505af1158015611503573d6000803e3d6000fd5b505050506040513d602081101561151957600080fd5b5051905090565b60006002600060405160200180807f6f776e65720000000000000000000000000000000000000000000000000000008152506005019050604051602081830303815290604052604051808280519060200190808383602083106105f85780518252601f1990920191602091820191016105d9565b60006002600060405160200180807f76616c696461746f72436f6e74726163740000000000000000000000000000008152506011019050604051602081830303815290604052604051808280519060200190808383602083106105f85780518252601f1990920191602091820191016105d9565b600080600060405160200180807f6465706c6f7965644174426c6f636b0000000000000000000000000000000000815250600f0190506040516020818303038152906040526040518082805190602001908083836020831061115d5780518252601f19909201916020918201910161113e565b6002806000909192565b61168d611520565b600160a060020a031633146116a157600080fd5b6116a961132e565b811080156116bd57506116ba611d1e565b81105b15156116c857600080fd5b8060008060405160200180807f6d696e506572547800000000000000000000000000000000000000000000000081525060080190506040516020818303038152906040526040518082805190602001908083835b6020831061173b5780518252601f19909201916020918201910161171c565b51815160209384036101000a600019018019909216911617905260408051929094018290039091208652850195909552929092016000209390935550505050565b611784611520565b600160a060020a0316331461179857600080fd5b600081116117a557600080fd5b8060008060405160200180807f7265717569726564426c6f636b436f6e6669726d6174696f6e73000000000000815250601a0190506040516020818303038152906040526040518082805190602001908083835b602083106118185780518252601f1990920191602091820191016117f9565b51815160001960209485036101000a019081169019919091161790526040805194909201849003909320865285830196909652509284016000209490945550815184815291517f4fb76205cd57c896b21511d2114137d8e901b4ccd659e1a0f97d6306795264fb9350918290030190a150565b611893611520565b600160a060020a031633146118a757600080fd5b8060008060405160200180807f6461696c794c696d697400000000000000000000000000000000000000000000815250600a0190506040516020818303038152906040526040518082805190602001908083835b6020831061191a5780518252601f1990920191602091820191016118fb565b51815160001960209485036101000a019081169019919091161790526040805194909201849003909320865285830196909652509284016000209490945550815184815291517fad4123ae17c414d9c6d2fec478b402e6b01856cc250fd01fbfd252fda0089d3c9350918290030190a150565b611995611520565b600160a060020a031633146119a957600080fd5b600081116119b657600080fd5b8060008060405160200180807f676173507269636500000000000000000000000000000000000000000000000081525060080190506040516020818303038152906040526040518082805190602001908083835b60208310611a295780518252601f199092019160209182019101611a0a565b51815160001960209485036101000a019081169019919091161790526040805194909201849003909320865285830196909652509284016000209490945550815184815291517f52264b89e0fceafb26e79fd49ef8a366eb6297483bf4035b027f0c99a7ad512e9350918290030190a150565b611aa4611520565b600160a060020a03163314611ab857600080fd5b611ac061132e565b8110611acb57600080fd5b8060008060405160200180807f6d6178506572547800000000000000000000000000000000000000000000000081525060080190506040516020818303038152906040526040518082805190602001908083836020831061173b5780518252601f19909201916020918201910161171c565b600030600160a060020a031663025313a26040518163ffffffff1660e060020a028152600401602060405180830381600087803b1580156114ef57600080fd5b600080600060405160200180807f6d696e506572547800000000000000000000000000000000000000000000000081525060080190506040516020818303038152906040526040518082805190602001908083836020831061115d5780518252601f19909201916020918201910161113e565b600080611c0783611402611c026110e0565b610e69565b905080611c1261132e565b10158015611c275750611c23611d1e565b8311155b801561142e5750611c36611b7d565b9092101592915050565b611c48611520565b600160a060020a03163314611c5c57600080fd5b611c64611240565b8110611c6f57600080fd5b8060008060405160200180807f657865637574696f6e4d6178506572547800000000000000000000000000000081525060110190506040516020818303038152906040526040518082805190602001908083836020831061173b5780518252601f19909201916020918201910161171c565b611ce9611520565b600160a060020a03163314611cfd57600080fd5b600160a060020a0381161515611d1257600080fd5b611d1b81612364565b50565b600080600060405160200180807f6d6178506572547800000000000000000000000000000000000000000000000081525060080190506040516020818303038152906040526040518082805190602001908083836020831061115d5780518252601f19909201916020918201910161113e565b600080600060405160200180807f676173507269636500000000000000000000000000000000000000000000000081525060080190506040516020818303038152906040526040518082805190602001908083836020831061115d5780518252601f19909201916020918201910161113e565b6000806060600080611e158a6126b9565b1515611e2057600080fd5b85600160a060020a0316638d0680436040518163ffffffff1660e060020a028152600401602060405180830381600087803b158015611e5e57600080fd5b505af1158015611e72573d6000803e3d6000fd5b505050506040513d6020811015611e8857600080fd5b50518951909550851115611e9b57600080fd5b611ea48a6126cd565b935084604051908082528060200260200182016040528015611ed0578160200160208202803883390190505b509250600091505b84821015612065576001848a84815181101515611ef157fe5b906020019060200201518a85815181101515611f0957fe5b906020019060200201518a86815181101515611f2157fe5b60209081029091018101516040805160008082528185018084529790975260ff9095168582015260608501939093526080840152905160a0808401949293601f19830193908390039091019190865af1158015611f82573d6000803e3d6000fd5b50505060206040510351905085600160a060020a031663facd743b826040518263ffffffff1660e060020a0281526004018082600160a060020a0316600160a060020a03168152602001915050602060405180830381600087803b158015611fe957600080fd5b505af1158015611ffd573d6000803e3d6000fd5b505050506040513d602081101561201357600080fd5b5051151561202057600080fd5b61202a8382612892565b1561203457600080fd5b80838381518110151561204357fe5b600160a060020a03909216602092830290910190910152600190910190611ed8565b50505050505050505050565b600080600080612080856126b9565b151561208b57600080fd5b600160a060020a0360148601511693506034850151925060548501519150606885015190509193509193565b60006120c2826113eb565b92915050565b80600460008460405160200180807f72656c617965644d657373616765730000000000000000000000000000000000815250600f0182600019166000191681526020019150506040516020818303038152906040526040518082805190602001908083835b6020831061214c5780518252601f19909201916020918201910161212d565b51815160209384036101000a60001901801990921691161790526040805192909401829003909120865285019590955292909201600020805460ff1916941515949094179093555050505050565b60006121bb6121a76110e0565b6121b6846114026113fd6110e0565b6128eb565b6121c3610583565b600160a060020a031663a9059cbb84846040518363ffffffff1660e060020a0281526004018083600160a060020a0316600160a060020a0316815260200182815260200192505050602060405180830381600087803b15801561222557600080fd5b505af1158015612239573d6000803e3d6000fd5b505050506040513d602081101561224f57600080fd5b50519392505050565b6000903b1190565b600160a060020a0381161580159061227c575061227c81612258565b151561228757600080fd5b806002600060405160200180807f6572633230746f6b656e00000000000000000000000000000000000000000000815250600a0190506040516020818303038152906040526040518082805190602001908083835b602083106122fb5780518252601f1990920191602091820191016122dc565b51815160209384036101000a60001901801990921691161790526040805192909401829003909120865285019590955292909201600020805473ffffffffffffffffffffffffffffffffffffffff1916600160a060020a03959095169490941790935550505050565b7f8be0079c531659141344cd1fd0a4f28419497f9722a3daafe3b4186f6b6457e061238d611520565b60408051600160a060020a03928316815291841660208301528051918290030190a1806002600060405160200180807f6f776e65720000000000000000000000000000000000000000000000000000008152506005019050604051602081830303815290604052604051808280519060200190808383602083106122fb5780518252601f1990920191602091820191016122dc565b806004600060405160200180807f6973496e697469616c697a656400000000000000000000000000000000000000815250600d0190506040516020818303038152906040526040518082805190602001908083835b602083106124965780518252601f199092019160209182019101612477565b51815160209384036101000a60001901801990921691161790526040805192909401829003909120865285019590955292909201600020805460ff19169415159490941790935550505050565b6000806124ee611b3d565b600160a060020a0316331461250257600080fd5b600160a060020a038316151561251757600080fd5b600160a060020a038416151561256357604051600160a060020a03841690303180156108fc02916000818181858888f1935050505015801561255d573d6000803e3d6000fd5b50612699565b604080517f70a082310000000000000000000000000000000000000000000000000000000081523060048201529051859350600160a060020a038416916370a082319160248083019260209291908290030181600087803b1580156125c757600080fd5b505af11580156125db573d6000803e3d6000fd5b505050506040513d60208110156125f157600080fd5b5051604080517fa9059cbb000000000000000000000000000000000000000000000000000000008152600160a060020a0386811660048301526024820184905291519293509084169163a9059cbb916044808201926020929091908290030181600087803b15801561266257600080fd5b505af1158015612676573d6000803e3d6000fd5b505050506040513d602081101561268c57600080fd5b5051151561269957600080fd5b50505050565b6000828201838110156126ae57fe5b8091505b5092915050565b60006126c36129a8565b8251149050919050565b604080518082018252601a81527f19457468657265756d205369676e6564204d6573736167653a0a000000000000602080830191825283518085018552600381527f313034000000000000000000000000000000000000000000000000000000000081830152935183516000959385938593899391019182918083835b602083106127695780518252601f19909201916020918201910161274a565b51815160209384036101000a600019018019909216911617905286519190930192860191508083835b602083106127b15780518252601f199092019160209182019101612792565b51815160209384036101000a600019018019909216911617905285519190930192850191508083835b602083106127f95780518252601f1990920191602091820191016127da565b6001836020036101000a03801982511681845116808217855250505050505090500193505050506040516020818303038152906040526040518082805190602001908083835b6020831061285e5780518252601f19909201916020918201910161283f565b5181516020939093036101000a60001901801990911692169190911790526040519201829003909120979650505050505050565b6000805b83518110156128e15782600160a060020a031684828151811015156128b757fe5b90602001906020020151600160a060020a031614156128d957600191506126b2565b600101612896565b5060009392505050565b806000808460405160200180807f746f74616c4578656375746564506572446179000000000000000000000000008152506013018281526020019150506040516020818303038152906040526040518082805190602001908083835b602083106129665780518252601f199092019160209182019101612947565b51815160209384036101000a60001901801990921691161790526040805192909401829003909120865285019590955292909201600020939093555050505050565b6068905600a165627a7a723058207e47dadb5f24b447d09dccb23e893130866df4ec99aa76e09068c939173a9c400029",
  "source": "pragma solidity 0.4.24;\nimport \"../../libraries/SafeMath.sol\";\nimport \"../../libraries/Message.sol\";\nimport \"../BasicBridge.sol\";\nimport \"../BasicForeignBridge.sol\";\nimport \"../../IBurnableMintableERC677Token.sol\";\nimport \"../../ERC677Receiver.sol\";\nimport \"openzeppelin-solidity/contracts/token/ERC20/ERC20Basic.sol\";\n\n\ncontract ForeignBridgeErcToErc is BasicBridge, BasicForeignBridge {\n\n    event RelayedMessage(address recipient, uint value, bytes32 transactionHash);\n\n    function initialize(\n        address _validatorContract,\n        address _erc20token,\n        uint256 _requiredBlockConfirmations,\n        uint256 _gasPrice,\n        uint256 _maxPerTx,\n        uint256 _homeDailyLimit,\n        uint256 _homeMaxPerTx,\n        address _owner\n    ) public returns(bool) {\n        require(!isInitialized());\n        require(_validatorContract != address(0) && isContract(_validatorContract));\n        require(_requiredBlockConfirmations != 0);\n        require(_gasPrice > 0);\n        require(_homeMaxPerTx < _homeDailyLimit);\n        require(_owner != address(0));\n        addressStorage[keccak256(abi.encodePacked(\"validatorContract\"))] = _validatorContract;\n        setErc20token(_erc20token);\n        uintStorage[keccak256(abi.encodePacked(\"deployedAtBlock\"))] = block.number;\n        uintStorage[keccak256(abi.encodePacked(\"requiredBlockConfirmations\"))] = _requiredBlockConfirmations;\n        uintStorage[keccak256(abi.encodePacked(\"gasPrice\"))] = _gasPrice;\n        uintStorage[keccak256(abi.encodePacked(\"maxPerTx\"))] = _maxPerTx;\n        uintStorage[keccak256(abi.encodePacked(\"executionDailyLimit\"))] = _homeDailyLimit;\n        uintStorage[keccak256(abi.encodePacked(\"executionMaxPerTx\"))] = _homeMaxPerTx;\n        setOwner(_owner);\n        setInitialize(true);\n        return isInitialized();\n    }\n\n    function getBridgeMode() public pure returns(bytes4 _data) {\n        return bytes4(keccak256(abi.encodePacked(\"erc-to-erc-core\")));\n    }\n\n    function claimTokens(address _token, address _to) public onlyIfOwnerOfProxy {\n        require(_token != address(erc20token()));\n        super.claimTokens(_token, _to);\n    }\n\n    function erc20token() public view returns(ERC20Basic) {\n        return ERC20Basic(addressStorage[keccak256(abi.encodePacked(\"erc20token\"))]);\n    }\n\n    function onExecuteMessage(address _recipient, uint256 _amount) internal returns(bool){\n        setTotalExecutedPerDay(getCurrentDay(), totalExecutedPerDay(getCurrentDay()).add(_amount));\n        return erc20token().transfer(_recipient, _amount);\n    }\n\n    function setErc20token(address _token) private {\n        require(_token != address(0) && isContract(_token));\n        addressStorage[keccak256(abi.encodePacked(\"erc20token\"))] = _token;\n    }\n\n    function messageWithinLimits(uint256 _amount) internal view returns(bool) {\n        return withinExecutionLimit(_amount);\n    }\n\n    function onFailedMessage(address, uint256, bytes32) internal {\n        revert();\n    }\n}\n",
  "sourcePath": "/contracts/contracts/upgradeable_contracts/erc20_to_erc20/ForeignBridgeErcToErc.sol",
  "compiler": {
    "name": "solc",
    "version": "0.4.24+commit.e67f0147.Emscripten.clang"
  },
  "schemaVersion": "2.0.0",
  "updatedAt": "2019-02-27T05:38:44.534Z"
}