{
  "contractName": "HomeBridgeNativeToErc",
  "abi": [
    {
      "constant": true,
      "inputs": [
        {
          "name": "_message",
          "type": "bytes32"
        }
      ],
      "name": "numMessagesSigned",
      "outputs": [
        {
          "name": "",
          "type": "uint256"
        }
      ],
      "payable": false,
      "stateMutability": "view",
      "type": "function"
    },
    {
      "constant": true,
      "inputs": [
        {
          "name": "_hash",
          "type": "bytes32"
        },
        {
          "name": "_index",
          "type": "uint256"
        }
      ],
      "name": "signature",
      "outputs": [
        {
          "name": "",
          "type": "bytes"
        }
      ],
      "payable": false,
      "stateMutability": "view",
      "type": "function"
    },
    {
      "constant": true,
      "inputs": [
        {
          "name": "_day",
          "type": "uint256"
        }
      ],
      "name": "totalSpentPerDay",
      "outputs": [
        {
          "name": "",
          "type": "uint256"
        }
      ],
      "payable": false,
      "stateMutability": "view",
      "type": "function"
    },
    {
      "constant": true,
      "inputs": [],
      "name": "isInitialized",
      "outputs": [
        {
          "name": "",
          "type": "bool"
        }
      ],
      "payable": false,
      "stateMutability": "view",
      "type": "function"
    },
    {
      "constant": false,
      "inputs": [
        {
          "name": "_dailyLimit",
          "type": "uint256"
        }
      ],
      "name": "setExecutionDailyLimit",
      "outputs": [],
      "payable": false,
      "stateMutability": "nonpayable",
      "type": "function"
    },
    {
      "constant": true,
      "inputs": [],
      "name": "getCurrentDay",
      "outputs": [
        {
          "name": "",
          "type": "uint256"
        }
      ],
      "payable": false,
      "stateMutability": "view",
      "type": "function"
    },
    {
      "constant": true,
      "inputs": [],
      "name": "requiredBlockConfirmations",
      "outputs": [
        {
          "name": "",
          "type": "uint256"
        }
      ],
      "payable": false,
      "stateMutability": "view",
      "type": "function"
    },
    {
      "constant": true,
      "inputs": [],
      "name": "requiredMessageLength",
      "outputs": [
        {
          "name": "",
          "type": "uint256"
        }
      ],
      "payable": false,
      "stateMutability": "pure",
      "type": "function"
    },
    {
      "constant": true,
      "inputs": [],
      "name": "executionDailyLimit",
      "outputs": [
        {
          "name": "",
          "type": "uint256"
        }
      ],
      "payable": false,
      "stateMutability": "view",
      "type": "function"
    },
    {
      "constant": true,
      "inputs": [
        {
          "name": "_hash",
          "type": "bytes32"
        }
      ],
      "name": "message",
      "outputs": [
        {
          "name": "",
          "type": "bytes"
        }
      ],
      "payable": false,
      "stateMutability": "view",
      "type": "function"
    },
    {
      "constant": true,
      "inputs": [
        {
          "name": "_day",
          "type": "uint256"
        }
      ],
      "name": "totalExecutedPerDay",
      "outputs": [
        {
          "name": "",
          "type": "uint256"
        }
      ],
      "payable": false,
      "stateMutability": "view",
      "type": "function"
    },
    {
      "constant": false,
      "inputs": [
        {
          "name": "signature",
          "type": "bytes"
        },
        {
          "name": "message",
          "type": "bytes"
        }
      ],
      "name": "submitSignature",
      "outputs": [],
      "payable": false,
      "stateMutability": "nonpayable",
      "type": "function"
    },
    {
      "constant": true,
      "inputs": [],
      "name": "dailyLimit",
      "outputs": [
        {
          "name": "",
          "type": "uint256"
        }
      ],
      "payable": false,
      "stateMutability": "view",
      "type": "function"
    },
    {
      "constant": false,
      "inputs": [
        {
          "name": "_token",
          "type": "address"
        },
        {
          "name": "_to",
          "type": "address"
        }
      ],
      "name": "claimTokens",
      "outputs": [],
      "payable": false,
      "stateMutability": "nonpayable",
      "type": "function"
    },
    {
      "constant": true,
      "inputs": [
        {
          "name": "_withdrawal",
          "type": "bytes32"
        }
      ],
      "name": "numAffirmationsSigned",
      "outputs": [
        {
          "name": "",
          "type": "uint256"
        }
      ],
      "payable": false,
      "stateMutability": "view",
      "type": "function"
    },
    {
      "constant": true,
      "inputs": [
        {
          "name": "_withdrawal",
          "type": "bytes32"
        }
      ],
      "name": "affirmationsSigned",
      "outputs": [
        {
          "name": "",
          "type": "bool"
        }
      ],
      "payable": false,
      "stateMutability": "view",
      "type": "function"
    },
    {
      "constant": true,
      "inputs": [
        {
          "name": "_amount",
          "type": "uint256"
        }
      ],
      "name": "withinExecutionLimit",
      "outputs": [
        {
          "name": "",
          "type": "bool"
        }
      ],
      "payable": false,
      "stateMutability": "view",
      "type": "function"
    },
    {
      "constant": true,
      "inputs": [],
      "name": "executionMaxPerTx",
      "outputs": [
        {
          "name": "",
          "type": "uint256"
        }
      ],
      "payable": false,
      "stateMutability": "view",
      "type": "function"
    },
    {
      "constant": true,
      "inputs": [],
      "name": "requiredSignatures",
      "outputs": [
        {
          "name": "",
          "type": "uint256"
        }
      ],
      "payable": false,
      "stateMutability": "view",
      "type": "function"
    },
    {
      "constant": true,
      "inputs": [],
      "name": "owner",
      "outputs": [
        {
          "name": "",
          "type": "address"
        }
      ],
      "payable": false,
      "stateMutability": "view",
      "type": "function"
    },
    {
      "constant": true,
      "inputs": [
        {
          "name": "_message",
          "type": "bytes32"
        }
      ],
      "name": "messagesSigned",
      "outputs": [
        {
          "name": "",
          "type": "bool"
        }
      ],
      "payable": false,
      "stateMutability": "view",
      "type": "function"
    },
    {
      "constant": true,
      "inputs": [],
      "name": "validatorContract",
      "outputs": [
        {
          "name": "",
          "type": "address"
        }
      ],
      "payable": false,
      "stateMutability": "view",
      "type": "function"
    },
    {
      "constant": false,
      "inputs": [
        {
          "name": "recipient",
          "type": "address"
        },
        {
          "name": "value",
          "type": "uint256"
        },
        {
          "name": "transactionHash",
          "type": "bytes32"
        }
      ],
      "name": "executeAffirmation",
      "outputs": [],
      "payable": false,
      "stateMutability": "nonpayable",
      "type": "function"
    },
    {
      "constant": true,
      "inputs": [],
      "name": "deployedAtBlock",
      "outputs": [
        {
          "name": "",
          "type": "uint256"
        }
      ],
      "payable": false,
      "stateMutability": "view",
      "type": "function"
    },
    {
      "constant": true,
      "inputs": [],
      "name": "getBridgeInterfacesVersion",
      "outputs": [
        {
          "name": "major",
          "type": "uint64"
        },
        {
          "name": "minor",
          "type": "uint64"
        },
        {
          "name": "patch",
          "type": "uint64"
        }
      ],
      "payable": false,
      "stateMutability": "pure",
      "type": "function"
    },
    {
      "constant": false,
      "inputs": [
        {
          "name": "_minPerTx",
          "type": "uint256"
        }
      ],
      "name": "setMinPerTx",
      "outputs": [],
      "payable": false,
      "stateMutability": "nonpayable",
      "type": "function"
    },
    {
      "constant": false,
      "inputs": [
        {
          "name": "_blockConfirmations",
          "type": "uint256"
        }
      ],
      "name": "setRequiredBlockConfirmations",
      "outputs": [],
      "payable": false,
      "stateMutability": "nonpayable",
      "type": "function"
    },
    {
      "constant": false,
      "inputs": [
        {
          "name": "_dailyLimit",
          "type": "uint256"
        }
      ],
      "name": "setDailyLimit",
      "outputs": [],
      "payable": false,
      "stateMutability": "nonpayable",
      "type": "function"
    },
    {
      "constant": false,
      "inputs": [
        {
          "name": "_gasPrice",
          "type": "uint256"
        }
      ],
      "name": "setGasPrice",
      "outputs": [],
      "payable": false,
      "stateMutability": "nonpayable",
      "type": "function"
    },
    {
      "constant": false,
      "inputs": [
        {
          "name": "_maxPerTx",
          "type": "uint256"
        }
      ],
      "name": "setMaxPerTx",
      "outputs": [],
      "payable": false,
      "stateMutability": "nonpayable",
      "type": "function"
    },
    {
      "constant": true,
      "inputs": [],
      "name": "upgradeabilityAdmin",
      "outputs": [
        {
          "name": "",
          "type": "address"
        }
      ],
      "payable": false,
      "stateMutability": "view",
      "type": "function"
    },
    {
      "constant": true,
      "inputs": [],
      "name": "minPerTx",
      "outputs": [
        {
          "name": "",
          "type": "uint256"
        }
      ],
      "payable": false,
      "stateMutability": "view",
      "type": "function"
    },
    {
      "constant": true,
      "inputs": [
        {
          "name": "_amount",
          "type": "uint256"
        }
      ],
      "name": "withinLimit",
      "outputs": [
        {
          "name": "",
          "type": "bool"
        }
      ],
      "payable": false,
      "stateMutability": "view",
      "type": "function"
    },
    {
      "constant": false,
      "inputs": [
        {
          "name": "_maxPerTx",
          "type": "uint256"
        }
      ],
      "name": "setExecutionMaxPerTx",
      "outputs": [],
      "payable": false,
      "stateMutability": "nonpayable",
      "type": "function"
    },
    {
      "constant": false,
      "inputs": [
        {
          "name": "newOwner",
          "type": "address"
        }
      ],
      "name": "transferOwnership",
      "outputs": [],
      "payable": false,
      "stateMutability": "nonpayable",
      "type": "function"
    },
    {
      "constant": true,
      "inputs": [],
      "name": "maxPerTx",
      "outputs": [
        {
          "name": "",
          "type": "uint256"
        }
      ],
      "payable": false,
      "stateMutability": "view",
      "type": "function"
    },
    {
      "constant": true,
      "inputs": [],
      "name": "gasPrice",
      "outputs": [
        {
          "name": "",
          "type": "uint256"
        }
      ],
      "payable": false,
      "stateMutability": "view",
      "type": "function"
    },
    {
      "constant": true,
      "inputs": [
        {
          "name": "_number",
          "type": "uint256"
        }
      ],
      "name": "isAlreadyProcessed",
      "outputs": [
        {
          "name": "",
          "type": "bool"
        }
      ],
      "payable": false,
      "stateMutability": "pure",
      "type": "function"
    },
    {
      "payable": true,
      "stateMutability": "payable",
      "type": "fallback"
    },
    {
      "anonymous": false,
      "inputs": [
        {
          "indexed": false,
          "name": "recipient",
          "type": "address"
        },
        {
          "indexed": false,
          "name": "value",
          "type": "uint256"
        }
      ],
      "name": "UserRequestForSignature",
      "type": "event"
    },
    {
      "anonymous": false,
      "inputs": [
        {
          "indexed": false,
          "name": "recipient",
          "type": "address"
        },
        {
          "indexed": false,
          "name": "value",
          "type": "uint256"
        },
        {
          "indexed": false,
          "name": "transactionHash",
          "type": "bytes32"
        }
      ],
      "name": "AffirmationCompleted",
      "type": "event"
    },
    {
      "anonymous": false,
      "inputs": [
        {
          "indexed": true,
          "name": "signer",
          "type": "address"
        },
        {
          "indexed": false,
          "name": "messageHash",
          "type": "bytes32"
        }
      ],
      "name": "SignedForUserRequest",
      "type": "event"
    },
    {
      "anonymous": false,
      "inputs": [
        {
          "indexed": true,
          "name": "signer",
          "type": "address"
        },
        {
          "indexed": false,
          "name": "transactionHash",
          "type": "bytes32"
        }
      ],
      "name": "SignedForAffirmation",
      "type": "event"
    },
    {
      "anonymous": false,
      "inputs": [
        {
          "indexed": false,
          "name": "authorityResponsibleForRelay",
          "type": "address"
        },
        {
          "indexed": false,
          "name": "messageHash",
          "type": "bytes32"
        },
        {
          "indexed": false,
          "name": "NumberOfCollectedSignatures",
          "type": "uint256"
        }
      ],
      "name": "CollectedSignatures",
      "type": "event"
    },
    {
      "anonymous": false,
      "inputs": [
        {
          "indexed": false,
          "name": "gasPrice",
          "type": "uint256"
        }
      ],
      "name": "GasPriceChanged",
      "type": "event"
    },
    {
      "anonymous": false,
      "inputs": [
        {
          "indexed": false,
          "name": "requiredBlockConfirmations",
          "type": "uint256"
        }
      ],
      "name": "RequiredBlockConfirmationChanged",
      "type": "event"
    },
    {
      "anonymous": false,
      "inputs": [
        {
          "indexed": false,
          "name": "newLimit",
          "type": "uint256"
        }
      ],
      "name": "DailyLimitChanged",
      "type": "event"
    },
    {
      "anonymous": false,
      "inputs": [
        {
          "indexed": false,
          "name": "newLimit",
          "type": "uint256"
        }
      ],
      "name": "ExecutionDailyLimitChanged",
      "type": "event"
    },
    {
      "anonymous": false,
      "inputs": [
        {
          "indexed": false,
          "name": "previousOwner",
          "type": "address"
        },
        {
          "indexed": false,
          "name": "newOwner",
          "type": "address"
        }
      ],
      "name": "OwnershipTransferred",
      "type": "event"
    },
    {
      "constant": false,
      "inputs": [
        {
          "name": "_validatorContract",
          "type": "address"
        },
        {
          "name": "_dailyLimit",
          "type": "uint256"
        },
        {
          "name": "_maxPerTx",
          "type": "uint256"
        },
        {
          "name": "_minPerTx",
          "type": "uint256"
        },
        {
          "name": "_homeGasPrice",
          "type": "uint256"
        },
        {
          "name": "_requiredBlockConfirmations",
          "type": "uint256"
        },
        {
          "name": "_foreignDailyLimit",
          "type": "uint256"
        },
        {
          "name": "_foreignMaxPerTx",
          "type": "uint256"
        },
        {
          "name": "_owner",
          "type": "address"
        }
      ],
      "name": "initialize",
      "outputs": [
        {
          "name": "",
          "type": "bool"
        }
      ],
      "payable": false,
      "stateMutability": "nonpayable",
      "type": "function"
    },
    {
      "constant": true,
      "inputs": [],
      "name": "getBridgeMode",
      "outputs": [
        {
          "name": "_data",
          "type": "bytes4"
        }
      ],
      "payable": false,
      "stateMutability": "pure",
      "type": "function"
    }
  ],
  "bytecode": "0x608060405234801561001057600080fd5b5061375d806100206000396000f3006080604052600436106101d45763ffffffff60e060020a6000350416630cbf0601811461026c5780631812d996146102965780632bd0bb0514610326578063392e53cd1461033e5780633dd95d1b146103675780633e6968b6146103815780633f0a9f6514610396578063408fef2e146103ab578063437764df146103c057806343b37dd31461040a578063490a32c61461041f5780634fb3fef714610437578063620b3f9b1461044f578063630cea8e1461049357806367eeba0c146104bf57806369ffa08a146104d45780636ae1a976146104fb5780637698da2414610513578063879ce6761461052b5780638aa1949a146105435780638d068043146105585780638da5cb5b1461056d5780638f4b4b981461059e57806399439089146105b6578063995b2cff146105cb5780639a454b99146105f25780639cb7595a14610607578063a2a6ca2714610648578063acf5c68914610660578063b20d30a914610678578063bf1fe42014610690578063c6f6f216146106a8578063df0ad3de146106c0578063df25f3f0146106d5578063ea9f4968146106ea578063f20151e114610702578063f2fde38b1461071a578063f968adbe1461073b578063fe173b9714610750578063ffd19e8c14610765575b600034116101e157600080fd5b36156101ec57600080fd5b6101f53461077d565b151561020057600080fd5b61023061020b6107c9565b61022b3461021f61021a6107c9565b6107d3565b9063ffffffff61089016565b61089f565b6040805133815234602082015281517f127650bcfb0ba017401abe4931453a405140a8fd36fece67bae2db174d3fdd63929181900390910190a1005b34801561027857600080fd5b5061028460043561095c565b60408051918252519081900360200190f35b3480156102a257600080fd5b506102b16004356024356109df565b6040805160208082528351818301528351919283929083019185019080838360005b838110156102eb5781810151838201526020016102d3565b50505050905090810190601f1680156103185780820380516001836020036101000a031916815260200191505b509250505060405180910390f35b34801561033257600080fd5b506102846004356107d3565b34801561034a57600080fd5b50610353610a76565b604080519115158252519081900360200190f35b34801561037357600080fd5b5061037f600435610b2e565b005b34801561038d57600080fd5b506102846107c9565b3480156103a257600080fd5b50610284610c30565b3480156103b757600080fd5b50610284610ce4565b3480156103cc57600080fd5b506103d5610cf3565b604080517fffffffff000000000000000000000000000000000000000000000000000000009092168252519081900360200190f35b34801561041657600080fd5b50610284610d96565b34801561042b57600080fd5b506102b1600435610e09565b34801561044357600080fd5b50610284600435610e1a565b34801561045b57600080fd5b50610353600160a060020a036004358116906024359060443590606435906084359060a4359060c4359060e435906101043516610e95565b34801561049f57600080fd5b5061037f6024600480358281019290820135918135918201910135611585565b3480156104cb57600080fd5b506102846119e0565b3480156104e057600080fd5b5061037f600160a060020a0360043581169060243516611a53565b34801561050757600080fd5b50610284600435611c0f565b34801561051f57600080fd5b50610353600435611c92565b34801561053757600080fd5b50610353600435611d5b565b34801561054f57600080fd5b50610284611d98565b34801561056457600080fd5b50610284611e0b565b34801561057957600080fd5b50610582611e83565b60408051600160a060020a039092168252519081900360200190f35b3480156105aa57600080fd5b50610353600435611f41565b3480156105c257600080fd5b50610582611fc5565b3480156105d757600080fd5b5061037f600160a060020a0360043516602435604435612039565b3480156105fe57600080fd5b50610284612329565b34801561061357600080fd5b5061061c61239c565b6040805167ffffffffffffffff9485168152928416602084015292168183015290519081900360600190f35b34801561065457600080fd5b5061037f6004356123a6565b34801561066c57600080fd5b5061037f60043561249d565b34801561068457600080fd5b5061037f6004356125ac565b34801561069c57600080fd5b5061037f6004356126ae565b3480156106b457600080fd5b5061037f6004356127bd565b3480156106cc57600080fd5b5061058261285e565b3480156106e157600080fd5b5061028461289e565b3480156106f657600080fd5b5061035360043561077d565b34801561070e57600080fd5b5061037f600435612911565b34801561072657600080fd5b5061037f600160a060020a03600435166129b2565b34801561074757600080fd5b506102846129ef565b34801561075c57600080fd5b50610284612a62565b34801561077157600080fd5b50610353600435612ad5565b60008061078f8361021f61021a6107c9565b90508061079a6119e0565b101580156107af57506107ab6129ef565b8311155b80156107c257506107be61289e565b8310155b9392505050565b6201518042045b90565b60008060008360405160200180807f746f74616c5370656e74506572446179000000000000000000000000000000008152506010018281526020019150506040516020818303038152906040526040518082805190602001908083835b6020831061084f5780518252601f199092019160209182019101610830565b51815160209384036101000a600019018019909216911617905260408051929094018290039091208652850195909552929092016000205495945050505050565b6000828201838110156107c257fe5b806000808460405160200180807f746f74616c5370656e74506572446179000000000000000000000000000000008152506010018281526020019150506040516020818303038152906040526040518082805190602001908083835b6020831061091a5780518252601f1990920191602091820191016108fb565b51815160209384036101000a60001901801990921691161790526040805192909401829003909120865285019590955292909201600020939093555050505050565b60008060008360405160200180807f6e756d4d657373616765735369676e656400000000000000000000000000000081525060110182600019166000191681526020019150506040516020818303038152906040526040518082805190602001908083836020831061084f5780518252601f199092019160209182019101610830565b604080516020808201859052818301849052825180830384018152606092830193849052805192936000939192909182918401908083835b60208310610a365780518252601f199092019160209182019101610a17565b6001836020036101000a03801982511681845116808217855250505050505090500191505060405180910390209050610a6e81612afd565b949350505050565b60006004600060405160200180807f6973496e697469616c697a656400000000000000000000000000000000000000815250600d0190506040516020818303038152906040526040518082805190602001908083835b60208310610aeb5780518252601f199092019160209182019101610acc565b51815160209384036101000a600019018019909216911617905260408051929094018290039091208652850195909552929092016000205460ff16949350505050565b610b36611e83565b600160a060020a03163314610b4a57600080fd5b8060008060405160200180807f657865637574696f6e4461696c794c696d69740000000000000000000000000081525060130190506040516020818303038152906040526040518082805190602001908083835b60208310610bbd5780518252601f199092019160209182019101610b9e565b51815160001960209485036101000a019081169019919091161790526040805194909201849003909320865285830196909652509284016000209490945550815184815291517f9bebf928b90863f24cc31f726a3a7545efd409f1dcf552301b1ee3710da70d3b9350918290030190a150565b600080600060405160200180807f7265717569726564426c6f636b436f6e6669726d6174696f6e73000000000000815250601a0190506040516020818303038152906040526040518082805190602001908083835b60208310610ca45780518252601f199092019160209182019101610c85565b51815160209384036101000a6000190180199092169116179052604080519290940182900390912086528501959095529290920160002054949350505050565b6000610cee612c65565b905090565b600060405160200180807f6e61746976652d746f2d6572632d636f7265000000000000000000000000000081525060120190506040516020818303038152906040526040518082805190602001908083835b60208310610d645780518252601f199092019160209182019101610d45565b6001836020036101000a0380198251168184511680821785525050505050509050019150506040518091039020905090565b600080600060405160200180807f657865637574696f6e4461696c794c696d697400000000000000000000000000815250601301905060405160208183030381529060405260405180828051906020019080838360208310610ca45780518252601f199092019160209182019101610c85565b6060610e1482612c6a565b92915050565b60008060008360405160200180807f746f74616c4578656375746564506572446179000000000000000000000000008152506013018281526020019150506040516020818303038152906040526040518082805190602001908083836020831061084f5780518252601f199092019160209182019101610830565b6000610e9f610a76565b15610ea957600080fd5b600160a060020a038a1615801590610ec55750610ec58a612cee565b1515610ed057600080fd5b60008611610edd57600080fd5b60008511610eea57600080fd5b600087118015610ef957508688115b8015610f0457508789115b1515610f0f57600080fd5b838310610f1b57600080fd5b600160a060020a0382161515610f3057600080fd5b896002600060405160200180807f76616c696461746f72436f6e747261637400000000000000000000000000000081525060110190506040516020818303038152906040526040518082805190602001908083835b60208310610fa45780518252601f199092019160209182019101610f85565b51815160209384036101000a60001901801990921691161790526040805192909401829003909120865285810196909652509283016000908120805473ffffffffffffffffffffffffffffffffffffffff1916600160a060020a039790971696909617909555505080517f6465706c6f7965644174426c6f636b0000000000000000000000000000000000818401528151600f818303018152602f90910191829052805143949384939182918401908083835b602083106110765780518252601f199092019160209182019101611057565b51815160209384036101000a6000190180199092169116179052604080519290940182900390912086528581019690965250928301600090812095909555505080517f6461696c794c696d697400000000000000000000000000000000000000000000818401528151600a818303018152602a9091019182905280518d949384939182918401908083835b602083106111205780518252601f199092019160209182019101611101565b51815160209384036101000a6000190180199092169116179052604080519290940182900390912086528581019690965250928301600090812095909555505080517f6d61785065725478000000000000000000000000000000000000000000000000818401528151600881830301815260289091019182905280518c949384939182918401908083835b602083106111ca5780518252601f1990920191602091820191016111ab565b51815160209384036101000a6000190180199092169116179052604080519290940182900390912086528581019690965250928301600090812095909555505080517f6d696e5065725478000000000000000000000000000000000000000000000000818401528151600881830301815260289091019182905280518b949384939182918401908083835b602083106112745780518252601f199092019160209182019101611255565b51815160209384036101000a6000190180199092169116179052604080519290940182900390912086528581019690965250928301600090812095909555505080517f6761735072696365000000000000000000000000000000000000000000000000818401528151600881830301815260289091019182905280518a949384939182918401908083835b6020831061131e5780518252601f1990920191602091820191016112ff565b51815160209384036101000a6000190180199092169116179052604080519290940182900390912086528581019690965250928301600090812095909555505080517f7265717569726564426c6f636b436f6e6669726d6174696f6e73000000000000818401528151601a818303018152603a90910191829052805189949384939182918401908083835b602083106113c85780518252601f1990920191602091820191016113a9565b51815160209384036101000a6000190180199092169116179052604080519290940182900390912086528581019690965250928301600090812095909555505080517f657865637574696f6e4461696c794c696d6974000000000000000000000000008184015281516013818303018152603390910191829052805188949384939182918401908083835b602083106114725780518252601f199092019160209182019101611453565b51815160209384036101000a6000190180199092169116179052604080519290940182900390912086528581019690965250928301600090812095909555505080517f657865637574696f6e4d617850657254780000000000000000000000000000008184015281516011818303018152603190910191829052805187949384939182918401908083835b6020831061151c5780518252601f1990920191602091820191016114fd565b51815160209384036101000a6000190180199092169116179052604080519290940182900390912086528501959095529290920160002093909355506115659150839050612cf6565b61156f6001612e1e565b611577610a76565b9a9950505050505050505050565b6000806000806000611595611fc5565b600160a060020a031663facd743b336040518263ffffffff1660e060020a0281526004018082600160a060020a0316600160a060020a03168152602001915050602060405180830381600087803b1580156115ef57600080fd5b505af1158015611603573d6000803e3d6000fd5b505050506040513d602081101561161957600080fd5b5051151561162657600080fd5b61165f87878080601f01602080910402602001604051908101604052809392919081815260200183838082843750612edf945050505050565b151561166a57600080fd5b6116d189898080601f0160208091040260200160405190810160405280939291908181526020018383808284375050604080516020601f8f018190048102820181019092528d815294508d93508c9250829150840183828082843750612ef3945050505050565b600160a060020a031633146116e557600080fd5b8686604051602001808383808284378201915050925050506040516020818303038152906040526040518082805190602001908083835b6020831061173b5780518252601f19909201916020918201910161171c565b51815160209384036101000a600019018019909216911617905260408051929094018290038220336c0100000000000000000000000002838301526034808401829052855180850390910181526054909301948590528251909b509195509293508392850191508083835b602083106117c55780518252601f1990920191602091820191016117a6565b6001836020036101000a038019825116818451168082178552505050505050905001915050604051809103902093506117fd8561095c565b925061180883612ad5565b1561181257600080fd5b6001928301928311156118375761182884611f41565b1561183257600080fd5b611871565b6118718588888080601f01602080910402602001604051908101604052809392919081815260200183838082843750612fb3945050505050565b61187c84600161308a565b604080516020808201889052600019860182840152825180830384018152606090920192839052815191929182918401908083835b602083106118d05780518252601f1990920191602091820191016118b1565b51815160209384036101000a600019018019909216911617905260408051929094018290038220601f8f018290048202830182019094528d82529296506119319450869350918d91508c90819084018382808284375061315c945050505050565b61193b85846131df565b60408051868152905133917fbf06885f40778f5ccfb64497d3f92ce568ddaedb7e2fb4487f72690418cf8e4c919081900360200190a2611979611e0b565b90508083106119d5576119948561198f85613261565b6131df565b604080513381526020810187905280820183905290517f415557404d88a0c0b8e3b16967cafffc511213fd9c465c16832ee17ed57d72379181900360600190a15b505050505050505050565b600080600060405160200180807f6461696c794c696d697400000000000000000000000000000000000000000000815250600a01905060405160208183030381529060405260405180828051906020019080838360208310610ca45780518252601f199092019160209182019101610c85565b600080611a5e61285e565b600160a060020a03163314611a7257600080fd5b600160a060020a0383161515611a8757600080fd5b600160a060020a0384161515611ad357604051600160a060020a03841690303180156108fc02916000818181858888f19350505050158015611acd573d6000803e3d6000fd5b50611c09565b604080517f70a082310000000000000000000000000000000000000000000000000000000081523060048201529051859350600160a060020a038416916370a082319160248083019260209291908290030181600087803b158015611b3757600080fd5b505af1158015611b4b573d6000803e3d6000fd5b505050506040513d6020811015611b6157600080fd5b5051604080517fa9059cbb000000000000000000000000000000000000000000000000000000008152600160a060020a0386811660048301526024820184905291519293509084169163a9059cbb916044808201926020929091908290030181600087803b158015611bd257600080fd5b505af1158015611be6573d6000803e3d6000fd5b505050506040513d6020811015611bfc57600080fd5b50511515611c0957600080fd5b50505050565b60008060008360405160200180807f6e756d41666669726d6174696f6e735369676e6564000000000000000000000081525060150182600019166000191681526020019150506040516020818303038152906040526040518082805190602001908083836020831061084f5780518252601f199092019160209182019101610830565b6000600460008360405160200180807f61666669726d6174696f6e735369676e6564000000000000000000000000000081525060120182600019166000191681526020019150506040516020818303038152906040526040518082805190602001908083835b60208310611d175780518252601f199092019160209182019101611cf8565b51815160209384036101000a600019018019909216911617905260408051929094018290039091208652850195909552929092016000205460ff1695945050505050565b600080611d728361021f611d6d6107c9565b610e1a565b905080611d7d610d96565b101580156107c25750611d8e611d98565b9092111592915050565b600080600060405160200180807f657865637574696f6e4d61785065725478000000000000000000000000000000815250601101905060405160208183030381529060405260405180828051906020019080838360208310610ca45780518252601f199092019160209182019101610c85565b6000611e15611fc5565b600160a060020a0316638d0680436040518163ffffffff1660e060020a028152600401602060405180830381600087803b158015611e5257600080fd5b505af1158015611e66573d6000803e3d6000fd5b505050506040513d6020811015611e7c57600080fd5b5051905090565b60006002600060405160200180807f6f776e657200000000000000000000000000000000000000000000000000000081525060050190506040516020818303038152906040526040518082805190602001908083835b60208310611ef85780518252601f199092019160209182019101611ed9565b51815160209384036101000a6000190180199092169116179052604080519290940182900390912086528501959095529290920160002054600160a060020a0316949350505050565b6000600460008360405160200180807f6d657373616765735369676e6564000000000000000000000000000000000000815250600e01826000191660001916815260200191505060405160208183030381529060405260405180828051906020019080838360208310611d175780518252601f199092019160209182019101611cf8565b60006002600060405160200180807f76616c696461746f72436f6e7472616374000000000000000000000000000000815250601101905060405160208183030381529060405260405180828051906020019080838360208310611ef85780518252601f199092019160209182019101611ed9565b6000806000612046611fc5565b600160a060020a031663facd743b336040518263ffffffff1660e060020a0281526004018082600160a060020a0316600160a060020a03168152602001915050602060405180830381600087803b1580156120a057600080fd5b505af11580156120b4573d6000803e3d6000fd5b505050506040513d60208110156120ca57600080fd5b505115156120d757600080fd5b6120e085613286565b1561231657604080516c01000000000000000000000000600160a060020a0389160260208083019190915260348201889052605480830188905283518084039091018152607490920192839052815191929182918401908083835b6020831061215a5780518252601f19909201916020918201910161213b565b51815160209384036101000a600019018019909216911617905260408051929094018290038220336c01000000000000000000000000028383015260348084018290528551808503909101815260549093019485905282519099509195509293508392850191508083835b602083106121e45780518252601f1990920191602091820191016121c5565b6001836020036101000a0380198251168184511680821785525050505050509050019150506040518091039020915061221c82611c92565b1561222657600080fd5b612231826001613291565b61223a83611c0f565b905061224581612ad5565b1561224f57600080fd5b60010161225c8382613314565b60408051858152905133917f5df9cc3eb93d8a9a481857a3b70a8ca966e6b80b25cf0ee2cce180ec5afa80a1919081900360200190a261229a611e0b565b8110612311576122b2836122ad83613261565b613314565b6122bc8686613396565b15156122c757600080fd5b60408051600160a060020a03881681526020810187905280820186905290517f6fc115a803b8703117d9a3956c5a15401cb42401f91630f015eb6b043fa762539181900360600190a15b612321565b612321868686613425565b505050505050565b600080600060405160200180807f6465706c6f7965644174426c6f636b0000000000000000000000000000000000815250600f01905060405160208183030381529060405260405180828051906020019080838360208310610ca45780518252601f199092019160209182019101610c85565b6002806000909192565b6123ae611e83565b600160a060020a031633146123c257600080fd5b6123ca6119e0565b811080156123de57506123db6129ef565b81105b15156123e957600080fd5b8060008060405160200180807f6d696e506572547800000000000000000000000000000000000000000000000081525060080190506040516020818303038152906040526040518082805190602001908083835b6020831061245c5780518252601f19909201916020918201910161243d565b51815160209384036101000a600019018019909216911617905260408051929094018290039091208652850195909552929092016000209390935550505050565b6124a5611e83565b600160a060020a031633146124b957600080fd5b600081116124c657600080fd5b8060008060405160200180807f7265717569726564426c6f636b436f6e6669726d6174696f6e73000000000000815250601a0190506040516020818303038152906040526040518082805190602001908083835b602083106125395780518252601f19909201916020918201910161251a565b51815160001960209485036101000a019081169019919091161790526040805194909201849003909320865285830196909652509284016000209490945550815184815291517f4fb76205cd57c896b21511d2114137d8e901b4ccd659e1a0f97d6306795264fb9350918290030190a150565b6125b4611e83565b600160a060020a031633146125c857600080fd5b8060008060405160200180807f6461696c794c696d697400000000000000000000000000000000000000000000815250600a0190506040516020818303038152906040526040518082805190602001908083835b6020831061263b5780518252601f19909201916020918201910161261c565b51815160001960209485036101000a019081169019919091161790526040805194909201849003909320865285830196909652509284016000209490945550815184815291517fad4123ae17c414d9c6d2fec478b402e6b01856cc250fd01fbfd252fda0089d3c9350918290030190a150565b6126b6611e83565b600160a060020a031633146126ca57600080fd5b600081116126d757600080fd5b8060008060405160200180807f676173507269636500000000000000000000000000000000000000000000000081525060080190506040516020818303038152906040526040518082805190602001908083835b6020831061274a5780518252601f19909201916020918201910161272b565b51815160001960209485036101000a019081169019919091161790526040805194909201849003909320865285830196909652509284016000209490945550815184815291517f52264b89e0fceafb26e79fd49ef8a366eb6297483bf4035b027f0c99a7ad512e9350918290030190a150565b6127c5611e83565b600160a060020a031633146127d957600080fd5b6127e16119e0565b81106127ec57600080fd5b8060008060405160200180807f6d6178506572547800000000000000000000000000000000000000000000000081525060080190506040516020818303038152906040526040518082805190602001908083836020831061245c5780518252601f19909201916020918201910161243d565b600030600160a060020a031663025313a26040518163ffffffff1660e060020a028152600401602060405180830381600087803b158015611e5257600080fd5b600080600060405160200180807f6d696e5065725478000000000000000000000000000000000000000000000000815250600801905060405160208183030381529060405260405180828051906020019080838360208310610ca45780518252601f199092019160209182019101610c85565b612919611e83565b600160a060020a0316331461292d57600080fd5b612935610d96565b811061294057600080fd5b8060008060405160200180807f657865637574696f6e4d6178506572547800000000000000000000000000000081525060110190506040516020818303038152906040526040518082805190602001908083836020831061245c5780518252601f19909201916020918201910161243d565b6129ba611e83565b600160a060020a031633146129ce57600080fd5b600160a060020a03811615156129e357600080fd5b6129ec81612cf6565b50565b600080600060405160200180807f6d61785065725478000000000000000000000000000000000000000000000000815250600801905060405160208183030381529060405260405180828051906020019080838360208310610ca45780518252601f199092019160209182019101610c85565b600080600060405160200180807f6761735072696365000000000000000000000000000000000000000000000000815250600801905060405160208183030381529060405260405180828051906020019080838360208310610ca45780518252601f199092019160209182019101610c85565b7f80000000000000000000000000000000000000000000000000000000000000009081161490565b6060600360008360405160200180807f7369676e61747572657300000000000000000000000000000000000000000000815250600a0182600019166000191681526020019150506040516020818303038152906040526040518082805190602001908083835b60208310612b825780518252601f199092019160209182019101612b63565b6001836020036101000a0380198251168184511680821785525050505050509050019150506040518091039020600019166000191681526020019081526020016000208054600181600116156101000203166002900480601f016020809104026020016040519081016040528092919081815260200182805460018160011615610100020316600290048015612c595780601f10612c2e57610100808354040283529160200191612c59565b820191906000526020600020905b815481529060010190602001808311612c3c57829003601f168201915b50505050509050919050565b606890565b6060600360008360405160200180807f6d65737361676573000000000000000000000000000000000000000000000000815250600801826000191660001916815260200191505060405160208183030381529060405260405180828051906020019080838360208310612b825780518252601f199092019160209182019101612b63565b6000903b1190565b7f8be0079c531659141344cd1fd0a4f28419497f9722a3daafe3b4186f6b6457e0612d1f611e83565b60408051600160a060020a03928316815291841660208301528051918290030190a1806002600060405160200180807f6f776e657200000000000000000000000000000000000000000000000000000081525060050190506040516020818303038152906040526040518082805190602001908083835b60208310612db55780518252601f199092019160209182019101612d96565b51815160209384036101000a60001901801990921691161790526040805192909401829003909120865285019590955292909201600020805473ffffffffffffffffffffffffffffffffffffffff1916600160a060020a03959095169490941790935550505050565b806004600060405160200180807f6973496e697469616c697a656400000000000000000000000000000000000000815250600d0190506040516020818303038152906040526040518082805190602001908083835b60208310612e925780518252601f199092019160209182019101612e73565b51815160209384036101000a60001901801990921691161790526040805192909401829003909120865285019590955292909201600020805460ff19169415159490941790935550505050565b6000612ee9612c65565b8251149050919050565b60008060008085516041141515612f0957600080fd5b5050506020830151604084015160608501516001612f268661342a565b60408051600080825260208083018085529490945260ff7f0100000000000000000000000000000000000000000000000000000000000000870416828401526060820188905260808201879052915160a08083019493601f198301938390039091019190865af1158015612f9e573d6000803e3d6000fd5b5050604051601f190151979650505050505050565b80600360008460405160200180807f6d6573736167657300000000000000000000000000000000000000000000000081525060080182600019166000191681526020019150506040516020818303038152906040526040518082805190602001908083835b602083106130375780518252601f199092019160209182019101613018565b51815160001960209485036101000a01908116901991909116179052604080519490920184900390932086528583019690965250929093016000208451613085959194509201919050613669565b505050565b80600460008460405160200180807f6d657373616765735369676e6564000000000000000000000000000000000000815250600e0182600019166000191681526020019150506040516020818303038152906040526040518082805190602001908083835b6020831061310e5780518252601f1990920191602091820191016130ef565b51815160209384036101000a60001901801990921691161790526040805192909401829003909120865285019590955292909201600020805460ff1916941515949094179093555050505050565b80600360008460405160200180807f7369676e61747572657300000000000000000000000000000000000000000000815250600a018260001916600019168152602001915050604051602081830303815290604052604051808280519060200190808383602083106130375780518252601f199092019160209182019101613018565b806000808460405160200180807f6e756d4d657373616765735369676e656400000000000000000000000000000081525060110182600019166000191681526020019150506040516020818303038152906040526040518082805190602001908083836020831061091a5780518252601f1990920191602091820191016108fb565b7f80000000000000000000000000000000000000000000000000000000000000001790565b6000610e1482611d5b565b80600460008460405160200180807f61666669726d6174696f6e735369676e6564000000000000000000000000000081525060120182600019166000191681526020019150506040516020818303038152906040526040518082805190602001908083836020831061310e5780518252601f1990920191602091820191016130ef565b806000808460405160200180807f6e756d41666669726d6174696f6e735369676e6564000000000000000000000081525060150182600019166000191681526020019150506040516020818303038152906040526040518082805190602001908083836020831061091a5780518252601f1990920191602091820191016108fb565b60006133b76133a36107c9565b6133b28461021f611d6d6107c9565b6135ef565b604051600160a060020a0384169083156108fc029084906000818181858888f19350505050151561341c5781836133ec6136e7565b600160a060020a039091168152604051908190036020019082f080158015613418573d6000803e3d6000fd5b5050505b50600192915050565b600080fd5b604080518082018252601a81527f19457468657265756d205369676e6564204d6573736167653a0a000000000000602080830191825283518085018552600381527f313034000000000000000000000000000000000000000000000000000000000081830152935183516000959385938593899391019182918083835b602083106134c65780518252601f1990920191602091820191016134a7565b51815160209384036101000a600019018019909216911617905286519190930192860191508083835b6020831061350e5780518252601f1990920191602091820191016134ef565b51815160209384036101000a600019018019909216911617905285519190930192850191508083835b602083106135565780518252601f199092019160209182019101613537565b6001836020036101000a03801982511681845116808217855250505050505090500193505050506040516020818303038152906040526040518082805190602001908083835b602083106135bb5780518252601f19909201916020918201910161359c565b5181516020939093036101000a60001901801990911692169190911790526040519201829003909120979650505050505050565b806000808460405160200180807f746f74616c4578656375746564506572446179000000000000000000000000008152506013018281526020019150506040516020818303038152906040526040518082805190602001908083836020831061091a5780518252601f1990920191602091820191016108fb565b828054600181600116156101000203166002900490600052602060002090601f016020900481019282601f106136aa57805160ff19168380011785556136d7565b828001600101855582156136d7579182015b828111156136d75782518255916020019190600101906136bc565b506136e39291506136f6565b5090565b60405160218061371183390190565b6107d091905b808211156136e357600081556001016136fc5600608060405260405160208060218339810160405251600160a060020a038116ff00a165627a7a72305820db4cb68bd559af7e296037d2391f623c34dd3b987a7dbceae3111acdb98547ce0029",
  "source": "pragma solidity 0.4.24;\nimport \"../../libraries/SafeMath.sol\";\nimport \"../../libraries/Message.sol\";\nimport \"../BasicBridge.sol\";\nimport \"../../upgradeability/EternalStorage.sol\";\nimport \"../BasicHomeBridge.sol\";\n\ncontract Sacrifice {\n    constructor(address _recipient) public payable {\n        selfdestruct(_recipient);\n    }\n}\n\ncontract HomeBridgeNativeToErc is EternalStorage, BasicBridge, BasicHomeBridge {\n\n    function initialize (\n        address _validatorContract,\n        uint256 _dailyLimit,\n        uint256 _maxPerTx,\n        uint256 _minPerTx,\n        uint256 _homeGasPrice,\n        uint256 _requiredBlockConfirmations,\n        uint256 _foreignDailyLimit,\n        uint256 _foreignMaxPerTx,\n        address _owner\n    ) public\n      returns(bool)\n    {\n        require(!isInitialized());\n        require(_validatorContract != address(0) && isContract(_validatorContract));\n        require(_homeGasPrice > 0);\n        require(_requiredBlockConfirmations > 0);\n        require(_minPerTx > 0 && _maxPerTx > _minPerTx && _dailyLimit > _maxPerTx);\n        require(_foreignMaxPerTx < _foreignDailyLimit);\n        require(_owner != address(0));\n        addressStorage[keccak256(abi.encodePacked(\"validatorContract\"))] = _validatorContract;\n        uintStorage[keccak256(abi.encodePacked(\"deployedAtBlock\"))] = block.number;\n        uintStorage[keccak256(abi.encodePacked(\"dailyLimit\"))] = _dailyLimit;\n        uintStorage[keccak256(abi.encodePacked(\"maxPerTx\"))] = _maxPerTx;\n        uintStorage[keccak256(abi.encodePacked(\"minPerTx\"))] = _minPerTx;\n        uintStorage[keccak256(abi.encodePacked(\"gasPrice\"))] = _homeGasPrice;\n        uintStorage[keccak256(abi.encodePacked(\"requiredBlockConfirmations\"))] = _requiredBlockConfirmations;\n        uintStorage[keccak256(abi.encodePacked(\"executionDailyLimit\"))] = _foreignDailyLimit;\n        uintStorage[keccak256(abi.encodePacked(\"executionMaxPerTx\"))] = _foreignMaxPerTx;\n        setOwner(_owner);\n        setInitialize(true);\n        return isInitialized();\n    }\n\n    function () public payable {\n        require(msg.value > 0);\n        require(msg.data.length == 0);\n        require(withinLimit(msg.value));\n        setTotalSpentPerDay(getCurrentDay(), totalSpentPerDay(getCurrentDay()).add(msg.value));\n        emit UserRequestForSignature(msg.sender, msg.value);\n    }\n\n    function getBridgeMode() public pure returns(bytes4 _data) {\n        return bytes4(keccak256(abi.encodePacked(\"native-to-erc-core\")));\n    }\n\n    function onExecuteAffirmation(address _recipient, uint256 _value) internal returns(bool) {\n        setTotalExecutedPerDay(getCurrentDay(), totalExecutedPerDay(getCurrentDay()).add(_value));\n        if (!_recipient.send(_value)) {\n            (new Sacrifice).value(_value)(_recipient);\n        }\n        return true;\n    }\n\n    function affirmationWithinLimits(uint256 _amount) internal view returns(bool) {\n        return withinExecutionLimit(_amount);\n    }\n\n    function onFailedAffirmation(address _recipient, uint256 _value, bytes32 _txHash) internal {\n        revert();\n    }\n}\n",
  "sourcePath": "/contracts/contracts/upgradeable_contracts/native_to_erc20/HomeBridgeNativeToErc.sol",
  "compiler": {
    "name": "solc",
    "version": "0.4.24+commit.e67f0147.Emscripten.clang"
  },
  "schemaVersion": "2.0.0",
  "updatedAt": "2019-02-27T05:38:44.542Z"
}