{
  "contractName": "HomeBridgeErcToNative",
  "abi": [
    {
      "constant": true,
      "inputs": [
        {
          "name": "_message",
          "type": "bytes32"
        }
      ],
      "name": "numMessagesSigned",
      "outputs": [
        {
          "name": "",
          "type": "uint256"
        }
      ],
      "payable": false,
      "stateMutability": "view",
      "type": "function"
    },
    {
      "constant": true,
      "inputs": [
        {
          "name": "_hash",
          "type": "bytes32"
        },
        {
          "name": "_index",
          "type": "uint256"
        }
      ],
      "name": "signature",
      "outputs": [
        {
          "name": "",
          "type": "bytes"
        }
      ],
      "payable": false,
      "stateMutability": "view",
      "type": "function"
    },
    {
      "constant": true,
      "inputs": [
        {
          "name": "_txHash",
          "type": "bytes32"
        }
      ],
      "name": "fixedAssets",
      "outputs": [
        {
          "name": "",
          "type": "bool"
        }
      ],
      "payable": false,
      "stateMutability": "view",
      "type": "function"
    },
    {
      "constant": true,
      "inputs": [
        {
          "name": "_day",
          "type": "uint256"
        }
      ],
      "name": "totalSpentPerDay",
      "outputs": [
        {
          "name": "",
          "type": "uint256"
        }
      ],
      "payable": false,
      "stateMutability": "view",
      "type": "function"
    },
    {
      "constant": true,
      "inputs": [],
      "name": "isInitialized",
      "outputs": [
        {
          "name": "",
          "type": "bool"
        }
      ],
      "payable": false,
      "stateMutability": "view",
      "type": "function"
    },
    {
      "constant": false,
      "inputs": [
        {
          "name": "_dailyLimit",
          "type": "uint256"
        }
      ],
      "name": "setExecutionDailyLimit",
      "outputs": [],
      "payable": false,
      "stateMutability": "nonpayable",
      "type": "function"
    },
    {
      "constant": true,
      "inputs": [],
      "name": "getCurrentDay",
      "outputs": [
        {
          "name": "",
          "type": "uint256"
        }
      ],
      "payable": false,
      "stateMutability": "view",
      "type": "function"
    },
    {
      "constant": true,
      "inputs": [],
      "name": "requiredBlockConfirmations",
      "outputs": [
        {
          "name": "",
          "type": "uint256"
        }
      ],
      "payable": false,
      "stateMutability": "view",
      "type": "function"
    },
    {
      "constant": true,
      "inputs": [],
      "name": "requiredMessageLength",
      "outputs": [
        {
          "name": "",
          "type": "uint256"
        }
      ],
      "payable": false,
      "stateMutability": "pure",
      "type": "function"
    },
    {
      "constant": true,
      "inputs": [],
      "name": "executionDailyLimit",
      "outputs": [
        {
          "name": "",
          "type": "uint256"
        }
      ],
      "payable": false,
      "stateMutability": "view",
      "type": "function"
    },
    {
      "constant": true,
      "inputs": [
        {
          "name": "_hash",
          "type": "bytes32"
        }
      ],
      "name": "message",
      "outputs": [
        {
          "name": "",
          "type": "bytes"
        }
      ],
      "payable": false,
      "stateMutability": "view",
      "type": "function"
    },
    {
      "constant": true,
      "inputs": [
        {
          "name": "_day",
          "type": "uint256"
        }
      ],
      "name": "totalExecutedPerDay",
      "outputs": [
        {
          "name": "",
          "type": "uint256"
        }
      ],
      "payable": false,
      "stateMutability": "view",
      "type": "function"
    },
    {
      "constant": false,
      "inputs": [
        {
          "name": "signature",
          "type": "bytes"
        },
        {
          "name": "message",
          "type": "bytes"
        }
      ],
      "name": "submitSignature",
      "outputs": [],
      "payable": false,
      "stateMutability": "nonpayable",
      "type": "function"
    },
    {
      "constant": false,
      "inputs": [
        {
          "name": "txHash",
          "type": "bytes32"
        },
        {
          "name": "unlockOnForeign",
          "type": "bool"
        }
      ],
      "name": "fixAssetsAboveLimits",
      "outputs": [],
      "payable": false,
      "stateMutability": "nonpayable",
      "type": "function"
    },
    {
      "constant": true,
      "inputs": [],
      "name": "dailyLimit",
      "outputs": [
        {
          "name": "",
          "type": "uint256"
        }
      ],
      "payable": false,
      "stateMutability": "view",
      "type": "function"
    },
    {
      "constant": false,
      "inputs": [
        {
          "name": "_token",
          "type": "address"
        },
        {
          "name": "_to",
          "type": "address"
        }
      ],
      "name": "claimTokens",
      "outputs": [],
      "payable": false,
      "stateMutability": "nonpayable",
      "type": "function"
    },
    {
      "constant": true,
      "inputs": [
        {
          "name": "_withdrawal",
          "type": "bytes32"
        }
      ],
      "name": "numAffirmationsSigned",
      "outputs": [
        {
          "name": "",
          "type": "uint256"
        }
      ],
      "payable": false,
      "stateMutability": "view",
      "type": "function"
    },
    {
      "constant": true,
      "inputs": [
        {
          "name": "_withdrawal",
          "type": "bytes32"
        }
      ],
      "name": "affirmationsSigned",
      "outputs": [
        {
          "name": "",
          "type": "bool"
        }
      ],
      "payable": false,
      "stateMutability": "view",
      "type": "function"
    },
    {
      "constant": true,
      "inputs": [
        {
          "name": "_amount",
          "type": "uint256"
        }
      ],
      "name": "withinExecutionLimit",
      "outputs": [
        {
          "name": "",
          "type": "bool"
        }
      ],
      "payable": false,
      "stateMutability": "view",
      "type": "function"
    },
    {
      "constant": true,
      "inputs": [],
      "name": "executionMaxPerTx",
      "outputs": [
        {
          "name": "",
          "type": "uint256"
        }
      ],
      "payable": false,
      "stateMutability": "view",
      "type": "function"
    },
    {
      "constant": true,
      "inputs": [],
      "name": "requiredSignatures",
      "outputs": [
        {
          "name": "",
          "type": "uint256"
        }
      ],
      "payable": false,
      "stateMutability": "view",
      "type": "function"
    },
    {
      "constant": true,
      "inputs": [],
      "name": "owner",
      "outputs": [
        {
          "name": "",
          "type": "address"
        }
      ],
      "payable": false,
      "stateMutability": "view",
      "type": "function"
    },
    {
      "constant": true,
      "inputs": [
        {
          "name": "_message",
          "type": "bytes32"
        }
      ],
      "name": "messagesSigned",
      "outputs": [
        {
          "name": "",
          "type": "bool"
        }
      ],
      "payable": false,
      "stateMutability": "view",
      "type": "function"
    },
    {
      "constant": true,
      "inputs": [],
      "name": "validatorContract",
      "outputs": [
        {
          "name": "",
          "type": "address"
        }
      ],
      "payable": false,
      "stateMutability": "view",
      "type": "function"
    },
    {
      "constant": false,
      "inputs": [
        {
          "name": "recipient",
          "type": "address"
        },
        {
          "name": "value",
          "type": "uint256"
        },
        {
          "name": "transactionHash",
          "type": "bytes32"
        }
      ],
      "name": "executeAffirmation",
      "outputs": [],
      "payable": false,
      "stateMutability": "nonpayable",
      "type": "function"
    },
    {
      "constant": true,
      "inputs": [],
      "name": "deployedAtBlock",
      "outputs": [
        {
          "name": "",
          "type": "uint256"
        }
      ],
      "payable": false,
      "stateMutability": "view",
      "type": "function"
    },
    {
      "constant": true,
      "inputs": [],
      "name": "getBridgeInterfacesVersion",
      "outputs": [
        {
          "name": "major",
          "type": "uint64"
        },
        {
          "name": "minor",
          "type": "uint64"
        },
        {
          "name": "patch",
          "type": "uint64"
        }
      ],
      "payable": false,
      "stateMutability": "pure",
      "type": "function"
    },
    {
      "constant": true,
      "inputs": [],
      "name": "outOfLimitAmount",
      "outputs": [
        {
          "name": "",
          "type": "uint256"
        }
      ],
      "payable": false,
      "stateMutability": "view",
      "type": "function"
    },
    {
      "constant": false,
      "inputs": [
        {
          "name": "_minPerTx",
          "type": "uint256"
        }
      ],
      "name": "setMinPerTx",
      "outputs": [],
      "payable": false,
      "stateMutability": "nonpayable",
      "type": "function"
    },
    {
      "constant": false,
      "inputs": [
        {
          "name": "_blockConfirmations",
          "type": "uint256"
        }
      ],
      "name": "setRequiredBlockConfirmations",
      "outputs": [],
      "payable": false,
      "stateMutability": "nonpayable",
      "type": "function"
    },
    {
      "constant": false,
      "inputs": [
        {
          "name": "_dailyLimit",
          "type": "uint256"
        }
      ],
      "name": "setDailyLimit",
      "outputs": [],
      "payable": false,
      "stateMutability": "nonpayable",
      "type": "function"
    },
    {
      "constant": false,
      "inputs": [
        {
          "name": "_gasPrice",
          "type": "uint256"
        }
      ],
      "name": "setGasPrice",
      "outputs": [],
      "payable": false,
      "stateMutability": "nonpayable",
      "type": "function"
    },
    {
      "constant": false,
      "inputs": [
        {
          "name": "_maxPerTx",
          "type": "uint256"
        }
      ],
      "name": "setMaxPerTx",
      "outputs": [],
      "payable": false,
      "stateMutability": "nonpayable",
      "type": "function"
    },
    {
      "constant": true,
      "inputs": [],
      "name": "upgradeabilityAdmin",
      "outputs": [
        {
          "name": "",
          "type": "address"
        }
      ],
      "payable": false,
      "stateMutability": "view",
      "type": "function"
    },
    {
      "constant": true,
      "inputs": [],
      "name": "minPerTx",
      "outputs": [
        {
          "name": "",
          "type": "uint256"
        }
      ],
      "payable": false,
      "stateMutability": "view",
      "type": "function"
    },
    {
      "constant": true,
      "inputs": [
        {
          "name": "_amount",
          "type": "uint256"
        }
      ],
      "name": "withinLimit",
      "outputs": [
        {
          "name": "",
          "type": "bool"
        }
      ],
      "payable": false,
      "stateMutability": "view",
      "type": "function"
    },
    {
      "constant": false,
      "inputs": [
        {
          "name": "_maxPerTx",
          "type": "uint256"
        }
      ],
      "name": "setExecutionMaxPerTx",
      "outputs": [],
      "payable": false,
      "stateMutability": "nonpayable",
      "type": "function"
    },
    {
      "constant": false,
      "inputs": [
        {
          "name": "newOwner",
          "type": "address"
        }
      ],
      "name": "transferOwnership",
      "outputs": [],
      "payable": false,
      "stateMutability": "nonpayable",
      "type": "function"
    },
    {
      "constant": true,
      "inputs": [],
      "name": "maxPerTx",
      "outputs": [
        {
          "name": "",
          "type": "uint256"
        }
      ],
      "payable": false,
      "stateMutability": "view",
      "type": "function"
    },
    {
      "constant": true,
      "inputs": [],
      "name": "gasPrice",
      "outputs": [
        {
          "name": "",
          "type": "uint256"
        }
      ],
      "payable": false,
      "stateMutability": "view",
      "type": "function"
    },
    {
      "constant": true,
      "inputs": [
        {
          "name": "_number",
          "type": "uint256"
        }
      ],
      "name": "isAlreadyProcessed",
      "outputs": [
        {
          "name": "",
          "type": "bool"
        }
      ],
      "payable": false,
      "stateMutability": "pure",
      "type": "function"
    },
    {
      "payable": true,
      "stateMutability": "payable",
      "type": "fallback"
    },
    {
      "anonymous": false,
      "inputs": [
        {
          "indexed": false,
          "name": "recipient",
          "type": "address"
        },
        {
          "indexed": false,
          "name": "value",
          "type": "uint256"
        },
        {
          "indexed": false,
          "name": "transactionHash",
          "type": "bytes32"
        }
      ],
      "name": "AmountLimitExceeded",
      "type": "event"
    },
    {
      "anonymous": false,
      "inputs": [
        {
          "indexed": false,
          "name": "recipient",
          "type": "address"
        },
        {
          "indexed": false,
          "name": "value",
          "type": "uint256"
        }
      ],
      "name": "UserRequestForSignature",
      "type": "event"
    },
    {
      "anonymous": false,
      "inputs": [
        {
          "indexed": false,
          "name": "recipient",
          "type": "address"
        },
        {
          "indexed": false,
          "name": "value",
          "type": "uint256"
        },
        {
          "indexed": false,
          "name": "transactionHash",
          "type": "bytes32"
        }
      ],
      "name": "AffirmationCompleted",
      "type": "event"
    },
    {
      "anonymous": false,
      "inputs": [
        {
          "indexed": true,
          "name": "signer",
          "type": "address"
        },
        {
          "indexed": false,
          "name": "messageHash",
          "type": "bytes32"
        }
      ],
      "name": "SignedForUserRequest",
      "type": "event"
    },
    {
      "anonymous": false,
      "inputs": [
        {
          "indexed": true,
          "name": "signer",
          "type": "address"
        },
        {
          "indexed": false,
          "name": "transactionHash",
          "type": "bytes32"
        }
      ],
      "name": "SignedForAffirmation",
      "type": "event"
    },
    {
      "anonymous": false,
      "inputs": [
        {
          "indexed": false,
          "name": "authorityResponsibleForRelay",
          "type": "address"
        },
        {
          "indexed": false,
          "name": "messageHash",
          "type": "bytes32"
        },
        {
          "indexed": false,
          "name": "NumberOfCollectedSignatures",
          "type": "uint256"
        }
      ],
      "name": "CollectedSignatures",
      "type": "event"
    },
    {
      "anonymous": false,
      "inputs": [
        {
          "indexed": false,
          "name": "gasPrice",
          "type": "uint256"
        }
      ],
      "name": "GasPriceChanged",
      "type": "event"
    },
    {
      "anonymous": false,
      "inputs": [
        {
          "indexed": false,
          "name": "requiredBlockConfirmations",
          "type": "uint256"
        }
      ],
      "name": "RequiredBlockConfirmationChanged",
      "type": "event"
    },
    {
      "anonymous": false,
      "inputs": [
        {
          "indexed": false,
          "name": "newLimit",
          "type": "uint256"
        }
      ],
      "name": "DailyLimitChanged",
      "type": "event"
    },
    {
      "anonymous": false,
      "inputs": [
        {
          "indexed": false,
          "name": "newLimit",
          "type": "uint256"
        }
      ],
      "name": "ExecutionDailyLimitChanged",
      "type": "event"
    },
    {
      "anonymous": false,
      "inputs": [
        {
          "indexed": false,
          "name": "previousOwner",
          "type": "address"
        },
        {
          "indexed": false,
          "name": "newOwner",
          "type": "address"
        }
      ],
      "name": "OwnershipTransferred",
      "type": "event"
    },
    {
      "constant": false,
      "inputs": [
        {
          "name": "_validatorContract",
          "type": "address"
        },
        {
          "name": "_dailyLimit",
          "type": "uint256"
        },
        {
          "name": "_maxPerTx",
          "type": "uint256"
        },
        {
          "name": "_minPerTx",
          "type": "uint256"
        },
        {
          "name": "_homeGasPrice",
          "type": "uint256"
        },
        {
          "name": "_requiredBlockConfirmations",
          "type": "uint256"
        },
        {
          "name": "_blockReward",
          "type": "address"
        },
        {
          "name": "_foreignDailyLimit",
          "type": "uint256"
        },
        {
          "name": "_foreignMaxPerTx",
          "type": "uint256"
        },
        {
          "name": "_owner",
          "type": "address"
        }
      ],
      "name": "initialize",
      "outputs": [
        {
          "name": "",
          "type": "bool"
        }
      ],
      "payable": false,
      "stateMutability": "nonpayable",
      "type": "function"
    },
    {
      "constant": true,
      "inputs": [],
      "name": "getBridgeMode",
      "outputs": [
        {
          "name": "_data",
          "type": "bytes4"
        }
      ],
      "payable": false,
      "stateMutability": "pure",
      "type": "function"
    },
    {
      "constant": true,
      "inputs": [],
      "name": "blockRewardContract",
      "outputs": [
        {
          "name": "",
          "type": "address"
        }
      ],
      "payable": false,
      "stateMutability": "view",
      "type": "function"
    },
    {
      "constant": true,
      "inputs": [],
      "name": "totalBurntCoins",
      "outputs": [
        {
          "name": "",
          "type": "uint256"
        }
      ],
      "payable": false,
      "stateMutability": "view",
      "type": "function"
    },
    {
      "constant": false,
      "inputs": [
        {
          "name": "_blockReward",
          "type": "address"
        }
      ],
      "name": "setBlockRewardContract",
      "outputs": [],
      "payable": false,
      "stateMutability": "nonpayable",
      "type": "function"
    }
  ],
  "bytecode": "0x608060405234801561001057600080fd5b5061434b806100206000396000f3006080604052600436106102165763ffffffff60e060020a6000350416630cbf060181146103b25780630e8162ba146103dc5780631812d996146103f157806327a3e16b146104815780632888bb9c146104a45780632bd0bb05146104d0578063392e53cd146104e85780633dd95d1b146104fd5780633e6968b6146105155780633f0a9f651461052a578063408fef2e1461053f578063437764df1461055457806343b37dd31461059e578063490a32c6146105b35780634fb3fef7146105cb57806354a2b2b8146105e357806356b54bae1461062e578063630cea8e1461065f57806364d188eb1461068b57806367eeba0c146106a857806369ffa08a146106bd5780636ae1a976146106e45780637698da24146106fc578063879ce676146107145780638aa1949a1461072c5780638d068043146107415780638da5cb5b146107565780638f4b4b981461076b5780639943908914610783578063995b2cff146107985780639a454b99146107bf5780639cb7595a146107d4578063a018934514610815578063a2a6ca271461082a578063acf5c68914610842578063b20d30a91461085a578063bf1fe42014610872578063c6f6f2161461088a578063df0ad3de146108a2578063df25f3f0146108b7578063ea9f4968146108cc578063f20151e1146108e4578063f2fde38b146108fc578063f968adbe1461091d578063fe173b9714610932578063ffd19e8c14610947575b60008034811061022557600080fd5b361561023057600080fd5b6102393461095f565b151561024457600080fd5b61024c6109ab565b604080517fb4a523e80000000000000000000000000000000000000000000000000000000081523060048201529051919350600160a060020a0384169163b4a523e8916024808201926020929091908290030181600087803b1580156102b157600080fd5b505af11580156102c5573d6000803e3d6000fd5b505050506040513d60208110156102db57600080fd5b505190506102f76102ea610a6a565b829063ffffffff610b1e16565b34111561030357600080fd5b61033361030e610b30565b61032e3461032261031d610b30565b610b39565b9063ffffffff610bf616565b610c05565b61034761034234610322610a6a565b610cc2565b6040516000903480156108fc029183818181858288f19350505050158015610373573d6000803e3d6000fd5b506040805133815234602082015281517f127650bcfb0ba017401abe4931453a405140a8fd36fece67bae2db174d3fdd63929181900390910190a15050005b3480156103be57600080fd5b506103ca600435610d76565b60408051918252519081900360200190f35b3480156103e857600080fd5b506103ca610a6a565b3480156103fd57600080fd5b5061040c600435602435610df9565b6040805160208082528351818301528351919283929083019185019080838360005b8381101561044657818101518382015260200161042e565b50505050905090810190601f1680156104735780820380516001836020036101000a031916815260200191505b509250505060405180910390f35b34801561048d57600080fd5b506104a2600160a060020a0360043516610e90565b005b3480156104b057600080fd5b506104bc600435611024565b604080519115158252519081900360200190f35b3480156104dc57600080fd5b506103ca600435610b39565b3480156104f457600080fd5b506104bc6110ed565b34801561050957600080fd5b506104a26004356111a5565b34801561052157600080fd5b506103ca610b30565b34801561053657600080fd5b506103ca6112a7565b34801561054b57600080fd5b506103ca61131a565b34801561056057600080fd5b50610569611329565b604080517fffffffff000000000000000000000000000000000000000000000000000000009092168252519081900360200190f35b3480156105aa57600080fd5b506103ca6113cc565b3480156105bf57600080fd5b5061040c60043561143f565b3480156105d757600080fd5b506103ca600435611450565b3480156105ef57600080fd5b506104bc600160a060020a036004358116906024359060443590606435906084359060a4359060c43581169060e43590610104359061012435166114cb565b34801561063a57600080fd5b506106436109ab565b60408051600160a060020a039092168252519081900360200190f35b34801561066b57600080fd5b506104a26024600480358281019290820135918135918201910135611ca8565b34801561069757600080fd5b506104a26004356024351515612103565b3480156106b457600080fd5b506103ca6121e2565b3480156106c957600080fd5b506104a2600160a060020a0360043581169060243516612255565b3480156106f057600080fd5b506103ca60043561240b565b34801561070857600080fd5b506104bc60043561248e565b34801561072057600080fd5b506104bc600435612512565b34801561073857600080fd5b506103ca61254f565b34801561074d57600080fd5b506103ca6125c2565b34801561076257600080fd5b5061064361263a565b34801561077757600080fd5b506104bc6004356126ae565b34801561078f57600080fd5b50610643612732565b3480156107a457600080fd5b506104a2600160a060020a03600435166024356044356127a6565b3480156107cb57600080fd5b506103ca612a96565b3480156107e057600080fd5b506107e9612b09565b6040805167ffffffffffffffff9485168152928416602084015292168183015290519081900360600190f35b34801561082157600080fd5b506103ca612b13565b34801561083657600080fd5b506104a2600435612b86565b34801561084e57600080fd5b506104a2600435612c3b565b34801561086657600080fd5b506104a2600435612d4a565b34801561087e57600080fd5b506104a2600435612e4c565b34801561089657600080fd5b506104a2600435612f5b565b3480156108ae57600080fd5b50610643612ffc565b3480156108c357600080fd5b506103ca61303c565b3480156108d857600080fd5b506104bc60043561095f565b3480156108f057600080fd5b506104a26004356130af565b34801561090857600080fd5b506104a2600160a060020a0360043516613150565b34801561092957600080fd5b506103ca61318d565b34801561093e57600080fd5b506103ca613200565b34801561095357600080fd5b506104bc600435613273565b6000806109718361032261031d610b30565b90508061097c6121e2565b10158015610991575061098d61318d565b8311155b80156109a457506109a061303c565b8310155b9392505050565b60006002600060405160200180807f626c6f636b526577617264436f6e74726163740000000000000000000000000081525060130190506040516020818303038152906040526040518082805190602001908083835b60208310610a205780518252601f199092019160209182019101610a01565b51815160209384036101000a6000190180199092169116179052604080519290940182900390912086528501959095529290920160002054600160a060020a031693505050505b90565b600080600060405160200180807f746f74616c4275726e74436f696e730000000000000000000000000000000000815250600f0190506040516020818303038152906040526040518082805190602001908083835b60208310610ade5780518252601f199092019160209182019101610abf565b51815160209384036101000a6000190180199092169116179052604080519290940182900390912086528501959095529290920160002054949350505050565b600082821115610b2a57fe5b50900390565b62015180420490565b60008060008360405160200180807f746f74616c5370656e74506572446179000000000000000000000000000000008152506010018281526020019150506040516020818303038152906040526040518082805190602001908083835b60208310610bb55780518252601f199092019160209182019101610b96565b51815160209384036101000a600019018019909216911617905260408051929094018290039091208652850195909552929092016000205495945050505050565b6000828201838110156109a457fe5b806000808460405160200180807f746f74616c5370656e74506572446179000000000000000000000000000000008152506010018281526020019150506040516020818303038152906040526040518082805190602001908083835b60208310610c805780518252601f199092019160209182019101610c61565b51815160209384036101000a60001901801990921691161790526040805192909401829003909120865285019590955292909201600020939093555050505050565b8060008060405160200180807f746f74616c4275726e74436f696e730000000000000000000000000000000000815250600f0190506040516020818303038152906040526040518082805190602001908083835b60208310610d355780518252601f199092019160209182019101610d16565b51815160209384036101000a600019018019909216911617905260408051929094018290039091208652850195909552929092016000209390935550505050565b60008060008360405160200180807f6e756d4d657373616765735369676e6564000000000000000000000000000000815250601101826000191660001916815260200191505060405160208183030381529060405260405180828051906020019080838360208310610bb55780518252601f199092019160209182019101610b96565b604080516020808201859052818301849052825180830384018152606092830193849052805192936000939192909182918401908083835b60208310610e505780518252601f199092019160209182019101610e31565b6001836020036101000a03801982511681845116808217855250505050505090500191505060405180910390209050610e888161329b565b949350505050565b610e9861263a565b600160a060020a03163314610eac57600080fd5b600160a060020a03811615801590610ec85750610ec881613403565b8015610f3c575080600160a060020a03166310f2ee7c6040518163ffffffff1660e060020a028152600401602060405180830381600087803b158015610f0d57600080fd5b505af1158015610f21573d6000803e3d6000fd5b505050506040513d6020811015610f3757600080fd5b505115155b1515610f4757600080fd5b806002600060405160200180807f626c6f636b526577617264436f6e74726163740000000000000000000000000081525060130190506040516020818303038152906040526040518082805190602001908083835b60208310610fbb5780518252601f199092019160209182019101610f9c565b51815160209384036101000a60001901801990921691161790526040805192909401829003909120865285019590955292909201600020805473ffffffffffffffffffffffffffffffffffffffff1916600160a060020a03959095169490941790935550505050565b6000600460008360405160200180807f6669786564417373657473000000000000000000000000000000000000000000815250600b0182600019166000191681526020019150506040516020818303038152906040526040518082805190602001908083835b602083106110a95780518252601f19909201916020918201910161108a565b51815160209384036101000a600019018019909216911617905260408051929094018290039091208652850195909552929092016000205460ff1695945050505050565b60006004600060405160200180807f6973496e697469616c697a656400000000000000000000000000000000000000815250600d0190506040516020818303038152906040526040518082805190602001908083835b602083106111625780518252601f199092019160209182019101611143565b51815160209384036101000a600019018019909216911617905260408051929094018290039091208652850195909552929092016000205460ff16949350505050565b6111ad61263a565b600160a060020a031633146111c157600080fd5b8060008060405160200180807f657865637574696f6e4461696c794c696d69740000000000000000000000000081525060130190506040516020818303038152906040526040518082805190602001908083835b602083106112345780518252601f199092019160209182019101611215565b51815160001960209485036101000a019081169019919091161790526040805194909201849003909320865285830196909652509284016000209490945550815184815291517f9bebf928b90863f24cc31f726a3a7545efd409f1dcf552301b1ee3710da70d3b9350918290030190a150565b600080600060405160200180807f7265717569726564426c6f636b436f6e6669726d6174696f6e73000000000000815250601a01905060405160208183030381529060405260405180828051906020019080838360208310610ade5780518252601f199092019160209182019101610abf565b600061132461340b565b905090565b600060405160200180807f6572632d746f2d6e61746976652d636f7265000000000000000000000000000081525060120190506040516020818303038152906040526040518082805190602001908083835b6020831061139a5780518252601f19909201916020918201910161137b565b6001836020036101000a0380198251168184511680821785525050505050509050019150506040518091039020905090565b600080600060405160200180807f657865637574696f6e4461696c794c696d697400000000000000000000000000815250601301905060405160208183030381529060405260405180828051906020019080838360208310610ade5780518252601f199092019160209182019101610abf565b606061144a82613410565b92915050565b60008060008360405160200180807f746f74616c45786563757465645065724461790000000000000000000000000081525060130182815260200191505060405160208183030381529060405260405180828051906020019080838360208310610bb55780518252601f199092019160209182019101610b96565b60006114d56110ed565b156114df57600080fd5b600160a060020a038b16158015906114fb57506114fb8b613403565b151561150657600080fd5b6000861161151357600080fd5b60008811801561152257508789115b801561152d5750888a115b151561153857600080fd5b600160a060020a0385161580611552575061155285613403565b151561155d57600080fd5b83831061156957600080fd5b600160a060020a038216151561157e57600080fd5b8a6002600060405160200180807f76616c696461746f72436f6e747261637400000000000000000000000000000081525060110190506040516020818303038152906040526040518082805190602001908083835b602083106115f25780518252601f1990920191602091820191016115d3565b51815160209384036101000a60001901801990921691161790526040805192909401829003909120865285810196909652509283016000908120805473ffffffffffffffffffffffffffffffffffffffff1916600160a060020a039790971696909617909555505080517f6465706c6f7965644174426c6f636b0000000000000000000000000000000000818401528151600f818303018152602f90910191829052805143949384939182918401908083835b602083106116c45780518252601f1990920191602091820191016116a5565b51815160209384036101000a6000190180199092169116179052604080519290940182900390912086528581019690965250928301600090812095909555505080517f6461696c794c696d697400000000000000000000000000000000000000000000818401528151600a818303018152602a9091019182905280518e949384939182918401908083835b6020831061176e5780518252601f19909201916020918201910161174f565b51815160209384036101000a6000190180199092169116179052604080519290940182900390912086528581019690965250928301600090812095909555505080517f6d61785065725478000000000000000000000000000000000000000000000000818401528151600881830301815260289091019182905280518d949384939182918401908083835b602083106118185780518252601f1990920191602091820191016117f9565b51815160209384036101000a6000190180199092169116179052604080519290940182900390912086528581019690965250928301600090812095909555505080517f6d696e5065725478000000000000000000000000000000000000000000000000818401528151600881830301815260289091019182905280518c949384939182918401908083835b602083106118c25780518252601f1990920191602091820191016118a3565b51815160209384036101000a6000190180199092169116179052604080519290940182900390912086528581019690965250928301600090812095909555505080517f6761735072696365000000000000000000000000000000000000000000000000818401528151600881830301815260289091019182905280518b949384939182918401908083835b6020831061196c5780518252601f19909201916020918201910161194d565b51815160209384036101000a6000190180199092169116179052604080519290940182900390912086528581019690965250928301600090812095909555505080517f7265717569726564426c6f636b436f6e6669726d6174696f6e73000000000000818401528151601a818303018152603a9091019182905280518a949384939182918401908083835b60208310611a165780518252601f1990920191602091820191016119f7565b51815160209384036101000a6000190180199092169116179052604080519290940182900390912086528581019690965250928301600090812095909555505080517f626c6f636b526577617264436f6e74726163740000000000000000000000000081840152815160138183030181526033909101918290528051899460029490939182918401908083835b60208310611ac25780518252601f199092019160209182019101611aa3565b51815160209384036101000a60001901801990921691161790526040805192909401829003909120865285810196909652509283016000908120805473ffffffffffffffffffffffffffffffffffffffff1916600160a060020a039790971696909617909555505080517f657865637574696f6e4461696c794c696d6974000000000000000000000000008184015281516013818303018152603390910191829052805188949384939182918401908083835b60208310611b945780518252601f199092019160209182019101611b75565b51815160209384036101000a6000190180199092169116179052604080519290940182900390912086528581019690965250928301600090812095909555505080517f657865637574696f6e4d617850657254780000000000000000000000000000008184015281516011818303018152603190910191829052805187949384939182918401908083835b60208310611c3e5780518252601f199092019160209182019101611c1f565b51815160209384036101000a600019018019909216911617905260408051929094018290039091208652850195909552929092016000209390935550611c879150839050613494565b611c916001613552565b611c996110ed565b9b9a5050505050505050505050565b6000806000806000611cb8612732565b600160a060020a031663facd743b336040518263ffffffff1660e060020a0281526004018082600160a060020a0316600160a060020a03168152602001915050602060405180830381600087803b158015611d1257600080fd5b505af1158015611d26573d6000803e3d6000fd5b505050506040513d6020811015611d3c57600080fd5b50511515611d4957600080fd5b611d8287878080601f01602080910402602001604051908101604052809392919081815260200183838082843750613613945050505050565b1515611d8d57600080fd5b611df489898080601f0160208091040260200160405190810160405280939291908181526020018383808284375050604080516020601f8f018190048102820181019092528d815294508d93508c9250829150840183828082843750613627945050505050565b600160a060020a03163314611e0857600080fd5b8686604051602001808383808284378201915050925050506040516020818303038152906040526040518082805190602001908083835b60208310611e5e5780518252601f199092019160209182019101611e3f565b51815160209384036101000a600019018019909216911617905260408051929094018290038220336c0100000000000000000000000002838301526034808401829052855180850390910181526054909301948590528251909b509195509293508392850191508083835b60208310611ee85780518252601f199092019160209182019101611ec9565b6001836020036101000a03801982511681845116808217855250505050505090500191505060405180910390209350611f2085610d76565b9250611f2b83613273565b15611f3557600080fd5b600192830192831115611f5a57611f4b846126ae565b15611f5557600080fd5b611f94565b611f948588888080601f016020809104026020016040519081016040528093929190818152602001838380828437506136e7945050505050565b611f9f8460016137be565b604080516020808201889052600019860182840152825180830384018152606090920192839052815191929182918401908083835b60208310611ff35780518252601f199092019160209182019101611fd4565b51815160209384036101000a600019018019909216911617905260408051929094018290038220601f8f018290048202830182019094528d82529296506120549450869350918d91508c908190840183828082843750613890945050505050565b61205e8584613913565b60408051868152905133917fbf06885f40778f5ccfb64497d3f92ce568ddaedb7e2fb4487f72690418cf8e4c919081900360200190a261209c6125c2565b90508083106120f8576120b7856120b285613995565b613913565b604080513381526020810187905280820183905290517f415557404d88a0c0b8e3b16967cafffc511213fd9c465c16832ee17ed57d72379181900360600190a15b505050505050505050565b60008061210e612ffc565b600160a060020a0316331461212257600080fd5b61212b84611024565b1561213557600080fd5b61213e846139ba565b9092509050600160a060020a0382161580159061215b5750600081115b151561216657600080fd5b61218661218182612175612b13565b9063ffffffff610b1e16565b613b41565b82156121d15760408051600160a060020a03841681526020810183905281517f127650bcfb0ba017401abe4931453a405140a8fd36fece67bae2db174d3fdd63929181900390910190a15b6121dc846001613bb3565b50505050565b600080600060405160200180807f6461696c794c696d697400000000000000000000000000000000000000000000815250600a01905060405160208183030381529060405260405180828051906020019080838360208310610ade5780518252601f199092019160209182019101610abf565b600080612260612ffc565b600160a060020a0316331461227457600080fd5b600160a060020a038316151561228957600080fd5b600160a060020a03841615156122d557604051600160a060020a03841690303180156108fc02916000818181858888f193505050501580156122cf573d6000803e3d6000fd5b506121dc565b604080517f70a082310000000000000000000000000000000000000000000000000000000081523060048201529051859350600160a060020a038416916370a082319160248083019260209291908290030181600087803b15801561233957600080fd5b505af115801561234d573d6000803e3d6000fd5b505050506040513d602081101561236357600080fd5b5051604080517fa9059cbb000000000000000000000000000000000000000000000000000000008152600160a060020a0386811660048301526024820184905291519293509084169163a9059cbb916044808201926020929091908290030181600087803b1580156123d457600080fd5b505af11580156123e8573d6000803e3d6000fd5b505050506040513d60208110156123fe57600080fd5b505115156121dc57600080fd5b60008060008360405160200180807f6e756d41666669726d6174696f6e735369676e65640000000000000000000000815250601501826000191660001916815260200191505060405160208183030381529060405260405180828051906020019080838360208310610bb55780518252601f199092019160209182019101610b96565b6000600460008360405160200180807f61666669726d6174696f6e735369676e656400000000000000000000000000008152506012018260001916600019168152602001915050604051602081830303815290604052604051808280519060200190808383602083106110a95780518252601f19909201916020918201910161108a565b60008061252983610322612524610b30565b611450565b9050806125346113cc565b101580156109a4575061254561254f565b9092111592915050565b600080600060405160200180807f657865637574696f6e4d61785065725478000000000000000000000000000000815250601101905060405160208183030381529060405260405180828051906020019080838360208310610ade5780518252601f199092019160209182019101610abf565b60006125cc612732565b600160a060020a0316638d0680436040518163ffffffff1660e060020a028152600401602060405180830381600087803b15801561260957600080fd5b505af115801561261d573d6000803e3d6000fd5b505050506040513d602081101561263357600080fd5b5051905090565b60006002600060405160200180807f6f776e6572000000000000000000000000000000000000000000000000000000815250600501905060405160208183030381529060405260405180828051906020019080838360208310610a205780518252601f199092019160209182019101610a01565b6000600460008360405160200180807f6d657373616765735369676e6564000000000000000000000000000000000000815250600e018260001916600019168152602001915050604051602081830303815290604052604051808280519060200190808383602083106110a95780518252601f19909201916020918201910161108a565b60006002600060405160200180807f76616c696461746f72436f6e7472616374000000000000000000000000000000815250601101905060405160208183030381529060405260405180828051906020019080838360208310610a205780518252601f199092019160209182019101610a01565b60008060006127b3612732565b600160a060020a031663facd743b336040518263ffffffff1660e060020a0281526004018082600160a060020a0316600160a060020a03168152602001915050602060405180830381600087803b15801561280d57600080fd5b505af1158015612821573d6000803e3d6000fd5b505050506040513d602081101561283757600080fd5b5051151561284457600080fd5b61284d85613c36565b15612a8357604080516c01000000000000000000000000600160a060020a0389160260208083019190915260348201889052605480830188905283518084039091018152607490920192839052815191929182918401908083835b602083106128c75780518252601f1990920191602091820191016128a8565b51815160209384036101000a600019018019909216911617905260408051929094018290038220336c01000000000000000000000000028383015260348084018290528551808503909101815260549093019485905282519099509195509293508392850191508083835b602083106129515780518252601f199092019160209182019101612932565b6001836020036101000a038019825116818451168082178552505050505050905001915050604051809103902091506129898261248e565b1561299357600080fd5b61299e826001613c41565b6129a78361240b565b90506129b281613273565b156129bc57600080fd5b6001016129c98382613cc4565b60408051858152905133917f5df9cc3eb93d8a9a481857a3b70a8ca966e6b80b25cf0ee2cce180ec5afa80a1919081900360200190a2612a076125c2565b8110612a7e57612a1f83612a1a83613995565b613cc4565b612a298686613d46565b1515612a3457600080fd5b60408051600160a060020a03881681526020810187905280820186905290517f6fc115a803b8703117d9a3956c5a15401cb42401f91630f015eb6b043fa762539181900360600190a15b612a8e565b612a8e868686613e0c565b505050505050565b600080600060405160200180807f6465706c6f7965644174426c6f636b0000000000000000000000000000000000815250600f01905060405160208183030381529060405260405180828051906020019080838360208310610ade5780518252601f199092019160209182019101610abf565b6002806000909192565b600080600060405160200180807f6f75744f664c696d6974416d6f756e7400000000000000000000000000000000815250601001905060405160208183030381529060405260405180828051906020019080838360208310610ade5780518252601f199092019160209182019101610abf565b612b8e61263a565b600160a060020a03163314612ba257600080fd5b612baa6121e2565b81108015612bbe5750612bbb61318d565b81105b1515612bc957600080fd5b8060008060405160200180807f6d696e5065725478000000000000000000000000000000000000000000000000815250600801905060405160208183030381529060405260405180828051906020019080838360208310610d355780518252601f199092019160209182019101610d16565b612c4361263a565b600160a060020a03163314612c5757600080fd5b60008111612c6457600080fd5b8060008060405160200180807f7265717569726564426c6f636b436f6e6669726d6174696f6e73000000000000815250601a0190506040516020818303038152906040526040518082805190602001908083835b60208310612cd75780518252601f199092019160209182019101612cb8565b51815160001960209485036101000a019081169019919091161790526040805194909201849003909320865285830196909652509284016000209490945550815184815291517f4fb76205cd57c896b21511d2114137d8e901b4ccd659e1a0f97d6306795264fb9350918290030190a150565b612d5261263a565b600160a060020a03163314612d6657600080fd5b8060008060405160200180807f6461696c794c696d697400000000000000000000000000000000000000000000815250600a0190506040516020818303038152906040526040518082805190602001908083835b60208310612dd95780518252601f199092019160209182019101612dba565b51815160001960209485036101000a019081169019919091161790526040805194909201849003909320865285830196909652509284016000209490945550815184815291517fad4123ae17c414d9c6d2fec478b402e6b01856cc250fd01fbfd252fda0089d3c9350918290030190a150565b612e5461263a565b600160a060020a03163314612e6857600080fd5b60008111612e7557600080fd5b8060008060405160200180807f676173507269636500000000000000000000000000000000000000000000000081525060080190506040516020818303038152906040526040518082805190602001908083835b60208310612ee85780518252601f199092019160209182019101612ec9565b51815160001960209485036101000a019081169019919091161790526040805194909201849003909320865285830196909652509284016000209490945550815184815291517f52264b89e0fceafb26e79fd49ef8a366eb6297483bf4035b027f0c99a7ad512e9350918290030190a150565b612f6361263a565b600160a060020a03163314612f7757600080fd5b612f7f6121e2565b8110612f8a57600080fd5b8060008060405160200180807f6d61785065725478000000000000000000000000000000000000000000000000815250600801905060405160208183030381529060405260405180828051906020019080838360208310610d355780518252601f199092019160209182019101610d16565b600030600160a060020a031663025313a26040518163ffffffff1660e060020a028152600401602060405180830381600087803b15801561260957600080fd5b600080600060405160200180807f6d696e5065725478000000000000000000000000000000000000000000000000815250600801905060405160208183030381529060405260405180828051906020019080838360208310610ade5780518252601f199092019160209182019101610abf565b6130b761263a565b600160a060020a031633146130cb57600080fd5b6130d36113cc565b81106130de57600080fd5b8060008060405160200180807f657865637574696f6e4d61785065725478000000000000000000000000000000815250601101905060405160208183030381529060405260405180828051906020019080838360208310610d355780518252601f199092019160209182019101610d16565b61315861263a565b600160a060020a0316331461316c57600080fd5b600160a060020a038116151561318157600080fd5b61318a81613494565b50565b600080600060405160200180807f6d61785065725478000000000000000000000000000000000000000000000000815250600801905060405160208183030381529060405260405180828051906020019080838360208310610ade5780518252601f199092019160209182019101610abf565b600080600060405160200180807f6761735072696365000000000000000000000000000000000000000000000000815250600801905060405160208183030381529060405260405180828051906020019080838360208310610ade5780518252601f199092019160209182019101610abf565b7f80000000000000000000000000000000000000000000000000000000000000009081161490565b6060600360008360405160200180807f7369676e61747572657300000000000000000000000000000000000000000000815250600a0182600019166000191681526020019150506040516020818303038152906040526040518082805190602001908083835b602083106133205780518252601f199092019160209182019101613301565b6001836020036101000a0380198251168184511680821785525050505050509050019150506040518091039020600019166000191681526020019081526020016000208054600181600116156101000203166002900480601f0160208091040260200160405190810160405280929190818152602001828054600181600116156101000203166002900480156133f75780601f106133cc576101008083540402835291602001916133f7565b820191906000526020600020905b8154815290600101906020018083116133da57829003601f168201915b50505050509050919050565b6000903b1190565b606890565b6060600360008360405160200180807f6d657373616765730000000000000000000000000000000000000000000000008152506008018260001916600019168152602001915050604051602081830303815290604052604051808280519060200190808383602083106133205780518252601f199092019160209182019101613301565b7f8be0079c531659141344cd1fd0a4f28419497f9722a3daafe3b4186f6b6457e06134bd61263a565b60408051600160a060020a03928316815291841660208301528051918290030190a1806002600060405160200180807f6f776e6572000000000000000000000000000000000000000000000000000000815250600501905060405160208183030381529060405260405180828051906020019080838360208310610fbb5780518252601f199092019160209182019101610f9c565b806004600060405160200180807f6973496e697469616c697a656400000000000000000000000000000000000000815250600d0190506040516020818303038152906040526040518082805190602001908083835b602083106135c65780518252601f1990920191602091820191016135a7565b51815160209384036101000a60001901801990921691161790526040805192909401829003909120865285019590955292909201600020805460ff19169415159490941790935550505050565b600061361d61340b565b8251149050919050565b6000806000808551604114151561363d57600080fd5b505050602083015160408401516060850151600161365a86613ea7565b60408051600080825260208083018085529490945260ff7f0100000000000000000000000000000000000000000000000000000000000000870416828401526060820188905260808201879052915160a08083019493601f198301938390039091019190865af11580156136d2573d6000803e3d6000fd5b5050604051601f190151979650505050505050565b80600360008460405160200180807f6d6573736167657300000000000000000000000000000000000000000000000081525060080182600019166000191681526020019150506040516020818303038152906040526040518082805190602001908083835b6020831061376b5780518252601f19909201916020918201910161374c565b51815160001960209485036101000a019081169019919091161790526040805194909201849003909320865285830196909652509290930160002084516137b9959194509201919050614287565b505050565b80600460008460405160200180807f6d657373616765735369676e6564000000000000000000000000000000000000815250600e0182600019166000191681526020019150506040516020818303038152906040526040518082805190602001908083835b602083106138425780518252601f199092019160209182019101613823565b51815160209384036101000a60001901801990921691161790526040805192909401829003909120865285019590955292909201600020805460ff1916941515949094179093555050505050565b80600360008460405160200180807f7369676e61747572657300000000000000000000000000000000000000000000815250600a0182600019166000191681526020019150506040516020818303038152906040526040518082805190602001908083836020831061376b5780518252601f19909201916020918201910161374c565b806000808460405160200180807f6e756d4d657373616765735369676e6564000000000000000000000000000000815250601101826000191660001916815260200191505060405160208183030381529060405260405180828051906020019080838360208310610c805780518252601f199092019160209182019101610c61565b7f80000000000000000000000000000000000000000000000000000000000000001790565b600080600260008460405160200180807f74784f75744f664c696d6974526563697069656e74000000000000000000000081525060150182600019166000191681526020019150506040516020818303038152906040526040518082805190602001908083835b60208310613a405780518252601f199092019160209182019101613a21565b51815160209384036101000a600019018019909216911617905260408051929094018290039091208652858101969096525092830160009081205484517f74784f75744f664c696d697456616c75650000000000000000000000000000008188015260318082018b9052865180830390910181526051909101958690528051600160a060020a0390921698509195869592945091925082918401908083835b60208310613afe5780518252601f199092019160209182019101613adf565b51815160209384036101000a6000190180199092169116179052604080519290940182900390912086528501959095529290920160002054949694955050505050565b8060008060405160200180807f6f75744f664c696d6974416d6f756e7400000000000000000000000000000000815250601001905060405160208183030381529060405260405180828051906020019080838360208310610d355780518252601f199092019160209182019101610d16565b80600460008460405160200180807f6669786564417373657473000000000000000000000000000000000000000000815250600b018260001916600019168152602001915050604051602081830303815290604052604051808280519060200190808383602083106138425780518252601f199092019160209182019101613823565b600061144a82612512565b80600460008460405160200180807f61666669726d6174696f6e735369676e656400000000000000000000000000008152506012018260001916600019168152602001915050604051602081830303815290604052604051808280519060200190808383602083106138425780518252601f199092019160209182019101613823565b806000808460405160200180807f6e756d41666669726d6174696f6e735369676e65640000000000000000000000815250601501826000191660001916815260200191505060405160208183030381529060405260405180828051906020019080838360208310610c805780518252601f199092019160209182019101610c61565b600080613d68613d54610b30565b613d6385610322612524610b30565b61406c565b613d706109ab565b9050600160a060020a0381161515613d8757600080fd5b80600160a060020a031663aa9fa27484866040518363ffffffff1660e060020a0281526004018083815260200182600160a060020a0316600160a060020a0316815260200192505050600060405180830381600087803b158015613dea57600080fd5b505af1158015613dfe573d6000803e3d6000fd5b506001979650505050505050565b600080613e18836139ba565b9092509050600160a060020a038216158015613e32575080155b1515613e3d57600080fd5b613e4c61218185610322612b13565b613e578585856140e6565b60408051600160a060020a03871681526020810186905280820185905290517f159c0773f543f1e17d5e78327702770947055eb4e871b529bbc78bc9fde456929181900360600190a15050505050565b604080518082018252601a81527f19457468657265756d205369676e6564204d6573736167653a0a000000000000602080830191825283518085018552600381527f313034000000000000000000000000000000000000000000000000000000000081830152935183516000959385938593899391019182918083835b60208310613f435780518252601f199092019160209182019101613f24565b51815160209384036101000a600019018019909216911617905286519190930192860191508083835b60208310613f8b5780518252601f199092019160209182019101613f6c565b51815160209384036101000a600019018019909216911617905285519190930192850191508083835b60208310613fd35780518252601f199092019160209182019101613fb4565b6001836020036101000a03801982511681845116808217855250505050505090500193505050506040516020818303038152906040526040518082805190602001908083835b602083106140385780518252601f199092019160209182019101614019565b5181516020939093036101000a60001901801990911692169190911790526040519201829003909120979650505050505050565b806000808460405160200180807f746f74616c45786563757465645065724461790000000000000000000000000081525060130182815260200191505060405160208183030381529060405260405180828051906020019080838360208310610c805780518252601f199092019160209182019101610c61565b82600260008360405160200180807f74784f75744f664c696d6974526563697069656e74000000000000000000000081525060150182600019166000191681526020019150506040516020818303038152906040526040518082805190602001908083835b6020831061416a5780518252601f19909201916020918201910161414b565b51815160209384036101000a60001901801990921691161790526040805192909401829003909120865285810196909652509283016000908120805473ffffffffffffffffffffffffffffffffffffffff1916600160a060020a039790971696909617909555505080517f74784f75744f664c696d697456616c756500000000000000000000000000000081840152603180820186905282518083039091018152605190910191829052805186949384939182918401908083835b602083106142445780518252601f199092019160209182019101614225565b51815160209384036101000a6000190180199092169116179052604080519290940182900390912086528501959095529290920160002093909355505050505050565b828054600181600116156101000203166002900490600052602060002090601f016020900481019282601f106142c857805160ff19168380011785556142f5565b828001600101855582156142f5579182015b828111156142f55782518255916020019190600101906142da565b50614301929150614305565b5090565b610a6791905b80821115614301576000815560010161430b5600a165627a7a72305820c3ec1521dca307d3cc0e8c20539f0d1d4e99370f8537847a5025f669d41d2f8a0029",
  "source": "pragma solidity 0.4.24;\nimport \"../../libraries/SafeMath.sol\";\nimport \"../../libraries/Message.sol\";\nimport \"../BasicBridge.sol\";\nimport \"../../upgradeability/EternalStorage.sol\";\nimport \"../../IBlockReward.sol\";\nimport \"../../ERC677Receiver.sol\";\nimport \"../BasicHomeBridge.sol\";\nimport \"../ERC677Bridge.sol\";\nimport \"../OverdrawManagement.sol\";\n\n\ncontract HomeBridgeErcToNative is EternalStorage, BasicBridge, BasicHomeBridge, OverdrawManagement {\n\n    event AmountLimitExceeded(address recipient, uint256 value, bytes32 transactionHash);\n\n    function () public payable {\n        require(msg.value > 0);\n        require(msg.data.length == 0);\n        require(withinLimit(msg.value));\n        IBlockReward blockReward = blockRewardContract();\n        uint256 totalMinted = blockReward.mintedTotallyByBridge(address(this));\n        require(msg.value <= totalMinted.sub(totalBurntCoins()));\n        setTotalSpentPerDay(getCurrentDay(), totalSpentPerDay(getCurrentDay()).add(msg.value));\n        setTotalBurntCoins(totalBurntCoins().add(msg.value));\n        address(0).transfer(msg.value);\n        emit UserRequestForSignature(msg.sender, msg.value);\n    }\n\n    function initialize (\n        address _validatorContract,\n        uint256 _dailyLimit,\n        uint256 _maxPerTx,\n        uint256 _minPerTx,\n        uint256 _homeGasPrice,\n        uint256 _requiredBlockConfirmations,\n        address _blockReward,\n        uint256 _foreignDailyLimit,\n        uint256 _foreignMaxPerTx,\n        address _owner\n    ) public returns(bool)\n    {\n        require(!isInitialized());\n        require(_validatorContract != address(0) && isContract(_validatorContract));\n        require(_requiredBlockConfirmations > 0);\n        require(_minPerTx > 0 && _maxPerTx > _minPerTx && _dailyLimit > _maxPerTx);\n        require(_blockReward == address(0) || isContract(_blockReward));\n        require(_foreignMaxPerTx < _foreignDailyLimit);\n        require(_owner != address(0));\n        addressStorage[keccak256(abi.encodePacked(\"validatorContract\"))] = _validatorContract;\n        uintStorage[keccak256(abi.encodePacked(\"deployedAtBlock\"))] = block.number;\n        uintStorage[keccak256(abi.encodePacked(\"dailyLimit\"))] = _dailyLimit;\n        uintStorage[keccak256(abi.encodePacked(\"maxPerTx\"))] = _maxPerTx;\n        uintStorage[keccak256(abi.encodePacked(\"minPerTx\"))] = _minPerTx;\n        uintStorage[keccak256(abi.encodePacked(\"gasPrice\"))] = _homeGasPrice;\n        uintStorage[keccak256(abi.encodePacked(\"requiredBlockConfirmations\"))] = _requiredBlockConfirmations;\n        addressStorage[keccak256(abi.encodePacked(\"blockRewardContract\"))] = _blockReward;\n        uintStorage[keccak256(abi.encodePacked(\"executionDailyLimit\"))] = _foreignDailyLimit;\n        uintStorage[keccak256(abi.encodePacked(\"executionMaxPerTx\"))] = _foreignMaxPerTx;\n        setOwner(_owner);\n        setInitialize(true);\n\n        return isInitialized();\n    }\n\n    function getBridgeMode() public pure returns(bytes4 _data) {\n        return bytes4(keccak256(abi.encodePacked(\"erc-to-native-core\")));\n    }\n\n    function blockRewardContract() public view returns(IBlockReward) {\n        return IBlockReward(addressStorage[keccak256(abi.encodePacked(\"blockRewardContract\"))]);\n    }\n\n    function totalBurntCoins() public view returns(uint256) {\n        return uintStorage[keccak256(abi.encodePacked(\"totalBurntCoins\"))];\n    }\n\n    function setBlockRewardContract(address _blockReward) public onlyOwner {\n        require(_blockReward != address(0) && isContract(_blockReward) && (IBlockReward(_blockReward).bridgesAllowedLength() != 0));\n        addressStorage[keccak256(abi.encodePacked(\"blockRewardContract\"))] = _blockReward;\n    }\n\n    function onExecuteAffirmation(address _recipient, uint256 _value) internal returns(bool) {\n        setTotalExecutedPerDay(getCurrentDay(), totalExecutedPerDay(getCurrentDay()).add(_value));\n        IBlockReward blockReward = blockRewardContract();\n        require(blockReward != address(0));\n        blockReward.addExtraReceiver(_value, _recipient);\n        return true;\n    }\n\n    function fireEventOnTokenTransfer(address _from, uint256 _value) internal {\n        emit UserRequestForSignature(_from, _value);\n    }\n\n    function setTotalBurntCoins(uint256 _amount) internal {\n        uintStorage[keccak256(abi.encodePacked(\"totalBurntCoins\"))] = _amount;\n    }\n\n    function affirmationWithinLimits(uint256 _amount) internal view returns(bool) {\n        return withinExecutionLimit(_amount);\n    }\n\n    function onFailedAffirmation(address _recipient, uint256 _value, bytes32 _txHash) internal {\n        address recipient;\n        uint256 value;\n        (recipient, value) = txAboveLimits(_txHash);\n        require(recipient == address(0) && value == 0);\n        setOutOfLimitAmount(outOfLimitAmount().add(_value));\n        setTxAboveLimits(_recipient, _value, _txHash);\n        emit AmountLimitExceeded(_recipient, _value, _txHash);\n    }\n}\n",
  "sourcePath": "/contracts/contracts/upgradeable_contracts/erc20_to_native/HomeBridgeErcToNative.sol",
  "compiler": {
    "name": "solc",
    "version": "0.4.24+commit.e67f0147.Emscripten.clang"
  },
  "schemaVersion": "2.0.0",
  "updatedAt": "2019-02-27T05:38:44.538Z"
}