{
  "contractName": "HomeBridgeErcToErc",
  "abi": [
    {
      "constant": true,
      "inputs": [
        {
          "name": "_message",
          "type": "bytes32"
        }
      ],
      "name": "numMessagesSigned",
      "outputs": [
        {
          "name": "",
          "type": "uint256"
        }
      ],
      "payable": false,
      "stateMutability": "view",
      "type": "function"
    },
    {
      "constant": true,
      "inputs": [
        {
          "name": "_hash",
          "type": "bytes32"
        },
        {
          "name": "_index",
          "type": "uint256"
        }
      ],
      "name": "signature",
      "outputs": [
        {
          "name": "",
          "type": "bytes"
        }
      ],
      "payable": false,
      "stateMutability": "view",
      "type": "function"
    },
    {
      "constant": true,
      "inputs": [],
      "name": "erc677token",
      "outputs": [
        {
          "name": "",
          "type": "address"
        }
      ],
      "payable": false,
      "stateMutability": "view",
      "type": "function"
    },
    {
      "constant": true,
      "inputs": [
        {
          "name": "_txHash",
          "type": "bytes32"
        }
      ],
      "name": "fixedAssets",
      "outputs": [
        {
          "name": "",
          "type": "bool"
        }
      ],
      "payable": false,
      "stateMutability": "view",
      "type": "function"
    },
    {
      "constant": true,
      "inputs": [
        {
          "name": "_day",
          "type": "uint256"
        }
      ],
      "name": "totalSpentPerDay",
      "outputs": [
        {
          "name": "",
          "type": "uint256"
        }
      ],
      "payable": false,
      "stateMutability": "view",
      "type": "function"
    },
    {
      "constant": true,
      "inputs": [],
      "name": "isInitialized",
      "outputs": [
        {
          "name": "",
          "type": "bool"
        }
      ],
      "payable": false,
      "stateMutability": "view",
      "type": "function"
    },
    {
      "constant": false,
      "inputs": [
        {
          "name": "_dailyLimit",
          "type": "uint256"
        }
      ],
      "name": "setExecutionDailyLimit",
      "outputs": [],
      "payable": false,
      "stateMutability": "nonpayable",
      "type": "function"
    },
    {
      "constant": true,
      "inputs": [],
      "name": "getCurrentDay",
      "outputs": [
        {
          "name": "",
          "type": "uint256"
        }
      ],
      "payable": false,
      "stateMutability": "view",
      "type": "function"
    },
    {
      "constant": true,
      "inputs": [],
      "name": "requiredBlockConfirmations",
      "outputs": [
        {
          "name": "",
          "type": "uint256"
        }
      ],
      "payable": false,
      "stateMutability": "view",
      "type": "function"
    },
    {
      "constant": true,
      "inputs": [],
      "name": "requiredMessageLength",
      "outputs": [
        {
          "name": "",
          "type": "uint256"
        }
      ],
      "payable": false,
      "stateMutability": "pure",
      "type": "function"
    },
    {
      "constant": true,
      "inputs": [],
      "name": "executionDailyLimit",
      "outputs": [
        {
          "name": "",
          "type": "uint256"
        }
      ],
      "payable": false,
      "stateMutability": "view",
      "type": "function"
    },
    {
      "constant": true,
      "inputs": [
        {
          "name": "_hash",
          "type": "bytes32"
        }
      ],
      "name": "message",
      "outputs": [
        {
          "name": "",
          "type": "bytes"
        }
      ],
      "payable": false,
      "stateMutability": "view",
      "type": "function"
    },
    {
      "constant": true,
      "inputs": [
        {
          "name": "_day",
          "type": "uint256"
        }
      ],
      "name": "totalExecutedPerDay",
      "outputs": [
        {
          "name": "",
          "type": "uint256"
        }
      ],
      "payable": false,
      "stateMutability": "view",
      "type": "function"
    },
    {
      "constant": false,
      "inputs": [
        {
          "name": "signature",
          "type": "bytes"
        },
        {
          "name": "message",
          "type": "bytes"
        }
      ],
      "name": "submitSignature",
      "outputs": [],
      "payable": false,
      "stateMutability": "nonpayable",
      "type": "function"
    },
    {
      "constant": false,
      "inputs": [
        {
          "name": "txHash",
          "type": "bytes32"
        },
        {
          "name": "unlockOnForeign",
          "type": "bool"
        }
      ],
      "name": "fixAssetsAboveLimits",
      "outputs": [],
      "payable": false,
      "stateMutability": "nonpayable",
      "type": "function"
    },
    {
      "constant": true,
      "inputs": [],
      "name": "dailyLimit",
      "outputs": [
        {
          "name": "",
          "type": "uint256"
        }
      ],
      "payable": false,
      "stateMutability": "view",
      "type": "function"
    },
    {
      "constant": false,
      "inputs": [
        {
          "name": "_token",
          "type": "address"
        },
        {
          "name": "_to",
          "type": "address"
        }
      ],
      "name": "claimTokens",
      "outputs": [],
      "payable": false,
      "stateMutability": "nonpayable",
      "type": "function"
    },
    {
      "constant": true,
      "inputs": [
        {
          "name": "_withdrawal",
          "type": "bytes32"
        }
      ],
      "name": "numAffirmationsSigned",
      "outputs": [
        {
          "name": "",
          "type": "uint256"
        }
      ],
      "payable": false,
      "stateMutability": "view",
      "type": "function"
    },
    {
      "constant": true,
      "inputs": [
        {
          "name": "_withdrawal",
          "type": "bytes32"
        }
      ],
      "name": "affirmationsSigned",
      "outputs": [
        {
          "name": "",
          "type": "bool"
        }
      ],
      "payable": false,
      "stateMutability": "view",
      "type": "function"
    },
    {
      "constant": true,
      "inputs": [
        {
          "name": "_amount",
          "type": "uint256"
        }
      ],
      "name": "withinExecutionLimit",
      "outputs": [
        {
          "name": "",
          "type": "bool"
        }
      ],
      "payable": false,
      "stateMutability": "view",
      "type": "function"
    },
    {
      "constant": true,
      "inputs": [],
      "name": "executionMaxPerTx",
      "outputs": [
        {
          "name": "",
          "type": "uint256"
        }
      ],
      "payable": false,
      "stateMutability": "view",
      "type": "function"
    },
    {
      "constant": true,
      "inputs": [],
      "name": "requiredSignatures",
      "outputs": [
        {
          "name": "",
          "type": "uint256"
        }
      ],
      "payable": false,
      "stateMutability": "view",
      "type": "function"
    },
    {
      "constant": true,
      "inputs": [],
      "name": "owner",
      "outputs": [
        {
          "name": "",
          "type": "address"
        }
      ],
      "payable": false,
      "stateMutability": "view",
      "type": "function"
    },
    {
      "constant": true,
      "inputs": [
        {
          "name": "_message",
          "type": "bytes32"
        }
      ],
      "name": "messagesSigned",
      "outputs": [
        {
          "name": "",
          "type": "bool"
        }
      ],
      "payable": false,
      "stateMutability": "view",
      "type": "function"
    },
    {
      "constant": true,
      "inputs": [],
      "name": "validatorContract",
      "outputs": [
        {
          "name": "",
          "type": "address"
        }
      ],
      "payable": false,
      "stateMutability": "view",
      "type": "function"
    },
    {
      "constant": false,
      "inputs": [
        {
          "name": "recipient",
          "type": "address"
        },
        {
          "name": "value",
          "type": "uint256"
        },
        {
          "name": "transactionHash",
          "type": "bytes32"
        }
      ],
      "name": "executeAffirmation",
      "outputs": [],
      "payable": false,
      "stateMutability": "nonpayable",
      "type": "function"
    },
    {
      "constant": true,
      "inputs": [],
      "name": "deployedAtBlock",
      "outputs": [
        {
          "name": "",
          "type": "uint256"
        }
      ],
      "payable": false,
      "stateMutability": "view",
      "type": "function"
    },
    {
      "constant": true,
      "inputs": [],
      "name": "getBridgeInterfacesVersion",
      "outputs": [
        {
          "name": "major",
          "type": "uint64"
        },
        {
          "name": "minor",
          "type": "uint64"
        },
        {
          "name": "patch",
          "type": "uint64"
        }
      ],
      "payable": false,
      "stateMutability": "pure",
      "type": "function"
    },
    {
      "constant": true,
      "inputs": [],
      "name": "outOfLimitAmount",
      "outputs": [
        {
          "name": "",
          "type": "uint256"
        }
      ],
      "payable": false,
      "stateMutability": "view",
      "type": "function"
    },
    {
      "constant": false,
      "inputs": [
        {
          "name": "_minPerTx",
          "type": "uint256"
        }
      ],
      "name": "setMinPerTx",
      "outputs": [],
      "payable": false,
      "stateMutability": "nonpayable",
      "type": "function"
    },
    {
      "constant": false,
      "inputs": [
        {
          "name": "_from",
          "type": "address"
        },
        {
          "name": "_value",
          "type": "uint256"
        },
        {
          "name": "",
          "type": "bytes"
        }
      ],
      "name": "onTokenTransfer",
      "outputs": [
        {
          "name": "",
          "type": "bool"
        }
      ],
      "payable": false,
      "stateMutability": "nonpayable",
      "type": "function"
    },
    {
      "constant": false,
      "inputs": [
        {
          "name": "_blockConfirmations",
          "type": "uint256"
        }
      ],
      "name": "setRequiredBlockConfirmations",
      "outputs": [],
      "payable": false,
      "stateMutability": "nonpayable",
      "type": "function"
    },
    {
      "constant": false,
      "inputs": [
        {
          "name": "_dailyLimit",
          "type": "uint256"
        }
      ],
      "name": "setDailyLimit",
      "outputs": [],
      "payable": false,
      "stateMutability": "nonpayable",
      "type": "function"
    },
    {
      "constant": false,
      "inputs": [
        {
          "name": "_gasPrice",
          "type": "uint256"
        }
      ],
      "name": "setGasPrice",
      "outputs": [],
      "payable": false,
      "stateMutability": "nonpayable",
      "type": "function"
    },
    {
      "constant": false,
      "inputs": [
        {
          "name": "_maxPerTx",
          "type": "uint256"
        }
      ],
      "name": "setMaxPerTx",
      "outputs": [],
      "payable": false,
      "stateMutability": "nonpayable",
      "type": "function"
    },
    {
      "constant": true,
      "inputs": [],
      "name": "upgradeabilityAdmin",
      "outputs": [
        {
          "name": "",
          "type": "address"
        }
      ],
      "payable": false,
      "stateMutability": "view",
      "type": "function"
    },
    {
      "constant": true,
      "inputs": [],
      "name": "minPerTx",
      "outputs": [
        {
          "name": "",
          "type": "uint256"
        }
      ],
      "payable": false,
      "stateMutability": "view",
      "type": "function"
    },
    {
      "constant": true,
      "inputs": [
        {
          "name": "_amount",
          "type": "uint256"
        }
      ],
      "name": "withinLimit",
      "outputs": [
        {
          "name": "",
          "type": "bool"
        }
      ],
      "payable": false,
      "stateMutability": "view",
      "type": "function"
    },
    {
      "constant": false,
      "inputs": [
        {
          "name": "_maxPerTx",
          "type": "uint256"
        }
      ],
      "name": "setExecutionMaxPerTx",
      "outputs": [],
      "payable": false,
      "stateMutability": "nonpayable",
      "type": "function"
    },
    {
      "constant": false,
      "inputs": [
        {
          "name": "newOwner",
          "type": "address"
        }
      ],
      "name": "transferOwnership",
      "outputs": [],
      "payable": false,
      "stateMutability": "nonpayable",
      "type": "function"
    },
    {
      "constant": true,
      "inputs": [],
      "name": "maxPerTx",
      "outputs": [
        {
          "name": "",
          "type": "uint256"
        }
      ],
      "payable": false,
      "stateMutability": "view",
      "type": "function"
    },
    {
      "constant": true,
      "inputs": [],
      "name": "gasPrice",
      "outputs": [
        {
          "name": "",
          "type": "uint256"
        }
      ],
      "payable": false,
      "stateMutability": "view",
      "type": "function"
    },
    {
      "constant": true,
      "inputs": [
        {
          "name": "_number",
          "type": "uint256"
        }
      ],
      "name": "isAlreadyProcessed",
      "outputs": [
        {
          "name": "",
          "type": "bool"
        }
      ],
      "payable": false,
      "stateMutability": "pure",
      "type": "function"
    },
    {
      "payable": true,
      "stateMutability": "payable",
      "type": "fallback"
    },
    {
      "anonymous": false,
      "inputs": [
        {
          "indexed": false,
          "name": "recipient",
          "type": "address"
        },
        {
          "indexed": false,
          "name": "value",
          "type": "uint256"
        },
        {
          "indexed": false,
          "name": "transactionHash",
          "type": "bytes32"
        }
      ],
      "name": "AmountLimitExceeded",
      "type": "event"
    },
    {
      "anonymous": false,
      "inputs": [
        {
          "indexed": false,
          "name": "recipient",
          "type": "address"
        },
        {
          "indexed": false,
          "name": "value",
          "type": "uint256"
        }
      ],
      "name": "UserRequestForSignature",
      "type": "event"
    },
    {
      "anonymous": false,
      "inputs": [
        {
          "indexed": false,
          "name": "recipient",
          "type": "address"
        },
        {
          "indexed": false,
          "name": "value",
          "type": "uint256"
        },
        {
          "indexed": false,
          "name": "transactionHash",
          "type": "bytes32"
        }
      ],
      "name": "AffirmationCompleted",
      "type": "event"
    },
    {
      "anonymous": false,
      "inputs": [
        {
          "indexed": true,
          "name": "signer",
          "type": "address"
        },
        {
          "indexed": false,
          "name": "messageHash",
          "type": "bytes32"
        }
      ],
      "name": "SignedForUserRequest",
      "type": "event"
    },
    {
      "anonymous": false,
      "inputs": [
        {
          "indexed": true,
          "name": "signer",
          "type": "address"
        },
        {
          "indexed": false,
          "name": "transactionHash",
          "type": "bytes32"
        }
      ],
      "name": "SignedForAffirmation",
      "type": "event"
    },
    {
      "anonymous": false,
      "inputs": [
        {
          "indexed": false,
          "name": "authorityResponsibleForRelay",
          "type": "address"
        },
        {
          "indexed": false,
          "name": "messageHash",
          "type": "bytes32"
        },
        {
          "indexed": false,
          "name": "NumberOfCollectedSignatures",
          "type": "uint256"
        }
      ],
      "name": "CollectedSignatures",
      "type": "event"
    },
    {
      "anonymous": false,
      "inputs": [
        {
          "indexed": false,
          "name": "gasPrice",
          "type": "uint256"
        }
      ],
      "name": "GasPriceChanged",
      "type": "event"
    },
    {
      "anonymous": false,
      "inputs": [
        {
          "indexed": false,
          "name": "requiredBlockConfirmations",
          "type": "uint256"
        }
      ],
      "name": "RequiredBlockConfirmationChanged",
      "type": "event"
    },
    {
      "anonymous": false,
      "inputs": [
        {
          "indexed": false,
          "name": "newLimit",
          "type": "uint256"
        }
      ],
      "name": "DailyLimitChanged",
      "type": "event"
    },
    {
      "anonymous": false,
      "inputs": [
        {
          "indexed": false,
          "name": "newLimit",
          "type": "uint256"
        }
      ],
      "name": "ExecutionDailyLimitChanged",
      "type": "event"
    },
    {
      "anonymous": false,
      "inputs": [
        {
          "indexed": false,
          "name": "previousOwner",
          "type": "address"
        },
        {
          "indexed": false,
          "name": "newOwner",
          "type": "address"
        }
      ],
      "name": "OwnershipTransferred",
      "type": "event"
    },
    {
      "constant": false,
      "inputs": [
        {
          "name": "_validatorContract",
          "type": "address"
        },
        {
          "name": "_dailyLimit",
          "type": "uint256"
        },
        {
          "name": "_maxPerTx",
          "type": "uint256"
        },
        {
          "name": "_minPerTx",
          "type": "uint256"
        },
        {
          "name": "_homeGasPrice",
          "type": "uint256"
        },
        {
          "name": "_requiredBlockConfirmations",
          "type": "uint256"
        },
        {
          "name": "_erc677token",
          "type": "address"
        },
        {
          "name": "_foreignDailyLimit",
          "type": "uint256"
        },
        {
          "name": "_foreignMaxPerTx",
          "type": "uint256"
        },
        {
          "name": "_owner",
          "type": "address"
        }
      ],
      "name": "initialize",
      "outputs": [
        {
          "name": "",
          "type": "bool"
        }
      ],
      "payable": false,
      "stateMutability": "nonpayable",
      "type": "function"
    },
    {
      "constant": true,
      "inputs": [],
      "name": "getBridgeMode",
      "outputs": [
        {
          "name": "_data",
          "type": "bytes4"
        }
      ],
      "payable": false,
      "stateMutability": "pure",
      "type": "function"
    }
  ],
  "bytecode": "0x608060405234801561001057600080fd5b5061406b806100206000396000f30060806040526004361061020b5763ffffffff60e060020a6000350416630cbf060181146102105780631812d9961461023a57806318d8f9c9146102ca5780632888bb9c146102fb5780632bd0bb0514610327578063392e53cd1461033f5780633dd95d1b146103545780633e6968b61461036e5780633f0a9f6514610383578063408fef2e14610398578063437764df146103ad57806343b37dd3146103f7578063490a32c61461040c5780634fb3fef71461042457806354a2b2b81461043c578063630cea8e1461048757806364d188eb146104b357806367eeba0c146104d057806369ffa08a146104e55780636ae1a9761461050c5780637698da2414610524578063879ce6761461053c5780638aa1949a146105545780638d068043146105695780638da5cb5b1461057e5780638f4b4b981461059357806399439089146105ab578063995b2cff146105c05780639a454b99146105e75780639cb7595a146105fc578063a01893451461063d578063a2a6ca2714610652578063a4c0ed361461066a578063acf5c6891461069b578063b20d30a9146106b3578063bf1fe420146106cb578063c6f6f216146106e3578063df0ad3de146106fb578063df25f3f014610710578063ea9f496814610725578063f20151e11461073d578063f2fde38b14610755578063f968adbe14610776578063fe173b971461078b578063ffd19e8c146107a0575b600080fd5b34801561021c57600080fd5b506102286004356107b8565b60408051918252519081900360200190f35b34801561024657600080fd5b5061025560043560243561087d565b6040805160208082528351818301528351919283929083019185019080838360005b8381101561028f578181015183820152602001610277565b50505050905090810190601f1680156102bc5780820380516001836020036101000a031916815260200191505b509250505060405180910390f35b3480156102d657600080fd5b506102df610914565b60408051600160a060020a039092168252519081900360200190f35b34801561030757600080fd5b506103136004356109d3565b604080519115158252519081900360200190f35b34801561033357600080fd5b50610228600435610a9c565b34801561034b57600080fd5b50610313610b17565b34801561036057600080fd5b5061036c600435610bcf565b005b34801561037a57600080fd5b50610228610cd1565b34801561038f57600080fd5b50610228610cda565b3480156103a457600080fd5b50610228610d8e565b3480156103b957600080fd5b506103c2610d9d565b604080517fffffffff000000000000000000000000000000000000000000000000000000009092168252519081900360200190f35b34801561040357600080fd5b50610228610e40565b34801561041857600080fd5b50610255600435610eb3565b34801561043057600080fd5b50610228600435610ec4565b34801561044857600080fd5b50610313600160a060020a036004358116906024359060443590606435906084359060a4359060c43581169060e4359061010435906101243516610f3f565b34801561049357600080fd5b5061036c6024600480358281019290820135918135918201910135611639565b3480156104bf57600080fd5b5061036c6004356024351515611a94565b3480156104dc57600080fd5b50610228611b73565b3480156104f157600080fd5b5061036c600160a060020a0360043581169060243516611be6565b34801561051857600080fd5b50610228600435611d9c565b34801561053057600080fd5b50610313600435611e1f565b34801561054857600080fd5b50610313600435611ea3565b34801561056057600080fd5b50610228611eed565b34801561057557600080fd5b50610228611f60565b34801561058a57600080fd5b506102df611fd8565b34801561059f57600080fd5b5061031360043561204c565b3480156105b757600080fd5b506102df6120d0565b3480156105cc57600080fd5b5061036c600160a060020a0360043516602435604435612144565b3480156105f357600080fd5b50610228612434565b34801561060857600080fd5b506106116124a7565b6040805167ffffffffffffffff9485168152928416602084015292168183015290519081900360600190f35b34801561064957600080fd5b506102286124b1565b34801561065e57600080fd5b5061036c600435612524565b34801561067657600080fd5b5061031360048035600160a060020a031690602480359160443591820191013561261b565b3480156106a757600080fd5b5061036c6004356126ee565b3480156106bf57600080fd5b5061036c6004356127fd565b3480156106d757600080fd5b5061036c6004356128ff565b3480156106ef57600080fd5b5061036c600435612a0e565b34801561070757600080fd5b506102df612aaf565b34801561071c57600080fd5b50610228612aef565b34801561073157600080fd5b50610313600435612b62565b34801561074957600080fd5b5061036c600435612bad565b34801561076157600080fd5b5061036c600160a060020a0360043516612c4e565b34801561078257600080fd5b50610228612c8b565b34801561079757600080fd5b50610228612cfe565b3480156107ac57600080fd5b50610313600435612d71565b60008060008360405160200180807f6e756d4d657373616765735369676e656400000000000000000000000000000081525060110182600019166000191681526020019150506040516020818303038152906040526040518082805190602001908083835b6020831061083c5780518252601f19909201916020918201910161081d565b51815160209384036101000a600019018019909216911617905260408051929094018290039091208652850195909552929092016000205495945050505050565b604080516020808201859052818301849052825180830384018152606092830193849052805192936000939192909182918401908083835b602083106108d45780518252601f1990920191602091820191016108b5565b6001836020036101000a0380198251168184511680821785525050505050509050019150506040518091039020905061090c81612d99565b949350505050565b60006002600060405160200180807f657263363737746f6b656e000000000000000000000000000000000000000000815250600b0190506040516020818303038152906040526040518082805190602001908083835b602083106109895780518252601f19909201916020918201910161096a565b51815160209384036101000a6000190180199092169116179052604080519290940182900390912086528501959095529290920160002054600160a060020a031693505050505b90565b6000600460008360405160200180807f6669786564417373657473000000000000000000000000000000000000000000815250600b0182600019166000191681526020019150506040516020818303038152906040526040518082805190602001908083835b60208310610a585780518252601f199092019160209182019101610a39565b51815160209384036101000a600019018019909216911617905260408051929094018290039091208652850195909552929092016000205460ff1695945050505050565b60008060008360405160200180807f746f74616c5370656e74506572446179000000000000000000000000000000008152506010018281526020019150506040516020818303038152906040526040518082805190602001908083836020831061083c5780518252601f19909201916020918201910161081d565b60006004600060405160200180807f6973496e697469616c697a656400000000000000000000000000000000000000815250600d0190506040516020818303038152906040526040518082805190602001908083835b60208310610b8c5780518252601f199092019160209182019101610b6d565b51815160209384036101000a600019018019909216911617905260408051929094018290039091208652850195909552929092016000205460ff16949350505050565b610bd7611fd8565b600160a060020a03163314610beb57600080fd5b8060008060405160200180807f657865637574696f6e4461696c794c696d69740000000000000000000000000081525060130190506040516020818303038152906040526040518082805190602001908083835b60208310610c5e5780518252601f199092019160209182019101610c3f565b51815160001960209485036101000a019081169019919091161790526040805194909201849003909320865285830196909652509284016000209490945550815184815291517f9bebf928b90863f24cc31f726a3a7545efd409f1dcf552301b1ee3710da70d3b9350918290030190a150565b62015180420490565b600080600060405160200180807f7265717569726564426c6f636b436f6e6669726d6174696f6e73000000000000815250601a0190506040516020818303038152906040526040518082805190602001908083835b60208310610d4e5780518252601f199092019160209182019101610d2f565b51815160209384036101000a6000190180199092169116179052604080519290940182900390912086528501959095529290920160002054949350505050565b6000610d98612f01565b905090565b600060405160200180807f6572632d746f2d6572632d636f72650000000000000000000000000000000000815250600f0190506040516020818303038152906040526040518082805190602001908083835b60208310610e0e5780518252601f199092019160209182019101610def565b6001836020036101000a0380198251168184511680821785525050505050509050019150506040518091039020905090565b600080600060405160200180807f657865637574696f6e4461696c794c696d697400000000000000000000000000815250601301905060405160208183030381529060405260405180828051906020019080838360208310610d4e5780518252601f199092019160209182019101610d2f565b6060610ebe82612f06565b92915050565b60008060008360405160200180807f746f74616c4578656375746564506572446179000000000000000000000000008152506013018281526020019150506040516020818303038152906040526040518082805190602001908083836020831061083c5780518252601f19909201916020918201910161081d565b6000610f49610b17565b15610f5357600080fd5b600160a060020a038b1615801590610f6f5750610f6f8b612f8a565b1515610f7a57600080fd5b60008711610f8757600080fd5b60008611610f9457600080fd5b600088118015610fa357508789115b8015610fae5750888a115b1515610fb957600080fd5b838310610fc557600080fd5b600160a060020a0382161515610fda57600080fd5b8a6002600060405160200180807f76616c696461746f72436f6e747261637400000000000000000000000000000081525060110190506040516020818303038152906040526040518082805190602001908083835b6020831061104e5780518252601f19909201916020918201910161102f565b51815160209384036101000a60001901801990921691161790526040805192909401829003909120865285810196909652509283016000908120805473ffffffffffffffffffffffffffffffffffffffff1916600160a060020a039790971696909617909555505080517f6465706c6f7965644174426c6f636b0000000000000000000000000000000000818401528151600f818303018152602f90910191829052805143949384939182918401908083835b602083106111205780518252601f199092019160209182019101611101565b51815160209384036101000a6000190180199092169116179052604080519290940182900390912086528581019690965250928301600090812095909555505080517f6461696c794c696d697400000000000000000000000000000000000000000000818401528151600a818303018152602a9091019182905280518e949384939182918401908083835b602083106111ca5780518252601f1990920191602091820191016111ab565b51815160209384036101000a6000190180199092169116179052604080519290940182900390912086528581019690965250928301600090812095909555505080517f6d61785065725478000000000000000000000000000000000000000000000000818401528151600881830301815260289091019182905280518d949384939182918401908083835b602083106112745780518252601f199092019160209182019101611255565b51815160209384036101000a6000190180199092169116179052604080519290940182900390912086528581019690965250928301600090812095909555505080517f6d696e5065725478000000000000000000000000000000000000000000000000818401528151600881830301815260289091019182905280518c949384939182918401908083835b6020831061131e5780518252601f1990920191602091820191016112ff565b51815160209384036101000a6000190180199092169116179052604080519290940182900390912086528581019690965250928301600090812095909555505080517f6761735072696365000000000000000000000000000000000000000000000000818401528151600881830301815260289091019182905280518b949384939182918401908083835b602083106113c85780518252601f1990920191602091820191016113a9565b51815160209384036101000a6000190180199092169116179052604080519290940182900390912086528581019690965250928301600090812095909555505080517f7265717569726564426c6f636b436f6e6669726d6174696f6e73000000000000818401528151601a818303018152603a9091019182905280518a949384939182918401908083835b602083106114725780518252601f199092019160209182019101611453565b51815160209384036101000a6000190180199092169116179052604080519290940182900390912086528581019690965250928301600090812095909555505080517f657865637574696f6e4461696c794c696d6974000000000000000000000000008184015281516013818303018152603390910191829052805188949384939182918401908083835b6020831061151c5780518252601f1990920191602091820191016114fd565b51815160209384036101000a6000190180199092169116179052604080519290940182900390912086528581019690965250928301600090812095909555505080517f657865637574696f6e4d617850657254780000000000000000000000000000008184015281516011818303018152603190910191829052805187949384939182918401908083835b602083106115c65780518252601f1990920191602091820191016115a7565b51815160209384036101000a60001901801990921691161790526040805192909401829003909120865285019590955292909201600020939093555061160f9150839050612f92565b61161960016130ba565b6116228561317b565b61162a610b17565b9b9a5050505050505050505050565b60008060008060006116496120d0565b600160a060020a031663facd743b336040518263ffffffff1660e060020a0281526004018082600160a060020a0316600160a060020a03168152602001915050602060405180830381600087803b1580156116a357600080fd5b505af11580156116b7573d6000803e3d6000fd5b505050506040513d60208110156116cd57600080fd5b505115156116da57600080fd5b61171387878080601f01602080910402602001604051908101604052809392919081815260200183838082843750613215945050505050565b151561171e57600080fd5b61178589898080601f0160208091040260200160405190810160405280939291908181526020018383808284375050604080516020601f8f018190048102820181019092528d815294508d93508c9250829150840183828082843750613229945050505050565b600160a060020a0316331461179957600080fd5b8686604051602001808383808284378201915050925050506040516020818303038152906040526040518082805190602001908083835b602083106117ef5780518252601f1990920191602091820191016117d0565b51815160209384036101000a600019018019909216911617905260408051929094018290038220336c0100000000000000000000000002838301526034808401829052855180850390910181526054909301948590528251909b509195509293508392850191508083835b602083106118795780518252601f19909201916020918201910161185a565b6001836020036101000a038019825116818451168082178552505050505050905001915050604051809103902093506118b1856107b8565b92506118bc83612d71565b156118c657600080fd5b6001928301928311156118eb576118dc8461204c565b156118e657600080fd5b611925565b6119258588888080601f016020809104026020016040519081016040528093929190818152602001838380828437506132e9945050505050565b6119308460016133c0565b604080516020808201889052600019860182840152825180830384018152606090920192839052815191929182918401908083835b602083106119845780518252601f199092019160209182019101611965565b51815160209384036101000a600019018019909216911617905260408051929094018290038220601f8f018290048202830182019094528d82529296506119e59450869350918d91508c908190840183828082843750613492945050505050565b6119ef8584613515565b60408051868152905133917fbf06885f40778f5ccfb64497d3f92ce568ddaedb7e2fb4487f72690418cf8e4c919081900360200190a2611a2d611f60565b9050808310611a8957611a4885611a43856135da565b613515565b604080513381526020810187905280820183905290517f415557404d88a0c0b8e3b16967cafffc511213fd9c465c16832ee17ed57d72379181900360600190a15b505050505050505050565b600080611a9f612aaf565b600160a060020a03163314611ab357600080fd5b611abc846109d3565b15611ac657600080fd5b611acf846135ff565b9092509050600160a060020a03821615801590611aec5750600081115b1515611af757600080fd5b611b17611b1282611b066124b1565b9063ffffffff61378616565b613798565b8215611b625760408051600160a060020a03841681526020810183905281517f127650bcfb0ba017401abe4931453a405140a8fd36fece67bae2db174d3fdd63929181900390910190a15b611b6d84600161380a565b50505050565b600080600060405160200180807f6461696c794c696d697400000000000000000000000000000000000000000000815250600a01905060405160208183030381529060405260405180828051906020019080838360208310610d4e5780518252601f199092019160209182019101610d2f565b600080611bf1612aaf565b600160a060020a03163314611c0557600080fd5b600160a060020a0383161515611c1a57600080fd5b600160a060020a0384161515611c6657604051600160a060020a03841690303180156108fc02916000818181858888f19350505050158015611c60573d6000803e3d6000fd5b50611b6d565b604080517f70a082310000000000000000000000000000000000000000000000000000000081523060048201529051859350600160a060020a038416916370a082319160248083019260209291908290030181600087803b158015611cca57600080fd5b505af1158015611cde573d6000803e3d6000fd5b505050506040513d6020811015611cf457600080fd5b5051604080517fa9059cbb000000000000000000000000000000000000000000000000000000008152600160a060020a0386811660048301526024820184905291519293509084169163a9059cbb916044808201926020929091908290030181600087803b158015611d6557600080fd5b505af1158015611d79573d6000803e3d6000fd5b505050506040513d6020811015611d8f57600080fd5b50511515611b6d57600080fd5b60008060008360405160200180807f6e756d41666669726d6174696f6e735369676e6564000000000000000000000081525060150182600019166000191681526020019150506040516020818303038152906040526040518082805190602001908083836020831061083c5780518252601f19909201916020918201910161081d565b6000600460008360405160200180807f61666669726d6174696f6e735369676e65640000000000000000000000000000815250601201826000191660001916815260200191505060405160208183030381529060405260405180828051906020019080838360208310610a585780518252601f199092019160209182019101610a39565b600080611ec683611eba611eb5610cd1565b610ec4565b9063ffffffff61388d16565b905080611ed1610e40565b10158015611ee65750611ee2611eed565b8311155b9392505050565b600080600060405160200180807f657865637574696f6e4d61785065725478000000000000000000000000000000815250601101905060405160208183030381529060405260405180828051906020019080838360208310610d4e5780518252601f199092019160209182019101610d2f565b6000611f6a6120d0565b600160a060020a0316638d0680436040518163ffffffff1660e060020a028152600401602060405180830381600087803b158015611fa757600080fd5b505af1158015611fbb573d6000803e3d6000fd5b505050506040513d6020811015611fd157600080fd5b5051905090565b60006002600060405160200180807f6f776e65720000000000000000000000000000000000000000000000000000008152506005019050604051602081830303815290604052604051808280519060200190808383602083106109895780518252601f19909201916020918201910161096a565b6000600460008360405160200180807f6d657373616765735369676e6564000000000000000000000000000000000000815250600e01826000191660001916815260200191505060405160208183030381529060405260405180828051906020019080838360208310610a585780518252601f199092019160209182019101610a39565b60006002600060405160200180807f76616c696461746f72436f6e74726163740000000000000000000000000000008152506011019050604051602081830303815290604052604051808280519060200190808383602083106109895780518252601f19909201916020918201910161096a565b60008060006121516120d0565b600160a060020a031663facd743b336040518263ffffffff1660e060020a0281526004018082600160a060020a0316600160a060020a03168152602001915050602060405180830381600087803b1580156121ab57600080fd5b505af11580156121bf573d6000803e3d6000fd5b505050506040513d60208110156121d557600080fd5b505115156121e257600080fd5b6121eb8561389c565b1561242157604080516c01000000000000000000000000600160a060020a0389160260208083019190915260348201889052605480830188905283518084039091018152607490920192839052815191929182918401908083835b602083106122655780518252601f199092019160209182019101612246565b51815160209384036101000a600019018019909216911617905260408051929094018290038220336c01000000000000000000000000028383015260348084018290528551808503909101815260549093019485905282519099509195509293508392850191508083835b602083106122ef5780518252601f1990920191602091820191016122d0565b6001836020036101000a0380198251168184511680821785525050505050509050019150506040518091039020915061232782611e1f565b1561233157600080fd5b61233c8260016138a7565b61234583611d9c565b905061235081612d71565b1561235a57600080fd5b600101612367838261392a565b60408051858152905133917f5df9cc3eb93d8a9a481857a3b70a8ca966e6b80b25cf0ee2cce180ec5afa80a1919081900360200190a26123a5611f60565b811061241c576123bd836123b8836135da565b61392a565b6123c786866139ac565b15156123d257600080fd5b60408051600160a060020a03881681526020810187905280820186905290517f6fc115a803b8703117d9a3956c5a15401cb42401f91630f015eb6b043fa762539181900360600190a15b61242c565b61242c868686613a6a565b505050505050565b600080600060405160200180807f6465706c6f7965644174426c6f636b0000000000000000000000000000000000815250600f01905060405160208183030381529060405260405180828051906020019080838360208310610d4e5780518252601f199092019160209182019101610d2f565b6002806000909192565b600080600060405160200180807f6f75744f664c696d6974416d6f756e7400000000000000000000000000000000815250601001905060405160208183030381529060405260405180828051906020019080838360208310610d4e5780518252601f199092019160209182019101610d2f565b61252c611fd8565b600160a060020a0316331461254057600080fd5b612548611b73565b8110801561255c5750612559612c8b565b81105b151561256757600080fd5b8060008060405160200180807f6d696e506572547800000000000000000000000000000000000000000000000081525060080190506040516020818303038152906040526040518082805190602001908083835b602083106125da5780518252601f1990920191602091820191016125bb565b51815160209384036101000a600019018019909216911617905260408051929094018290039091208652850195909552929092016000209390935550505050565b6000612625610914565b600160a060020a0316331461263957600080fd5b61264284612b62565b151561264d57600080fd5b612671612658610cd1565b61266c86611eba612667610cd1565b610a9c565b613b05565b612679610914565b600160a060020a03166342966c68856040518263ffffffff1660e060020a02815260040180828152602001915050600060405180830381600087803b1580156126c157600080fd5b505af11580156126d5573d6000803e3d6000fd5b505050506126e38585613b7f565b506001949350505050565b6126f6611fd8565b600160a060020a0316331461270a57600080fd5b6000811161271757600080fd5b8060008060405160200180807f7265717569726564426c6f636b436f6e6669726d6174696f6e73000000000000815250601a0190506040516020818303038152906040526040518082805190602001908083835b6020831061278a5780518252601f19909201916020918201910161276b565b51815160001960209485036101000a019081169019919091161790526040805194909201849003909320865285830196909652509284016000209490945550815184815291517f4fb76205cd57c896b21511d2114137d8e901b4ccd659e1a0f97d6306795264fb9350918290030190a150565b612805611fd8565b600160a060020a0316331461281957600080fd5b8060008060405160200180807f6461696c794c696d697400000000000000000000000000000000000000000000815250600a0190506040516020818303038152906040526040518082805190602001908083835b6020831061288c5780518252601f19909201916020918201910161286d565b51815160001960209485036101000a019081169019919091161790526040805194909201849003909320865285830196909652509284016000209490945550815184815291517fad4123ae17c414d9c6d2fec478b402e6b01856cc250fd01fbfd252fda0089d3c9350918290030190a150565b612907611fd8565b600160a060020a0316331461291b57600080fd5b6000811161292857600080fd5b8060008060405160200180807f676173507269636500000000000000000000000000000000000000000000000081525060080190506040516020818303038152906040526040518082805190602001908083835b6020831061299b5780518252601f19909201916020918201910161297c565b51815160001960209485036101000a019081169019919091161790526040805194909201849003909320865285830196909652509284016000209490945550815184815291517f52264b89e0fceafb26e79fd49ef8a366eb6297483bf4035b027f0c99a7ad512e9350918290030190a150565b612a16611fd8565b600160a060020a03163314612a2a57600080fd5b612a32611b73565b8110612a3d57600080fd5b8060008060405160200180807f6d617850657254780000000000000000000000000000000000000000000000008152506008019050604051602081830303815290604052604051808280519060200190808383602083106125da5780518252601f1990920191602091820191016125bb565b600030600160a060020a031663025313a26040518163ffffffff1660e060020a028152600401602060405180830381600087803b158015611fa757600080fd5b600080600060405160200180807f6d696e5065725478000000000000000000000000000000000000000000000000815250600801905060405160208183030381529060405260405180828051906020019080838360208310610d4e5780518252601f199092019160209182019101610d2f565b600080612b7483611eba612667610cd1565b905080612b7f611b73565b10158015612b945750612b90612c8b565b8311155b8015611ee65750612ba3612aef565b9092101592915050565b612bb5611fd8565b600160a060020a03163314612bc957600080fd5b612bd1610e40565b8110612bdc57600080fd5b8060008060405160200180807f657865637574696f6e4d617850657254780000000000000000000000000000008152506011019050604051602081830303815290604052604051808280519060200190808383602083106125da5780518252601f1990920191602091820191016125bb565b612c56611fd8565b600160a060020a03163314612c6a57600080fd5b600160a060020a0381161515612c7f57600080fd5b612c8881612f92565b50565b600080600060405160200180807f6d61785065725478000000000000000000000000000000000000000000000000815250600801905060405160208183030381529060405260405180828051906020019080838360208310610d4e5780518252601f199092019160209182019101610d2f565b600080600060405160200180807f6761735072696365000000000000000000000000000000000000000000000000815250600801905060405160208183030381529060405260405180828051906020019080838360208310610d4e5780518252601f199092019160209182019101610d2f565b7f80000000000000000000000000000000000000000000000000000000000000009081161490565b6060600360008360405160200180807f7369676e61747572657300000000000000000000000000000000000000000000815250600a0182600019166000191681526020019150506040516020818303038152906040526040518082805190602001908083835b60208310612e1e5780518252601f199092019160209182019101612dff565b6001836020036101000a0380198251168184511680821785525050505050509050019150506040518091039020600019166000191681526020019081526020016000208054600181600116156101000203166002900480601f016020809104026020016040519081016040528092919081815260200182805460018160011615610100020316600290048015612ef55780601f10612eca57610100808354040283529160200191612ef5565b820191906000526020600020905b815481529060010190602001808311612ed857829003601f168201915b50505050509050919050565b606890565b6060600360008360405160200180807f6d65737361676573000000000000000000000000000000000000000000000000815250600801826000191660001916815260200191505060405160208183030381529060405260405180828051906020019080838360208310612e1e5780518252601f199092019160209182019101612dff565b6000903b1190565b7f8be0079c531659141344cd1fd0a4f28419497f9722a3daafe3b4186f6b6457e0612fbb611fd8565b60408051600160a060020a03928316815291841660208301528051918290030190a1806002600060405160200180807f6f776e657200000000000000000000000000000000000000000000000000000081525060050190506040516020818303038152906040526040518082805190602001908083835b602083106130515780518252601f199092019160209182019101613032565b51815160209384036101000a60001901801990921691161790526040805192909401829003909120865285019590955292909201600020805473ffffffffffffffffffffffffffffffffffffffff1916600160a060020a03959095169490941790935550505050565b806004600060405160200180807f6973496e697469616c697a656400000000000000000000000000000000000000815250600d0190506040516020818303038152906040526040518082805190602001908083835b6020831061312e5780518252601f19909201916020918201910161310f565b51815160209384036101000a60001901801990921691161790526040805192909401829003909120865285019590955292909201600020805460ff19169415159490941790935550505050565b600160a060020a03811615801590613197575061319781612f8a565b15156131a257600080fd5b806002600060405160200180807f657263363737746f6b656e000000000000000000000000000000000000000000815250600b019050604051602081830303815290604052604051808280519060200190808383602083106130515780518252601f199092019160209182019101613032565b600061321f612f01565b8251149050919050565b6000806000808551604114151561323f57600080fd5b505050602083015160408401516060850151600161325c86613bc7565b60408051600080825260208083018085529490945260ff7f0100000000000000000000000000000000000000000000000000000000000000870416828401526060820188905260808201879052915160a08083019493601f198301938390039091019190865af11580156132d4573d6000803e3d6000fd5b5050604051601f190151979650505050505050565b80600360008460405160200180807f6d6573736167657300000000000000000000000000000000000000000000000081525060080182600019166000191681526020019150506040516020818303038152906040526040518082805190602001908083835b6020831061336d5780518252601f19909201916020918201910161334e565b51815160001960209485036101000a019081169019919091161790526040805194909201849003909320865285830196909652509290930160002084516133bb959194509201919050613fa7565b505050565b80600460008460405160200180807f6d657373616765735369676e6564000000000000000000000000000000000000815250600e0182600019166000191681526020019150506040516020818303038152906040526040518082805190602001908083835b602083106134445780518252601f199092019160209182019101613425565b51815160209384036101000a60001901801990921691161790526040805192909401829003909120865285019590955292909201600020805460ff1916941515949094179093555050505050565b80600360008460405160200180807f7369676e61747572657300000000000000000000000000000000000000000000815250600a0182600019166000191681526020019150506040516020818303038152906040526040518082805190602001908083836020831061336d5780518252601f19909201916020918201910161334e565b806000808460405160200180807f6e756d4d657373616765735369676e656400000000000000000000000000000081525060110182600019166000191681526020019150506040516020818303038152906040526040518082805190602001908083835b602083106135985780518252601f199092019160209182019101613579565b51815160209384036101000a60001901801990921691161790526040805192909401829003909120865285019590955292909201600020939093555050505050565b7f80000000000000000000000000000000000000000000000000000000000000001790565b600080600260008460405160200180807f74784f75744f664c696d6974526563697069656e74000000000000000000000081525060150182600019166000191681526020019150506040516020818303038152906040526040518082805190602001908083835b602083106136855780518252601f199092019160209182019101613666565b51815160209384036101000a600019018019909216911617905260408051929094018290039091208652858101969096525092830160009081205484517f74784f75744f664c696d697456616c75650000000000000000000000000000008188015260318082018b9052865180830390910181526051909101958690528051600160a060020a0390921698509195869592945091925082918401908083835b602083106137435780518252601f199092019160209182019101613724565b51815160209384036101000a6000190180199092169116179052604080519290940182900390912086528501959095529290920160002054949694955050505050565b60008282111561379257fe5b50900390565b8060008060405160200180807f6f75744f664c696d6974416d6f756e74000000000000000000000000000000008152506010019050604051602081830303815290604052604051808280519060200190808383602083106125da5780518252601f1990920191602091820191016125bb565b80600460008460405160200180807f6669786564417373657473000000000000000000000000000000000000000000815250600b018260001916600019168152602001915050604051602081830303815290604052604051808280519060200190808383602083106134445780518252601f199092019160209182019101613425565b600082820183811015611ee657fe5b6000610ebe82611ea3565b80600460008460405160200180807f61666669726d6174696f6e735369676e656400000000000000000000000000008152506012018260001916600019168152602001915050604051602081830303815290604052604051808280519060200190808383602083106134445780518252601f199092019160209182019101613425565b806000808460405160200180807f6e756d41666669726d6174696f6e735369676e656400000000000000000000008152506015018260001916600019168152602001915050604051602081830303815290604052604051808280519060200190808383602083106135985780518252601f199092019160209182019101613579565b60006139cd6139b9610cd1565b6139c884611eba611eb5610cd1565b613d8c565b6139d5610914565b600160a060020a03166340c10f1984846040518363ffffffff1660e060020a0281526004018083600160a060020a0316600160a060020a0316815260200182815260200192505050602060405180830381600087803b158015613a3757600080fd5b505af1158015613a4b573d6000803e3d6000fd5b505050506040513d6020811015613a6157600080fd5b50519392505050565b600080613a76836135ff565b9092509050600160a060020a038216158015613a90575080155b1515613a9b57600080fd5b613aaa611b1285611eba6124b1565b613ab5858585613e06565b60408051600160a060020a03871681526020810186905280820185905290517f159c0773f543f1e17d5e78327702770947055eb4e871b529bbc78bc9fde456929181900360600190a15050505050565b806000808460405160200180807f746f74616c5370656e7450657244617900000000000000000000000000000000815250601001828152602001915050604051602081830303815290604052604051808280519060200190808383602083106135985780518252601f199092019160209182019101613579565b60408051600160a060020a03841681526020810183905281517f127650bcfb0ba017401abe4931453a405140a8fd36fece67bae2db174d3fdd63929181900390910190a15050565b604080518082018252601a81527f19457468657265756d205369676e6564204d6573736167653a0a000000000000602080830191825283518085018552600381527f313034000000000000000000000000000000000000000000000000000000000081830152935183516000959385938593899391019182918083835b60208310613c635780518252601f199092019160209182019101613c44565b51815160209384036101000a600019018019909216911617905286519190930192860191508083835b60208310613cab5780518252601f199092019160209182019101613c8c565b51815160209384036101000a600019018019909216911617905285519190930192850191508083835b60208310613cf35780518252601f199092019160209182019101613cd4565b6001836020036101000a03801982511681845116808217855250505050505090500193505050506040516020818303038152906040526040518082805190602001908083835b60208310613d585780518252601f199092019160209182019101613d39565b5181516020939093036101000a60001901801990911692169190911790526040519201829003909120979650505050505050565b806000808460405160200180807f746f74616c457865637574656450657244617900000000000000000000000000815250601301828152602001915050604051602081830303815290604052604051808280519060200190808383602083106135985780518252601f199092019160209182019101613579565b82600260008360405160200180807f74784f75744f664c696d6974526563697069656e74000000000000000000000081525060150182600019166000191681526020019150506040516020818303038152906040526040518082805190602001908083835b60208310613e8a5780518252601f199092019160209182019101613e6b565b51815160209384036101000a60001901801990921691161790526040805192909401829003909120865285810196909652509283016000908120805473ffffffffffffffffffffffffffffffffffffffff1916600160a060020a039790971696909617909555505080517f74784f75744f664c696d697456616c756500000000000000000000000000000081840152603180820186905282518083039091018152605190910191829052805186949384939182918401908083835b60208310613f645780518252601f199092019160209182019101613f45565b51815160209384036101000a6000190180199092169116179052604080519290940182900390912086528501959095529290920160002093909355505050505050565b828054600181600116156101000203166002900490600052602060002090601f016020900481019282601f10613fe857805160ff1916838001178555614015565b82800160010185558215614015579182015b82811115614015578251825591602001919060010190613ffa565b50614021929150614025565b5090565b6109d091905b80821115614021576000815560010161402b5600a165627a7a7230582091ad754346c5f41f00b6c8f65a310e6eaa0a878da4b500ff07c4136895b7d2e70029",
  "source": "pragma solidity 0.4.24;\nimport \"../../libraries/SafeMath.sol\";\nimport \"../../libraries/Message.sol\";\nimport \"../BasicBridge.sol\";\nimport \"../../upgradeability/EternalStorage.sol\";\nimport \"../../IBurnableMintableERC677Token.sol\";\nimport \"../../ERC677Receiver.sol\";\nimport \"../BasicHomeBridge.sol\";\nimport \"../ERC677Bridge.sol\";\nimport \"../OverdrawManagement.sol\";\n\n\ncontract HomeBridgeErcToErc is ERC677Receiver, EternalStorage, BasicBridge, BasicHomeBridge, ERC677Bridge, OverdrawManagement {\n\n    event AmountLimitExceeded(address recipient, uint256 value, bytes32 transactionHash);\n\n    function initialize (\n        address _validatorContract,\n        uint256 _dailyLimit,\n        uint256 _maxPerTx,\n        uint256 _minPerTx,\n        uint256 _homeGasPrice,\n        uint256 _requiredBlockConfirmations,\n        address _erc677token,\n        uint256 _foreignDailyLimit,\n        uint256 _foreignMaxPerTx,\n        address _owner\n    ) public\n      returns(bool)\n    {\n        require(!isInitialized());\n        require(_validatorContract != address(0) && isContract(_validatorContract));\n        require(_homeGasPrice > 0);\n        require(_requiredBlockConfirmations > 0);\n        require(_minPerTx > 0 && _maxPerTx > _minPerTx && _dailyLimit > _maxPerTx);\n        require(_foreignMaxPerTx < _foreignDailyLimit);\n        require(_owner != address(0));\n        addressStorage[keccak256(abi.encodePacked(\"validatorContract\"))] = _validatorContract;\n        uintStorage[keccak256(abi.encodePacked(\"deployedAtBlock\"))] = block.number;\n        uintStorage[keccak256(abi.encodePacked(\"dailyLimit\"))] = _dailyLimit;\n        uintStorage[keccak256(abi.encodePacked(\"maxPerTx\"))] = _maxPerTx;\n        uintStorage[keccak256(abi.encodePacked(\"minPerTx\"))] = _minPerTx;\n        uintStorage[keccak256(abi.encodePacked(\"gasPrice\"))] = _homeGasPrice;\n        uintStorage[keccak256(abi.encodePacked(\"requiredBlockConfirmations\"))] = _requiredBlockConfirmations;\n        uintStorage[keccak256(abi.encodePacked(\"executionDailyLimit\"))] = _foreignDailyLimit;\n        uintStorage[keccak256(abi.encodePacked(\"executionMaxPerTx\"))] = _foreignMaxPerTx;\n        setOwner(_owner);\n        setInitialize(true);\n        setErc677token(_erc677token);\n\n        return isInitialized();\n    }\n\n    function getBridgeMode() public pure returns(bytes4 _data) {\n        return bytes4(keccak256(abi.encodePacked(\"erc-to-erc-core\")));\n    }\n\n    function () payable public {\n        revert();\n    }\n\n    function onExecuteAffirmation(address _recipient, uint256 _value) internal returns(bool) {\n        setTotalExecutedPerDay(getCurrentDay(), totalExecutedPerDay(getCurrentDay()).add(_value));\n        return erc677token().mint(_recipient, _value);\n    }\n\n    function fireEventOnTokenTransfer(address _from, uint256 _value) internal {\n        emit UserRequestForSignature(_from, _value);\n    }\n\n    function affirmationWithinLimits(uint256 _amount) internal view returns(bool) {\n        return withinExecutionLimit(_amount);\n    }\n\n    function onFailedAffirmation(address _recipient, uint256 _value, bytes32 _txHash) internal {\n        address recipient;\n        uint256 value;\n        (recipient, value) = txAboveLimits(_txHash);\n        require(recipient == address(0) && value == 0);\n        setOutOfLimitAmount(outOfLimitAmount().add(_value));\n        setTxAboveLimits(_recipient, _value, _txHash);\n        emit AmountLimitExceeded(_recipient, _value, _txHash);\n    }\n}\n",
  "sourcePath": "/contracts/contracts/upgradeable_contracts/erc20_to_erc20/HomeBridgeErcToErc.sol",
  "compiler": {
    "name": "solc",
    "version": "0.4.24+commit.e67f0147.Emscripten.clang"
  },
  "schemaVersion": "2.0.0",
  "updatedAt": "2019-02-27T05:38:44.535Z"
}