{
  "contractName": "OverdrawManagement",
  "abi": [
    {
      "constant": true,
      "inputs": [],
      "name": "upgradeabilityAdmin",
      "outputs": [
        {
          "name": "",
          "type": "address"
        }
      ],
      "payable": false,
      "stateMutability": "view",
      "type": "function"
    },
    {
      "anonymous": false,
      "inputs": [
        {
          "indexed": false,
          "name": "recipient",
          "type": "address"
        },
        {
          "indexed": false,
          "name": "value",
          "type": "uint256"
        }
      ],
      "name": "UserRequestForSignature",
      "type": "event"
    },
    {
      "constant": false,
      "inputs": [
        {
          "name": "txHash",
          "type": "bytes32"
        },
        {
          "name": "unlockOnForeign",
          "type": "bool"
        }
      ],
      "name": "fixAssetsAboveLimits",
      "outputs": [],
      "payable": false,
      "stateMutability": "nonpayable",
      "type": "function"
    },
    {
      "constant": true,
      "inputs": [],
      "name": "outOfLimitAmount",
      "outputs": [
        {
          "name": "",
          "type": "uint256"
        }
      ],
      "payable": false,
      "stateMutability": "view",
      "type": "function"
    },
    {
      "constant": true,
      "inputs": [
        {
          "name": "_txHash",
          "type": "bytes32"
        }
      ],
      "name": "fixedAssets",
      "outputs": [
        {
          "name": "",
          "type": "bool"
        }
      ],
      "payable": false,
      "stateMutability": "view",
      "type": "function"
    }
  ],
  "bytecode": "0x608060405234801561001057600080fd5b50610788806100206000396000f3006080604052600436106100615763ffffffff7c01000000000000000000000000000000000000000000000000000000006000350416632888bb9c811461006657806364d188eb14610092578063a0189345146100b1578063df0ad3de146100d8575b600080fd5b34801561007257600080fd5b5061007e600435610116565b604080519115158252519081900360200190f35b34801561009e57600080fd5b506100af60043560243515156101df565b005b3480156100bd57600080fd5b506100c66102e5565b60408051918252519081900360200190f35b3480156100e457600080fd5b506100ed610399565b6040805173ffffffffffffffffffffffffffffffffffffffff9092168252519081900360200190f35b6000600460008360405160200180807f6669786564417373657473000000000000000000000000000000000000000000815250600b0182600019166000191681526020019150506040516020818303038152906040526040518082805190602001908083835b6020831061019b5780518252601f19909201916020918201910161017c565b51815160209384036101000a600019018019909216911617905260408051929094018290039091208652850195909552929092016000205460ff1695945050505050565b6000806101ea610399565b73ffffffffffffffffffffffffffffffffffffffff16331461020b57600080fd5b61021484610116565b1561021e57600080fd5b61022784610430565b909250905073ffffffffffffffffffffffffffffffffffffffff8216158015906102515750600081115b151561025c57600080fd5b61027c6102778261026b6102e5565b9063ffffffff6105c416565b6105d6565b82156102d4576040805173ffffffffffffffffffffffffffffffffffffffff841681526020810183905281517f127650bcfb0ba017401abe4931453a405140a8fd36fece67bae2db174d3fdd63929181900390910190a15b6102df84600161068a565b50505050565b600080600060405160200180807f6f75744f664c696d6974416d6f756e740000000000000000000000000000000081525060100190506040516020818303038152906040526040518082805190602001908083835b602083106103595780518252601f19909201916020918201910161033a565b51815160209384036101000a6000190180199092169116179052604080519290940182900390912086528501959095529290920160002054949350505050565b60003073ffffffffffffffffffffffffffffffffffffffff1663025313a26040518163ffffffff167c0100000000000000000000000000000000000000000000000000000000028152600401602060405180830381600087803b1580156103ff57600080fd5b505af1158015610413573d6000803e3d6000fd5b505050506040513d602081101561042957600080fd5b5051905090565b600080600260008460405160200180807f74784f75744f664c696d6974526563697069656e74000000000000000000000081525060150182600019166000191681526020019150506040516020818303038152906040526040518082805190602001908083835b602083106104b65780518252601f199092019160209182019101610497565b51815160209384036101000a600019018019909216911617905260408051929094018290039091208652858101969096525092830160009081205484517f74784f75744f664c696d697456616c75650000000000000000000000000000008188015260318082018b905286518083039091018152605190910195869052805173ffffffffffffffffffffffffffffffffffffffff90921698509195869592945091925082918401908083835b602083106105815780518252601f199092019160209182019101610562565b51815160209384036101000a6000190180199092169116179052604080519290940182900390912086528501959095529290920160002054949694955050505050565b6000828211156105d057fe5b50900390565b8060008060405160200180807f6f75744f664c696d6974416d6f756e740000000000000000000000000000000081525060100190506040516020818303038152906040526040518082805190602001908083835b602083106106495780518252601f19909201916020918201910161062a565b51815160209384036101000a600019018019909216911617905260408051929094018290039091208652850195909552929092016000209390935550505050565b80600460008460405160200180807f6669786564417373657473000000000000000000000000000000000000000000815250600b0182600019166000191681526020019150506040516020818303038152906040526040518082805190602001908083835b6020831061070e5780518252601f1990920191602091820191016106ef565b51815160209384036101000a60001901801990921691161790526040805192909401829003909120865285019590955292909201600020805460ff19169415159490941790935550505050505600a165627a7a72305820a433f9f58e9d8a91486fc7c4add4a38b81707cb5fea2d7056fa7192cb59b81dc0029",
  "source": "pragma solidity 0.4.24;\n\nimport \"../upgradeability/EternalStorage.sol\";\nimport \"../libraries/SafeMath.sol\";\nimport \"./OwnedUpgradeability.sol\";\n\n\ncontract OverdrawManagement is EternalStorage, OwnedUpgradeability {\n    using SafeMath for uint256;\n\n    event UserRequestForSignature(address recipient, uint256 value);\n\n    function fixAssetsAboveLimits(bytes32 txHash, bool unlockOnForeign) external onlyIfOwnerOfProxy {\n        require(!fixedAssets(txHash));\n        address recipient;\n        uint256 value;\n        (recipient, value) = txAboveLimits(txHash);\n        require(recipient != address(0) && value > 0);\n        setOutOfLimitAmount(outOfLimitAmount().sub(value));\n        if (unlockOnForeign) {\n            emit UserRequestForSignature(recipient, value);\n        }\n        setFixedAssets(txHash, true);\n    }\n\n    function outOfLimitAmount() public view returns(uint256) {\n        return uintStorage[keccak256(abi.encodePacked(\"outOfLimitAmount\"))];\n    }\n\n    function fixedAssets(bytes32 _txHash) public view returns(bool) {\n        return boolStorage[keccak256(abi.encodePacked(\"fixedAssets\", _txHash))];\n    }\n\n    function setOutOfLimitAmount(uint256 _value) internal {\n        uintStorage[keccak256(abi.encodePacked(\"outOfLimitAmount\"))] = _value;\n    }\n\n    function txAboveLimits(bytes32 _txHash) internal view returns(address recipient, uint256 value) {\n        recipient = addressStorage[keccak256(abi.encodePacked(\"txOutOfLimitRecipient\", _txHash))];\n        value = uintStorage[keccak256(abi.encodePacked(\"txOutOfLimitValue\", _txHash))];\n    }\n\n    function setTxAboveLimits(address _recipient, uint256 _value, bytes32 _txHash) internal {\n        addressStorage[keccak256(abi.encodePacked(\"txOutOfLimitRecipient\", _txHash))] = _recipient;\n        uintStorage[keccak256(abi.encodePacked(\"txOutOfLimitValue\", _txHash))] = _value;\n    }\n\n    function setFixedAssets(bytes32 _txHash, bool _status) internal {\n        boolStorage[keccak256(abi.encodePacked(\"fixedAssets\", _txHash))] = _status;\n    }\n}\n",
  "sourcePath": "/contracts/contracts/upgradeable_contracts/OverdrawManagement.sol",
  "compiler": {
    "name": "solc",
    "version": "0.4.24+commit.e67f0147.Emscripten.clang"
  },
  "schemaVersion": "2.0.0",
  "updatedAt": "2019-02-27T05:38:44.532Z"
}