{
  "contractName": "OwnedUpgradeability",
  "abi": [
    {
      "constant": true,
      "inputs": [],
      "name": "upgradeabilityAdmin",
      "outputs": [
        {
          "name": "",
          "type": "address"
        }
      ],
      "payable": false,
      "stateMutability": "view",
      "type": "function"
    }
  ],
  "bytecode": "0x608060405234801561001057600080fd5b50610146806100206000396000f3006080604052600436106100405763ffffffff7c0100000000000000000000000000000000000000000000000000000000600035041663df0ad3de8114610045575b600080fd5b34801561005157600080fd5b5061005a610083565b6040805173ffffffffffffffffffffffffffffffffffffffff9092168252519081900360200190f35b60003073ffffffffffffffffffffffffffffffffffffffff1663025313a26040518163ffffffff167c0100000000000000000000000000000000000000000000000000000000028152600401602060405180830381600087803b1580156100e957600080fd5b505af11580156100fd573d6000803e3d6000fd5b505050506040513d602081101561011357600080fd5b50519050905600a165627a7a72305820c7aab6f067bae3c1d1a8e1a64a81d33ccffeb3608cbee10406b6f31ca378263b0029",
  "source": "pragma solidity 0.4.24;\n\nimport \"../IOwnedUpgradeabilityProxy.sol\";\n\n\ncontract OwnedUpgradeability {\n\n    function upgradeabilityAdmin() public view returns (address) {\n        return IOwnedUpgradeabilityProxy(this).proxyOwner();\n    }\n\n    // Avoid using onlyProxyOwner name to prevent issues with implementation from proxy contract\n    modifier onlyIfOwnerOfProxy() {\n        require(msg.sender == upgradeabilityAdmin());\n        _;\n    }\n}\n",
  "sourcePath": "/contracts/contracts/upgradeable_contracts/OwnedUpgradeability.sol",
  "compiler": {
    "name": "solc",
    "version": "0.4.24+commit.e67f0147.Emscripten.clang"
  },
  "schemaVersion": "2.0.0",
  "updatedAt": "2019-02-27T05:38:44.534Z"
}