{
  "contractName": "OwnedUpgradeabilityProxy",
  "abi": [
    {
      "constant": true,
      "inputs": [],
      "name": "version",
      "outputs": [
        {
          "name": "",
          "type": "uint256"
        }
      ],
      "payable": false,
      "stateMutability": "view",
      "type": "function"
    },
    {
      "constant": true,
      "inputs": [],
      "name": "implementation",
      "outputs": [
        {
          "name": "",
          "type": "address"
        }
      ],
      "payable": false,
      "stateMutability": "view",
      "type": "function"
    },
    {
      "constant": true,
      "inputs": [],
      "name": "upgradeabilityOwner",
      "outputs": [
        {
          "name": "",
          "type": "address"
        }
      ],
      "payable": false,
      "stateMutability": "view",
      "type": "function"
    },
    {
      "inputs": [],
      "payable": false,
      "stateMutability": "nonpayable",
      "type": "constructor"
    },
    {
      "payable": true,
      "stateMutability": "payable",
      "type": "fallback"
    },
    {
      "anonymous": false,
      "inputs": [
        {
          "indexed": false,
          "name": "previousOwner",
          "type": "address"
        },
        {
          "indexed": false,
          "name": "newOwner",
          "type": "address"
        }
      ],
      "name": "ProxyOwnershipTransferred",
      "type": "event"
    },
    {
      "anonymous": false,
      "inputs": [
        {
          "indexed": false,
          "name": "version",
          "type": "uint256"
        },
        {
          "indexed": true,
          "name": "implementation",
          "type": "address"
        }
      ],
      "name": "Upgraded",
      "type": "event"
    },
    {
      "constant": true,
      "inputs": [],
      "name": "proxyOwner",
      "outputs": [
        {
          "name": "",
          "type": "address"
        }
      ],
      "payable": false,
      "stateMutability": "view",
      "type": "function"
    },
    {
      "constant": false,
      "inputs": [
        {
          "name": "newOwner",
          "type": "address"
        }
      ],
      "name": "transferProxyOwnership",
      "outputs": [],
      "payable": false,
      "stateMutability": "nonpayable",
      "type": "function"
    },
    {
      "constant": false,
      "inputs": [
        {
          "name": "version",
          "type": "uint256"
        },
        {
          "name": "implementation",
          "type": "address"
        }
      ],
      "name": "upgradeTo",
      "outputs": [],
      "payable": false,
      "stateMutability": "nonpayable",
      "type": "function"
    },
    {
      "constant": false,
      "inputs": [
        {
          "name": "version",
          "type": "uint256"
        },
        {
          "name": "implementation",
          "type": "address"
        },
        {
          "name": "data",
          "type": "bytes"
        }
      ],
      "name": "upgradeToAndCall",
      "outputs": [],
      "payable": true,
      "stateMutability": "payable",
      "type": "function"
    }
  ],
  "bytecode": "0x608060405234801561001057600080fd5b5061002333640100000000610028810204565b61004a565b60008054600160a060020a031916600160a060020a0392909216919091179055565b610471806100596000396000f3006080604052600436106100825763ffffffff7c0100000000000000000000000000000000000000000000000000000000600035041663025313a281146100cd5780633ad06d16146100fe57806354fd4d50146101245780635c60da1b1461014b5780636fde820214610160578063a9c45fcb14610175578063f1739cae146101d1575b600061008c6101f2565b9050600160a060020a03811615156100a357600080fd5b60405136600082376000803683855af43d82016040523d6000833e8080156100c9573d83f35b3d83fd5b3480156100d957600080fd5b506100e2610201565b60408051600160a060020a039092168252519081900360200190f35b34801561010a57600080fd5b50610122600435600160a060020a0360243516610210565b005b34801561013057600080fd5b5061013961023a565b60408051918252519081900360200190f35b34801561015757600080fd5b506100e26101f2565b34801561016c57600080fd5b506100e2610240565b604080516020600460443581810135601f81018490048402850184019095528484526101229482359460248035600160a060020a03169536959460649492019190819084018382808284375094975061024f9650505050505050565b3480156101dd57600080fd5b50610122600160a060020a03600435166102fd565b600254600160a060020a031690565b600061020b610240565b905090565b610218610201565b600160a060020a0316331461022c57600080fd5b6102368282610385565b5050565b60015490565b600054600160a060020a031690565b610257610201565b600160a060020a0316331461026b57600080fd5b6102758383610210565b30600160a060020a0316348260405180828051906020019080838360005b838110156102ab578181015183820152602001610293565b50505050905090810190601f1680156102d85780820380516001836020036101000a031916815260200191505b5091505060006040518083038185875af19250505015156102f857600080fd5b505050565b610305610201565b600160a060020a0316331461031957600080fd5b600160a060020a038116151561032e57600080fd5b7f5a3e66efaa1e445ebd894728a69d6959842ea1e97bd79b892797106e270efcd9610357610201565b60408051600160a060020a03928316815291841660208301528051918290030190a161038281610416565b50565b600254600160a060020a03828116911614156103a057600080fd5b60015482116103ae57600080fd5b600182905560028054600160a060020a03831673ffffffffffffffffffffffffffffffffffffffff1990911681179091556040805184815290517f4289d6195cf3c2d2174adf98d0e19d4d2d08887995b99cb7b100e7ffe795820e9181900360200190a25050565b6000805473ffffffffffffffffffffffffffffffffffffffff1916600160a060020a03929092169190911790555600a165627a7a7230582088432b477e8dd14819561c5ef40a9f570320355850d464dc35e1611a4d6aaef00029",
  "source": "pragma solidity 0.4.24;\n\nimport \"./UpgradeabilityProxy.sol\";\nimport \"./UpgradeabilityOwnerStorage.sol\";\n\n\n/**\n * @title OwnedUpgradeabilityProxy\n * @dev This contract combines an upgradeability proxy with basic authorization control functionalities\n */\ncontract OwnedUpgradeabilityProxy is UpgradeabilityOwnerStorage, UpgradeabilityProxy {\n  /**\n  * @dev Event to show ownership has been transferred\n  * @param previousOwner representing the address of the previous owner\n  * @param newOwner representing the address of the new owner\n  */\n    event ProxyOwnershipTransferred(address previousOwner, address newOwner);\n\n    /**\n    * @dev the constructor sets the original owner of the contract to the sender account.\n    */\n    constructor() public {\n        setUpgradeabilityOwner(msg.sender);\n    }\n\n    /**\n    * @dev Throws if called by any account other than the owner.\n    */\n    modifier onlyProxyOwner() {\n        require(msg.sender == proxyOwner());\n        _;\n    }\n\n    /**\n    * @dev Tells the address of the proxy owner\n    * @return the address of the proxy owner\n    */\n    function proxyOwner() public view returns (address) {\n        return upgradeabilityOwner();\n    }\n\n    /**\n    * @dev Allows the current owner to transfer control of the contract to a newOwner.\n    * @param newOwner The address to transfer ownership to.\n    */\n    function transferProxyOwnership(address newOwner) public onlyProxyOwner {\n        require(newOwner != address(0));\n        emit ProxyOwnershipTransferred(proxyOwner(), newOwner);\n        setUpgradeabilityOwner(newOwner);\n    }\n\n    /**\n    * @dev Allows the upgradeability owner to upgrade the current version of the proxy.\n    * @param version representing the version name of the new implementation to be set.\n    * @param implementation representing the address of the new implementation to be set.\n    */\n    function upgradeTo(uint256 version, address implementation) public onlyProxyOwner {\n        _upgradeTo(version, implementation);\n    }\n\n    /**\n    * @dev Allows the upgradeability owner to upgrade the current version of the proxy and call the new implementation\n    * to initialize whatever is needed through a low level call.\n    * @param version representing the version name of the new implementation to be set.\n    * @param implementation representing the address of the new implementation to be set.\n    * @param data represents the msg.data to bet sent in the low level call. This parameter may include the function\n    * signature of the implementation to be called with the needed payload\n    */\n    function upgradeToAndCall(uint256 version, address implementation, bytes data) payable public onlyProxyOwner {\n        upgradeTo(version, implementation);\n        require(address(this).call.value(msg.value)(data));\n    }\n}\n",
  "sourcePath": "/contracts/contracts/upgradeability/OwnedUpgradeabilityProxy.sol",
  "compiler": {
    "name": "solc",
    "version": "0.4.24+commit.e67f0147.Emscripten.clang"
  },
  "schemaVersion": "2.0.0",
  "updatedAt": "2019-02-27T05:38:44.523Z"
}