{
  "contractName": "UpgradeabilityProxy",
  "abi": [
    {
      "constant": true,
      "inputs": [],
      "name": "version",
      "outputs": [
        {
          "name": "",
          "type": "uint256"
        }
      ],
      "payable": false,
      "stateMutability": "view",
      "type": "function"
    },
    {
      "constant": true,
      "inputs": [],
      "name": "implementation",
      "outputs": [
        {
          "name": "",
          "type": "address"
        }
      ],
      "payable": false,
      "stateMutability": "view",
      "type": "function"
    },
    {
      "payable": true,
      "stateMutability": "payable",
      "type": "fallback"
    },
    {
      "anonymous": false,
      "inputs": [
        {
          "indexed": false,
          "name": "version",
          "type": "uint256"
        },
        {
          "indexed": true,
          "name": "implementation",
          "type": "address"
        }
      ],
      "name": "Upgraded",
      "type": "event"
    }
  ],
  "bytecode": "0x608060405234801561001057600080fd5b50610156806100206000396000f30060806040526004361061004b5763ffffffff7c010000000000000000000000000000000000000000000000000000000060003504166354fd4d5081146100a35780635c60da1b146100ca575b6000610055610108565b905073ffffffffffffffffffffffffffffffffffffffff8116151561007957600080fd5b60405136600082376000803683855af43d82016040523d6000833e80801561009f573d83f35b3d83fd5b3480156100af57600080fd5b506100b8610124565b60408051918252519081900360200190f35b3480156100d657600080fd5b506100df610108565b6040805173ffffffffffffffffffffffffffffffffffffffff9092168252519081900360200190f35b60015473ffffffffffffffffffffffffffffffffffffffff1690565b600054905600a165627a7a7230582043b5fc1bf2fc88ba8766a51a44d0549034c406aec786424177322ba5ee9da99b0029",
  "source": "pragma solidity 0.4.24;\n\nimport \"./Proxy.sol\";\nimport \"./UpgradeabilityStorage.sol\";\n\n\n/**\n * @title UpgradeabilityProxy\n * @dev This contract represents a proxy where the implementation address to which it will delegate can be upgraded\n */\ncontract UpgradeabilityProxy is Proxy, UpgradeabilityStorage {\n    /**\n    * @dev This event will be emitted every time the implementation gets upgraded\n    * @param version representing the version name of the upgraded implementation\n    * @param implementation representing the address of the upgraded implementation\n    */\n    event Upgraded(uint256 version, address indexed implementation);\n\n    /**\n    * @dev Upgrades the implementation address\n    * @param version representing the version name of the new implementation to be set\n    * @param implementation representing the address of the new implementation to be set\n    */\n    function _upgradeTo(uint256 version, address implementation) internal {\n        require(_implementation != implementation);\n        require(version > _version);\n        _version = version;\n        _implementation = implementation;\n        emit Upgraded(version, implementation);\n    }\n}\n",
  "sourcePath": "/contracts/contracts/upgradeability/UpgradeabilityProxy.sol",
  "compiler": {
    "name": "solc",
    "version": "0.4.24+commit.e67f0147.Emscripten.clang"
  },
  "schemaVersion": "2.0.0",
  "updatedAt": "2019-02-27T05:38:44.524Z"
}