{
  "contractName": "UpgradeabilityStorage",
  "abi": [
    {
      "constant": true,
      "inputs": [],
      "name": "version",
      "outputs": [
        {
          "name": "",
          "type": "uint256"
        }
      ],
      "payable": false,
      "stateMutability": "view",
      "type": "function"
    },
    {
      "constant": true,
      "inputs": [],
      "name": "implementation",
      "outputs": [
        {
          "name": "",
          "type": "address"
        }
      ],
      "payable": false,
      "stateMutability": "view",
      "type": "function"
    }
  ],
  "bytecode": "0x608060405234801561001057600080fd5b5060fa8061001f6000396000f30060806040526004361060485763ffffffff7c010000000000000000000000000000000000000000000000000000000060003504166354fd4d508114604d5780635c60da1b146071575b600080fd5b348015605857600080fd5b50605f60ac565b60408051918252519081900360200190f35b348015607c57600080fd5b50608360b2565b6040805173ffffffffffffffffffffffffffffffffffffffff9092168252519081900360200190f35b60005490565b60015473ffffffffffffffffffffffffffffffffffffffff16905600a165627a7a723058200efc519289c9346d483717060dc81d5fe095b718f2c20a4bc39903c7c844cd2e0029",
  "source": "pragma solidity 0.4.24;\n\n\n/**\n * @title UpgradeabilityStorage\n * @dev This contract holds all the necessary state variables to support the upgrade functionality\n */\ncontract UpgradeabilityStorage {\n    // Version name of the current implementation\n    uint256 internal _version;\n\n    // Address of the current implementation\n    address internal _implementation;\n\n    /**\n    * @dev Tells the version name of the current implementation\n    * @return string representing the name of the current version\n    */\n    function version() public view returns (uint256) {\n        return _version;\n    }\n\n    /**\n    * @dev Tells the address of the current implementation\n    * @return address of the current implementation\n    */\n    function implementation() public view returns (address) {\n        return _implementation;\n    }\n}\n",
  "sourcePath": "/contracts/contracts/upgradeability/UpgradeabilityStorage.sol",
  "compiler": {
    "name": "solc",
    "version": "0.4.24+commit.e67f0147.Emscripten.clang"
  },
  "schemaVersion": "2.0.0",
  "updatedAt": "2019-02-27T05:38:44.524Z"
}